{
  "transactions": [
    {
      "hash": "0xec6bdd3a271fd827a09fab462a61dcbfe2592c6afcab490dbbd85049d92706b8",
      "transactionType": "CALL",
      "contractName": null,
      "contractAddress": "0x39cb184af026c05b6bcb507aa8365b2dbb377dcd",
      "function": "createProposal(string,address,bool,string,uint256)",
      "arguments": [
        "prop3",
        "0x6B0D6DD57981D90096D89c98548Feb23F9490890",
        "true",
        "suspicious address",
        "1743866262"
      ],
      "transaction": {
        "from": "0xbd51f3433a10128bcf9d8061f3eee39b2bce07b7",
        "to": "0x39cb184af026c05b6bcb507aa8365b2dbb377dcd",
        "gas": "0x2ae80",
        "value": "0x0",
        "input": "0x91e832bb00000000000000000000000000000000000000000000000000000000000000a00000000000000000000000006b0d6dd57981d90096d89c98548feb23f9490890000000000000000000000000000000000000000000000000000000000000000100000000000000000000000000000000000000000000000000000000000000e00000000000000000000000000000000000000000000000000000000067f14996000000000000000000000000000000000000000000000000000000000000000570726f70330000000000000000000000000000000000000000000000000000000000000000000000000000000000000000000000000000000000000000000012737573706963696f757320616464726573730000000000000000000000000000",
        "nonce": "0xc",
        "chainId": "0x12c1"
      },
      "additionalContracts": [],
      "isFixedGasLimit": false
    },
    {
      "hash": "0x7b531477bf5375c7d6b08083cd70a62a9503a5adfc3ba89a5278a94912bdbcfb",
      "transactionType": "CALL",
      "contractName": null,
      "contractAddress": "0x39cb184af026c05b6bcb507aa8365b2dbb377dcd",
      "function": "commitVote(string,bytes32)",
      "arguments": [
        "prop3",
        "0xb2319d1a1d4ebe3b634c9c95f96ff9f616f3b9429565658ff2bfc2eb516f94f1"
      ],
      "transaction": {
        "from": "0xbd51f3433a10128bcf9d8061f3eee39b2bce07b7",
        "to": "0x39cb184af026c05b6bcb507aa8365b2dbb377dcd",
        "gas": "0x397b3",
        "value": "0x0",
        "input": "0x56d8f6fe0000000000000000000000000000000000000000000000000000000000000040b2319d1a1d4ebe3b634c9c95f96ff9f616f3b9429565658ff2bfc2eb516f94f1000000000000000000000000000000000000000000000000000000000000000570726f7033000000000000000000000000000000000000000000000000000000",
        "nonce": "0xd",
        "chainId": "0x12c1"
      },
      "additionalContracts": [],
      "isFixedGasLimit": false
    },
    {
      "hash": "0xec0e13a4423b235341203fa87d702a6df04bb9bd647d48f3959709d43cc8233e",
      "transactionType": "CALL",
      "contractName": null,
      "contractAddress": "0x39cb184af026c05b6bcb507aa8365b2dbb377dcd",
      "function": "commitVote(string,bytes32)",
      "arguments": [
        "prop3",
        "0x90638151823553fdc18a2d09a203fafedce08bb012a2f97ea897aba010828b29"
      ],
      "transaction": {
        "from": "0xb78686a2f9cb282e72795a0c78087ed69bdb0759",
        "to": "0x39cb184af026c05b6bcb507aa8365b2dbb377dcd",
        "gas": "0x2d451",
        "value": "0x0",
        "input": "0x56d8f6fe000000000000000000000000000000000000000000000000000000000000004090638151823553fdc18a2d09a203fafedce08bb012a2f97ea897aba010828b29000000000000000000000000000000000000000000000000000000000000000570726f7033000000000000000000000000000000000000000000000000000000",
        "nonce": "0x9",
        "chainId": "0x12c1"
      },
      "additionalContracts": [],
      "isFixedGasLimit": false
    },
    {
      "hash": "0x3ec306a2fe3d66fbc681d4efd1bafc9a627a8a66ce4dfb2844182891e014001c",
      "transactionType": "CALL",
      "contractName": null,
      "contractAddress": "0x39cb184af026c05b6bcb507aa8365b2dbb377dcd",
      "function": "commitVote(string,bytes32)",
      "arguments": [
        "prop3",
        "0xf22eb50448c0ad7b424e3a928a9977d42fee3bca4e873977c53ec7c2b729be11"
      ],
      "transaction": {
        "from": "0x64adb4f077ca5de063e0105c5b9d905d48b547a7",
        "to": "0x39cb184af026c05b6bcb507aa8365b2dbb377dcd",
        "gas": "0x2d451",
        "value": "0x0",
        "input": "0x56d8f6fe0000000000000000000000000000000000000000000000000000000000000040f22eb50448c0ad7b424e3a928a9977d42fee3bca4e873977c53ec7c2b729be11000000000000000000000000000000000000000000000000000000000000000570726f7033000000000000000000000000000000000000000000000000000000",
        "nonce": "0x7",
        "chainId": "0x12c1"
      },
      "additionalContracts": [],
      "isFixedGasLimit": false
    }
  ],
  "receipts": [
    {
      "status": "0x1",
      "cumulativeGasUsed": "0x29c37",
      "logs": [
        {
          "address": "0x39cb184af026c05b6bcb507aa8365b2dbb377dcd",
          "topics": [
            "0x1a51752aa6f33b6ca737e2496a349f112944c0bb58bd54d60d6cf2b57c681b6c"
          ],
          "data": "0x00000000000000000000000000000000000000000000000000000000000000400000000000000000000000000000000000000000000000000000000000000080000000000000000000000000000000000000000000000000000000000000000570726f70330000000000000000000000000000000000000000000000000000000000000000000000000000000000000000000000000000000000000000000012737573706963696f757320616464726573730000000000000000000000000000",
          "blockHash": "0xd4d6668be517b8e78f613ac69a792095b625e81c4890dd6e08eb206b957789ba",
          "blockNumber": "0xb1e875",
          "transactionHash": "0xec6bdd3a271fd827a09fab462a61dcbfe2592c6afcab490dbbd85049d92706b8",
          "transactionIndex": "0x1",
          "logIndex": "0x0",
          "removed": false
        }
      ],
      "logsBloom": "0x00000000000000000000000000000000000000000000000000000000000000000000000000000000000000000000000000000000000000000000000000000000000000000000000000000000000000000000000000000000000000000000000000000000000000000000001001000000000000000000040000000000000000000000000000000000000000000000000000000000000000000000000000000000000000000800000000000000040000000000000000000000000000000000000000000000000000000000000000400000000000000000000000000000000000000000000000000000000000000000000000000000000000000000000000000000",
      "type": "0x2",
      "transactionHash": "0xec6bdd3a271fd827a09fab462a61dcbfe2592c6afcab490dbbd85049d92706b8",
      "transactionIndex": "0x1",
      "blockHash": "0xd4d6668be517b8e78f613ac69a792095b625e81c4890dd6e08eb206b957789ba",
      "blockNumber": "0xb1e875",
      "gasUsed": "0x1f104",
      "effectiveGasPrice": "0xfb",
      "blobGasUsed": "0x0",
      "from": "0xbd51f3433a10128bcf9d8061f3eee39b2bce07b7",
      "to": "0x39cb184af026c05b6bcb507aa8365b2dbb377dcd",
      "contractAddress": null,
      "l1BaseFeeScalar": "0x558",
      "l1BlobBaseFee": "0x32e5",
      "l1BlobBaseFeeScalar": "0xc5fc5",
      "l1Fee": "0x62373e",
      "l1GasPrice": "0x18ee6d",
      "l1GasUsed": "0x8ae"
    },
    {
      "status": "0x1",
      "cumulativeGasUsed": "0x3200e",
      "logs": [
        {
          "address": "0x39cb184af026c05b6bcb507aa8365b2dbb377dcd",
          "topics": [
            "0x50243476cf032fae798fcf62289573b1a73fe13390986e4368c6cd4a21944c36"
          ],
          "data": "0x0000000000000000000000000000000000000000000000000000000000000040000000000000000000000000bd51f3433a10128bcf9d8061f3eee39b2bce07b7000000000000000000000000000000000000000000000000000000000000000570726f7033000000000000000000000000000000000000000000000000000000",
          "blockHash": "0xd0c81a3e77c3284f1aff3e8370e921a108a068cd2b5a86d405907864e6a5c795",
          "blockNumber": "0xb1e878",
          "transactionHash": "0x7b531477bf5375c7d6b08083cd70a62a9503a5adfc3ba89a5278a94912bdbcfb",
          "transactionIndex": "0x1",
          "logIndex": "0x0",
          "removed": false
        }
      ],
      "logsBloom": "0x00000000000000000000000000000000000000000000000000000000000000000000000000000000000000000000000000000000000000000000000000000000000000000000000000000000000000000000000000000000000000000000000000000000000000000000001000000000000000000000000000000000000000000000000000000000000000000000000000000000000000000000000000000000000000000800000000000000040000000000010000000000000000000000000000000000000000000000000000000080000000000000000000000000000000000000000020000000000000000000000000000000000000000000000000000000",
      "type": "0x2",
      "transactionHash": "0x7b531477bf5375c7d6b08083cd70a62a9503a5adfc3ba89a5278a94912bdbcfb",
      "transactionIndex": "0x1",
      "blockHash": "0xd0c81a3e77c3284f1aff3e8370e921a108a068cd2b5a86d405907864e6a5c795",
      "blockNumber": "0xb1e878",
      "gasUsed": "0x274db",
      "effectiveGasPrice": "0xfb",
      "blobGasUsed": "0x0",
      "from": "0xbd51f3433a10128bcf9d8061f3eee39b2bce07b7",
      "to": "0x39cb184af026c05b6bcb507aa8365b2dbb377dcd",
      "contractAddress": null,
      "l1BaseFeeScalar": "0x558",
      "l1BlobBaseFee": "0x3883",
      "l1BlobBaseFeeScalar": "0xc5fc5",
      "l1Fee": "0x4c8518",
      "l1GasPrice": "0x1a9f53",
      "l1GasUsed": "0x647"
    },
    {
      "status": "0x1",
      "cumulativeGasUsed": "0x29a76",
      "logs": [
        {
          "address": "0x39cb184af026c05b6bcb507aa8365b2dbb377dcd",
          "topics": [
            "0x50243476cf032fae798fcf62289573b1a73fe13390986e4368c6cd4a21944c36"
          ],
          "data": "0x0000000000000000000000000000000000000000000000000000000000000040000000000000000000000000b78686a2f9cb282e72795a0c78087ed69bdb0759000000000000000000000000000000000000000000000000000000000000000570726f7033000000000000000000000000000000000000000000000000000000",
          "blockHash": "0x344e2078c1d8a86a6a60220160b82ea1441e69a0f9b04722e9eaa7cdda1bc30b",
          "blockNumber": "0xb1e87a",
          "transactionHash": "0xec0e13a4423b235341203fa87d702a6df04bb9bd647d48f3959709d43cc8233e",
          "transactionIndex": "0x1",
          "logIndex": "0x0",
          "removed": false
        }
      ],
      "logsBloom": "0x00000000000000000000000000000000000000000000000000000000000000000000000000000000000000000000000000000000000000000000000000000000000000000000000000000000000000000000000000000000000000000000000000000000000000000000001000000000000000000000000000000000000000000000000000000000000000000000000000000000000000000000000000000000000000000800000000000000040000000000010000000000000000000000000000000000000000000000000000000080000000000000000000000000000000000000000020000000000000000000000000000000000000000000000000000000",
      "type": "0x2",
      "transactionHash": "0xec0e13a4423b235341203fa87d702a6df04bb9bd647d48f3959709d43cc8233e",
      "transactionIndex": "0x1",
      "blockHash": "0x344e2078c1d8a86a6a60220160b82ea1441e69a0f9b04722e9eaa7cdda1bc30b",
      "blockNumber": "0xb1e87a",
      "gasUsed": "0x1ef43",
      "effectiveGasPrice": "0xfb",
      "blobGasUsed": "0x0",
      "from": "0xb78686a2f9cb282e72795a0c78087ed69bdb0759",
      "to": "0x39cb184af026c05b6bcb507aa8365b2dbb377dcd",
      "contractAddress": null,
      "l1BaseFeeScalar": "0x558",
      "l1BlobBaseFee": "0x3883",
      "l1BlobBaseFeeScalar": "0xc5fc5",
      "l1Fee": "0x4c8518",
      "l1GasPrice": "0x1a9f53",
      "l1GasUsed": "0x647"
    },
    {
      "status": "0x1",
      "cumulativeGasUsed": "0x29a76",
      "logs": [
        {
          "address": "0x39cb184af026c05b6bcb507aa8365b2dbb377dcd",
          "topics": [
            "0x50243476cf032fae798fcf62289573b1a73fe13390986e4368c6cd4a21944c36"
          ],
          "data": "0x000000000000000000000000000000000000000000000000000000000000004000000000000000000000000064adb4f077ca5de063e0105c5b9d905d48b547a7000000000000000000000000000000000000000000000000000000000000000570726f7033000000000000000000000000000000000000000000000000000000",
          "blockHash": "0xb43874455f6d9e23038dc912bb26a874190a13e9ac2276aff37b890160198b8b",
          "blockNumber": "0xb1e87c",
          "transactionHash": "0x3ec306a2fe3d66fbc681d4efd1bafc9a627a8a66ce4dfb2844182891e014001c",
          "transactionIndex": "0x1",
          "logIndex": "0x0",
          "removed": false
        }
      ],
      "logsBloom": "0x00000000000000000000000000000000000000000000000000000000000000000000000000000000000000000000000000000000000000000000000000000000000000000000000000000000000000000000000000000000000000000000000000000000000000000000001000000000000000000000000000000000000000000000000000000000000000000000000000000000000000000000000000000000000000000800000000000000040000000000010000000000000000000000000000000000000000000000000000000080000000000000000000000000000000000000000020000000000000000000000000000000000000000000000000000000",
      "type": "0x2",
      "transactionHash": "0x3ec306a2fe3d66fbc681d4efd1bafc9a627a8a66ce4dfb2844182891e014001c",
      "transactionIndex": "0x1",
      "blockHash": "0xb43874455f6d9e23038dc912bb26a874190a13e9ac2276aff37b890160198b8b",
      "blockNumber": "0xb1e87c",
      "gasUsed": "0x1ef43",
      "effectiveGasPrice": "0xfb",
      "blobGasUsed": "0x0",
      "from": "0x64adb4f077ca5de063e0105c5b9d905d48b547a7",
      "to": "0x39cb184af026c05b6bcb507aa8365b2dbb377dcd",
      "contractAddress": null,
      "l1BaseFeeScalar": "0x558",
      "l1BlobBaseFee": "0x3883",
      "l1BlobBaseFeeScalar": "0xc5fc5",
      "l1Fee": "0x4c8518",
      "l1GasPrice": "0x1a9f53",
      "l1GasUsed": "0x647"
    }
  ],
  "libraries": [],
  "pending": [],
  "returns": {},
  "timestamp": 1743866201,
  "chain": 4801,
  "commit": "f55a936"
}