{
  "transactions": [
    {
      "hash": "0x9ca8cb79a2eb3fc6f2ae6b684dc5da5298ee8a19e5d39584c72bf51f8b29600b",
      "transactionType": "CALL",
      "contractName": null,
      "contractAddress": "0xcea98d137e42bbfae8192efb4eecaeb0204ba158",
      "function": "mint(address,uint256)",
      "arguments": [
        "0xBD51F3433A10128BCF9D8061f3EEe39B2bCe07b7",
        "1000000000000000000000000"
      ],
      "transaction": {
        "from": "0x851a7ba59ee589560921ebb47d464e15b8afe901",
        "to": "0xcea98d137e42bbfae8192efb4eecaeb0204ba158",
        "gas": "0xd819",
        "value": "0x0",
        "input": "0x40c10f19000000000000000000000000bd51f3433a10128bcf9d8061f3eee39b2bce07b700000000000000000000000000000000000000000000d3c21bcecceda1000000",
        "nonce": "0x25",
        "chainId": "0x12c1"
      },
      "additionalContracts": [],
      "isFixedGasLimit": false
    },
    {
      "hash": "0x44abf5840f4d7257a0435382298e0fff6c5d05475dd6fe61c202d2fafc30512f",
      "transactionType": "CALL",
      "contractName": null,
      "contractAddress": "0xcea98d137e42bbfae8192efb4eecaeb0204ba158",
      "function": "mint(address,uint256)",
      "arguments": [
        "0xB78686a2f9cb282E72795a0c78087eD69BDB0759",
        "1000000000000000000000000"
      ],
      "transaction": {
        "from": "0x851a7ba59ee589560921ebb47d464e15b8afe901",
        "to": "0xcea98d137e42bbfae8192efb4eecaeb0204ba158",
        "gas": "0xd819",
        "value": "0x0",
        "input": "0x40c10f19000000000000000000000000b78686a2f9cb282e72795a0c78087ed69bdb075900000000000000000000000000000000000000000000d3c21bcecceda1000000",
        "nonce": "0x26",
        "chainId": "0x12c1"
      },
      "additionalContracts": [],
      "isFixedGasLimit": false
    },
    {
      "hash": "0xbb3c975eb11db9aa69f0d973c541d0dd5937d37df754c12ad1d5bb629feaa0b0",
      "transactionType": "CALL",
      "contractName": null,
      "contractAddress": "0xcea98d137e42bbfae8192efb4eecaeb0204ba158",
      "function": "mint(address,uint256)",
      "arguments": [
        "0x64Adb4F077ca5dE063e0105c5b9d905D48B547a7",
        "1000000000000000000000000"
      ],
      "transaction": {
        "from": "0x851a7ba59ee589560921ebb47d464e15b8afe901",
        "to": "0xcea98d137e42bbfae8192efb4eecaeb0204ba158",
        "gas": "0xd819",
        "value": "0x0",
        "input": "0x40c10f1900000000000000000000000064adb4f077ca5de063e0105c5b9d905d48b547a700000000000000000000000000000000000000000000d3c21bcecceda1000000",
        "nonce": "0x27",
        "chainId": "0x12c1"
      },
      "additionalContracts": [],
      "isFixedGasLimit": false
    },
    {
      "hash": "0x9427f07ba83a0d1ef20102dfe1e5138813ec1761597d7e8f6d26618b9ca4434c",
      "transactionType": "CALL",
      "contractName": null,
      "contractAddress": "0xcea98d137e42bbfae8192efb4eecaeb0204ba158",
      "function": "approve(address,uint256)",
      "arguments": [
        "0x39CB184af026c05B6BcB507aA8365B2dbb377dcD",
        "1000000000000000000000"
      ],
      "transaction": {
        "from": "0xbd51f3433a10128bcf9d8061f3eee39b2bce07b7",
        "to": "0xcea98d137e42bbfae8192efb4eecaeb0204ba158",
        "gas": "0xa9cc",
        "value": "0x0",
        "input": "0x095ea7b300000000000000000000000039cb184af026c05b6bcb507aa8365b2dbb377dcd00000000000000000000000000000000000000000000003635c9adc5dea00000",
        "nonce": "0x4",
        "chainId": "0x12c1"
      },
      "additionalContracts": [],
      "isFixedGasLimit": false
    },
    {
      "hash": "0x9af5d8c88ec52c686a558f377399edef61ec02a92b3bb439fe0ac8fa7d21a786",
      "transactionType": "CALL",
      "contractName": null,
      "contractAddress": "0x39cb184af026c05b6bcb507aa8365b2dbb377dcd",
      "function": "stake(uint256)",
      "arguments": [
        "1000000000000000000000"
      ],
      "transaction": {
        "from": "0xbd51f3433a10128bcf9d8061f3eee39b2bce07b7",
        "to": "0x39cb184af026c05b6bcb507aa8365b2dbb377dcd",
        "gas": "0x12d2f",
        "value": "0x0",
        "input": "0xa694fc3a00000000000000000000000000000000000000000000003635c9adc5dea00000",
        "nonce": "0x5",
        "chainId": "0x12c1"
      },
      "additionalContracts": [],
      "isFixedGasLimit": false
    },
    {
      "hash": "0xec43b66952d0aff4d50b36a2e4257668a007dabd72288b4823c7dca8317a7acd",
      "transactionType": "CALL",
      "contractName": null,
      "contractAddress": "0xcea98d137e42bbfae8192efb4eecaeb0204ba158",
      "function": "approve(address,uint256)",
      "arguments": [
        "0x39CB184af026c05B6BcB507aA8365B2dbb377dcD",
        "1000000000000000000000"
      ],
      "transaction": {
        "from": "0xb78686a2f9cb282e72795a0c78087ed69bdb0759",
        "to": "0xcea98d137e42bbfae8192efb4eecaeb0204ba158",
        "gas": "0xa9cc",
        "value": "0x0",
        "input": "0x095ea7b300000000000000000000000039cb184af026c05b6bcb507aa8365b2dbb377dcd00000000000000000000000000000000000000000000003635c9adc5dea00000",
        "nonce": "0x5",
        "chainId": "0x12c1"
      },
      "additionalContracts": [],
      "isFixedGasLimit": false
    },
    {
      "hash": "0xec83978520b74b1223fd4ac85492f75a66119893ae5f01a7dbe8e0807f3fd1ab",
      "transactionType": "CALL",
      "contractName": null,
      "contractAddress": "0x39cb184af026c05b6bcb507aa8365b2dbb377dcd",
      "function": "stake(uint256)",
      "arguments": [
        "1000000000000000000000"
      ],
      "transaction": {
        "from": "0xb78686a2f9cb282e72795a0c78087ed69bdb0759",
        "to": "0x39cb184af026c05b6bcb507aa8365b2dbb377dcd",
        "gas": "0x12d2f",
        "value": "0x0",
        "input": "0xa694fc3a00000000000000000000000000000000000000000000003635c9adc5dea00000",
        "nonce": "0x6",
        "chainId": "0x12c1"
      },
      "additionalContracts": [],
      "isFixedGasLimit": false
    },
    {
      "hash": "0xa56b11aef04b316e1a0527022c48603e5851ab804e6ba4603a1fd80834f7de6e",
      "transactionType": "CALL",
      "contractName": null,
      "contractAddress": "0xcea98d137e42bbfae8192efb4eecaeb0204ba158",
      "function": "approve(address,uint256)",
      "arguments": [
        "0x39CB184af026c05B6BcB507aA8365B2dbb377dcD",
        "1000000000000000000000"
      ],
      "transaction": {
        "from": "0x64adb4f077ca5de063e0105c5b9d905d48b547a7",
        "to": "0xcea98d137e42bbfae8192efb4eecaeb0204ba158",
        "gas": "0xa9cc",
        "value": "0x0",
        "input": "0x095ea7b300000000000000000000000039cb184af026c05b6bcb507aa8365b2dbb377dcd00000000000000000000000000000000000000000000003635c9adc5dea00000",
        "nonce": "0x4",
        "chainId": "0x12c1"
      },
      "additionalContracts": [],
      "isFixedGasLimit": false
    },
    {
      "hash": "0xa03866a9ca6230bbab04886908f9f04dad98d4ce225ff267b19f6b349fe1cdca",
      "transactionType": "CALL",
      "contractName": null,
      "contractAddress": "0x39cb184af026c05b6bcb507aa8365b2dbb377dcd",
      "function": "stake(uint256)",
      "arguments": [
        "1000000000000000000000"
      ],
      "transaction": {
        "from": "0x64adb4f077ca5de063e0105c5b9d905d48b547a7",
        "to": "0x39cb184af026c05b6bcb507aa8365b2dbb377dcd",
        "gas": "0x12d2f",
        "value": "0x0",
        "input": "0xa694fc3a00000000000000000000000000000000000000000000003635c9adc5dea00000",
        "nonce": "0x5",
        "chainId": "0x12c1"
      },
      "additionalContracts": [],
      "isFixedGasLimit": false
    },
    {
      "hash": "0xd9af085f014954f5eaa6824a8a9e4a66acfee60f461ccac518edf7e3da678430",
      "transactionType": "CALL",
      "contractName": null,
      "contractAddress": "0x39cb184af026c05b6bcb507aa8365b2dbb377dcd",
      "function": "createProposal(string,address,bool,string,uint256)",
      "arguments": [
        "prop2",
        "0x6B0D6DD57981D90096D89c98548Feb23F9490890",
        "true",
        "suspicious address",
        "1743865136"
      ],
      "transaction": {
        "from": "0xbd51f3433a10128bcf9d8061f3eee39b2bce07b7",
        "to": "0x39cb184af026c05b6bcb507aa8365b2dbb377dcd",
        "gas": "0x2ae80",
        "value": "0x0",
        "input": "0x91e832bb00000000000000000000000000000000000000000000000000000000000000a00000000000000000000000006b0d6dd57981d90096d89c98548feb23f9490890000000000000000000000000000000000000000000000000000000000000000100000000000000000000000000000000000000000000000000000000000000e00000000000000000000000000000000000000000000000000000000067f14530000000000000000000000000000000000000000000000000000000000000000570726f70320000000000000000000000000000000000000000000000000000000000000000000000000000000000000000000000000000000000000000000012737573706963696f757320616464726573730000000000000000000000000000",
        "nonce": "0x6",
        "chainId": "0x12c1"
      },
      "additionalContracts": [],
      "isFixedGasLimit": false
    },
    {
      "hash": "0x5580bf13bee3952676a199ae282c0edd25cfe9da6129b6659f147e0fecc85862",
      "transactionType": "CALL",
      "contractName": null,
      "contractAddress": "0x39cb184af026c05b6bcb507aa8365b2dbb377dcd",
      "function": "commitVote(string,bytes32)",
      "arguments": [
        "prop2",
        "0xb2319d1a1d4ebe3b634c9c95f96ff9f616f3b9429565658ff2bfc2eb516f94f1"
      ],
      "transaction": {
        "from": "0xbd51f3433a10128bcf9d8061f3eee39b2bce07b7",
        "to": "0x39cb184af026c05b6bcb507aa8365b2dbb377dcd",
        "gas": "0x397b3",
        "value": "0x0",
        "input": "0x56d8f6fe0000000000000000000000000000000000000000000000000000000000000040b2319d1a1d4ebe3b634c9c95f96ff9f616f3b9429565658ff2bfc2eb516f94f1000000000000000000000000000000000000000000000000000000000000000570726f7032000000000000000000000000000000000000000000000000000000",
        "nonce": "0x7",
        "chainId": "0x12c1"
      },
      "additionalContracts": [],
      "isFixedGasLimit": false
    },
    {
      "hash": null,
      "transactionType": "CALL",
      "contractName": null,
      "contractAddress": "0x39cb184af026c05b6bcb507aa8365b2dbb377dcd",
      "function": "commitVote(string,bytes32)",
      "arguments": [
        "prop2",
        "0x90638151823553fdc18a2d09a203fafedce08bb012a2f97ea897aba010828b29"
      ],
      "transaction": {
        "from": "0xb78686a2f9cb282e72795a0c78087ed69bdb0759",
        "to": "0x39cb184af026c05b6bcb507aa8365b2dbb377dcd",
        "gas": "0x2d451",
        "value": "0x0",
        "input": "0x56d8f6fe000000000000000000000000000000000000000000000000000000000000004090638151823553fdc18a2d09a203fafedce08bb012a2f97ea897aba010828b29000000000000000000000000000000000000000000000000000000000000000570726f7032000000000000000000000000000000000000000000000000000000",
        "nonce": "0x7",
        "chainId": "0x12c1"
      },
      "additionalContracts": [],
      "isFixedGasLimit": false
    },
    {
      "hash": null,
      "transactionType": "CALL",
      "contractName": null,
      "contractAddress": "0x39cb184af026c05b6bcb507aa8365b2dbb377dcd",
      "function": "commitVote(string,bytes32)",
      "arguments": [
        "prop2",
        "0xf22eb50448c0ad7b424e3a928a9977d42fee3bca4e873977c53ec7c2b729be11"
      ],
      "transaction": {
        "from": "0x64adb4f077ca5de063e0105c5b9d905d48b547a7",
        "to": "0x39cb184af026c05b6bcb507aa8365b2dbb377dcd",
        "gas": "0x2d451",
        "value": "0x0",
        "input": "0x56d8f6fe0000000000000000000000000000000000000000000000000000000000000040f22eb50448c0ad7b424e3a928a9977d42fee3bca4e873977c53ec7c2b729be11000000000000000000000000000000000000000000000000000000000000000570726f7032000000000000000000000000000000000000000000000000000000",
        "nonce": "0x6",
        "chainId": "0x12c1"
      },
      "additionalContracts": [],
      "isFixedGasLimit": false
    }
  ],
  "receipts": [
    {
      "status": "0x1",
      "cumulativeGasUsed": "0x147a7",
      "logs": [
        {
          "address": "0xcea98d137e42bbfae8192efb4eecaeb0204ba158",
          "topics": [
            "0xddf252ad1be2c89b69c2b068fc378daa952ba7f163c4a11628f55a4df523b3ef",
            "0x0000000000000000000000000000000000000000000000000000000000000000",
            "0x000000000000000000000000bd51f3433a10128bcf9d8061f3eee39b2bce07b7"
          ],
          "data": "0x00000000000000000000000000000000000000000000d3c21bcecceda1000000",
          "blockHash": "0x5b3c021e0ca5f25f05515d60fc35eb8c63c9a4ce4019c660c5e516b3aaf8eb93",
          "blockNumber": "0xb1e669",
          "transactionHash": "0x9ca8cb79a2eb3fc6f2ae6b684dc5da5298ee8a19e5d39584c72bf51f8b29600b",
          "transactionIndex": "0x1",
          "logIndex": "0x0",
          "removed": false
        }
      ],
      "logsBloom": "0x00000000000000000000000000000000000000000000000000000000000000000000000000000000000000000000000000000000000000000000000000000000000000000000000000000008000000000000000000000000000000000000000000000000020000000000000000000800000000000000000000000010000000000008000000000000010000000000000000000000000000000000000000000000000000000000000000000000000000000000000000000000000000000000000000000002000000000000004000000000000000000000000000000000000020000000000000000000000000000000100000002000001000000000000000000000",
      "type": "0x2",
      "transactionHash": "0x9ca8cb79a2eb3fc6f2ae6b684dc5da5298ee8a19e5d39584c72bf51f8b29600b",
      "transactionIndex": "0x1",
      "blockHash": "0x5b3c021e0ca5f25f05515d60fc35eb8c63c9a4ce4019c660c5e516b3aaf8eb93",
      "blockNumber": "0xb1e669",
      "gasUsed": "0x9c74",
      "effectiveGasPrice": "0xfb",
      "blobGasUsed": "0x0",
      "from": "0x851a7ba59ee589560921ebb47d464e15b8afe901",
      "to": "0xcea98d137e42bbfae8192efb4eecaeb0204ba158",
      "contractAddress": null,
      "l1BaseFeeScalar": "0x558",
      "l1BlobBaseFee": "0x899c",
      "l1BlobBaseFeeScalar": "0xc5fc5",
      "l1Fee": "0xa1131a",
      "l1GasPrice": "0x35acb8",
      "l1GasUsed": "0x640"
    },
    {
      "status": "0x1",
      "cumulativeGasUsed": "0x1735b",
      "logs": [
        {
          "address": "0xcea98d137e42bbfae8192efb4eecaeb0204ba158",
          "topics": [
            "0xddf252ad1be2c89b69c2b068fc378daa952ba7f163c4a11628f55a4df523b3ef",
            "0x0000000000000000000000000000000000000000000000000000000000000000",
            "0x000000000000000000000000b78686a2f9cb282e72795a0c78087ed69bdb0759"
          ],
          "data": "0x00000000000000000000000000000000000000000000d3c21bcecceda1000000",
          "blockHash": "0xc292c6028588b58e9a631cf7462c1420b1feb79c2dfaabac585893d8bcfcecce",
          "blockNumber": "0xb1e66b",
          "transactionHash": "0x44abf5840f4d7257a0435382298e0fff6c5d05475dd6fe61c202d2fafc30512f",
          "transactionIndex": "0x1",
          "logIndex": "0x0",
          "removed": false
        }
      ],
      "logsBloom": "0x00000000000000000000000000000000000000000000000000000000000000000000000000000000000000000000000000000000000000000000000000000000000000000000000000000008000000000000000000000000000000000000000000000000020000000000000000000800000000000000000000000010000000000000000000000000010000000000000000000000000000000000000102000000010000000000000000000000000000000000000000000000000000000000000000000002000000000000004000000000000000000000000000000000000020000000000000000000000000000000100000000000000000000000000000000000",
      "type": "0x2",
      "transactionHash": "0x44abf5840f4d7257a0435382298e0fff6c5d05475dd6fe61c202d2fafc30512f",
      "transactionIndex": "0x1",
      "blockHash": "0xc292c6028588b58e9a631cf7462c1420b1feb79c2dfaabac585893d8bcfcecce",
      "blockNumber": "0xb1e66b",
      "gasUsed": "0x9c74",
      "effectiveGasPrice": "0xfb",
      "blobGasUsed": "0x0",
      "from": "0x851a7ba59ee589560921ebb47d464e15b8afe901",
      "to": "0xcea98d137e42bbfae8192efb4eecaeb0204ba158",
      "contractAddress": null,
      "l1BaseFeeScalar": "0x558",
      "l1BlobBaseFee": "0x860e",
      "l1BlobBaseFeeScalar": "0xc5fc5",
      "l1Fee": "0x9c4381",
      "l1GasPrice": "0x33fdbd",
      "l1GasUsed": "0x640"
    },
    {
      "status": "0x1",
      "cumulativeGasUsed": "0x147a7",
      "logs": [
        {
          "address": "0xcea98d137e42bbfae8192efb4eecaeb0204ba158",
          "topics": [
            "0xddf252ad1be2c89b69c2b068fc378daa952ba7f163c4a11628f55a4df523b3ef",
            "0x0000000000000000000000000000000000000000000000000000000000000000",
            "0x00000000000000000000000064adb4f077ca5de063e0105c5b9d905d48b547a7"
          ],
          "data": "0x00000000000000000000000000000000000000000000d3c21bcecceda1000000",
          "blockHash": "0xc0b9f087656b3cc65f5adf348714448e264e4434a7bc9217ad7c3188fcab3dc3",
          "blockNumber": "0xb1e66d",
          "transactionHash": "0xbb3c975eb11db9aa69f0d973c541d0dd5937d37df754c12ad1d5bb629feaa0b0",
          "transactionIndex": "0x1",
          "logIndex": "0x0",
          "removed": false
        }
      ],
      "logsBloom": "0x00000000000000000000000000000000000000000000000000000000000000000000000000000000000000000000000000000000000000000000200000000000000000000000000000000008000000000000000000000000000000000000000000000000020000000000000000000800000000000800000000000010000000000000000000000000010200000000000000000000000000000000000000000000000000000000000000000000000000000000000000000000000000000000000000000002000000000000004000000000000000000000000000000000000020000000000000000000000000000000100000000000000000000000000000000000",
      "type": "0x2",
      "transactionHash": "0xbb3c975eb11db9aa69f0d973c541d0dd5937d37df754c12ad1d5bb629feaa0b0",
      "transactionIndex": "0x1",
      "blockHash": "0xc0b9f087656b3cc65f5adf348714448e264e4434a7bc9217ad7c3188fcab3dc3",
      "blockNumber": "0xb1e66d",
      "gasUsed": "0x9c74",
      "effectiveGasPrice": "0xfb",
      "blobGasUsed": "0x0",
      "from": "0x851a7ba59ee589560921ebb47d464e15b8afe901",
      "to": "0xcea98d137e42bbfae8192efb4eecaeb0204ba158",
      "contractAddress": null,
      "l1BaseFeeScalar": "0x558",
      "l1BlobBaseFee": "0x860e",
      "l1BlobBaseFeeScalar": "0xc5fc5",
      "l1Fee": "0x9c4381",
      "l1GasPrice": "0x33fdbd",
      "l1GasUsed": "0x640"
    },
    {
      "status": "0x1",
      "cumulativeGasUsed": "0x12622",
      "logs": [
        {
          "address": "0xcea98d137e42bbfae8192efb4eecaeb0204ba158",
          "topics": [
            "0x8c5be1e5ebec7d5bd14f71427d1e84f3dd0314c0f7b2291e5b200ac8c7c3b925",
            "0x000000000000000000000000bd51f3433a10128bcf9d8061f3eee39b2bce07b7",
            "0x00000000000000000000000039cb184af026c05b6bcb507aa8365b2dbb377dcd"
          ],
          "data": "0x00000000000000000000000000000000000000000000003635c9adc5dea00000",
          "blockHash": "0xf296f031b7d35f28c854811d00caceabb2d10eb81985ee56fe5633a48ec05662",
          "blockNumber": "0xb1e66f",
          "transactionHash": "0x9427f07ba83a0d1ef20102dfe1e5138813ec1761597d7e8f6d26618b9ca4434c",
          "transactionIndex": "0x1",
          "logIndex": "0x0",
          "removed": false
        }
      ],
      "logsBloom": "0x00000000000000000000000000000000000000000000000000000000000000000000000000000000000000000000000000000000000000000000000000200000000000000000000000000000000000000000000000000000000000000000000000000000040000000000000000000000000000000000000000000000000000000008000000000000010000000000000000000000000000000000000000000000020000000000000000000000000000000000000100000000000000000000000000000000000000000000004000000000000000000000000000000000000000000010800000000000000000000000100000002000001000000000000000000000",
      "type": "0x2",
      "transactionHash": "0x9427f07ba83a0d1ef20102dfe1e5138813ec1761597d7e8f6d26618b9ca4434c",
      "transactionIndex": "0x1",
      "blockHash": "0xf296f031b7d35f28c854811d00caceabb2d10eb81985ee56fe5633a48ec05662",
      "blockNumber": "0xb1e66f",
      "gasUsed": "0x7aef",
      "effectiveGasPrice": "0xfb",
      "blobGasUsed": "0x0",
      "from": "0xbd51f3433a10128bcf9d8061f3eee39b2bce07b7",
      "to": "0xcea98d137e42bbfae8192efb4eecaeb0204ba158",
      "contractAddress": null,
      "l1BaseFeeScalar": "0x558",
      "l1BlobBaseFee": "0x860e",
      "l1BlobBaseFeeScalar": "0xc5fc5",
      "l1Fee": "0x9c4381",
      "l1GasPrice": "0x33fdbd",
      "l1GasUsed": "0x640"
    },
    {
      "status": "0x1",
      "cumulativeGasUsed": "0x1b0f5",
      "logs": [
        {
          "address": "0xcea98d137e42bbfae8192efb4eecaeb0204ba158",
          "topics": [
            "0xddf252ad1be2c89b69c2b068fc378daa952ba7f163c4a11628f55a4df523b3ef",
            "0x000000000000000000000000bd51f3433a10128bcf9d8061f3eee39b2bce07b7",
            "0x00000000000000000000000039cb184af026c05b6bcb507aa8365b2dbb377dcd"
          ],
          "data": "0x00000000000000000000000000000000000000000000003635c9adc5dea00000",
          "blockHash": "0xe1606140be68e76edecf99b2e57537853068342916e89cf9d5358888384942b8",
          "blockNumber": "0xb1e671",
          "transactionHash": "0x9af5d8c88ec52c686a558f377399edef61ec02a92b3bb439fe0ac8fa7d21a786",
          "transactionIndex": "0x1",
          "logIndex": "0x0",
          "removed": false
        },
        {
          "address": "0x39cb184af026c05b6bcb507aa8365b2dbb377dcd",
          "topics": [
            "0x9e71bc8eea02a63969f509818f2dafb9254532904319f9dbda79b67bd34a5f3d",
            "0x000000000000000000000000bd51f3433a10128bcf9d8061f3eee39b2bce07b7"
          ],
          "data": "0x00000000000000000000000000000000000000000000003635c9adc5dea00000",
          "blockHash": "0xe1606140be68e76edecf99b2e57537853068342916e89cf9d5358888384942b8",
          "blockNumber": "0xb1e671",
          "transactionHash": "0x9af5d8c88ec52c686a558f377399edef61ec02a92b3bb439fe0ac8fa7d21a786",
          "transactionIndex": "0x1",
          "logIndex": "0x1",
          "removed": false
        }
      ],
      "logsBloom": "0x00000000000000000000000000000000000000000800000000000000000000000000000000000000000000000000000000000000000000000000000000000000000000000000000000000008000000000000000000000000000000000000000040000000040000000008001000000000000000000000000000000010000000000008000000000000010000000000000000000000000000000000000000000000000000000800000000000000040000000000000100000000000000000000000000000002000000000000004000000000000000000000000000000000000000000000800000000000000000000000100000002000001000000000000000000000",
      "type": "0x2",
      "transactionHash": "0x9af5d8c88ec52c686a558f377399edef61ec02a92b3bb439fe0ac8fa7d21a786",
      "transactionIndex": "0x1",
      "blockHash": "0xe1606140be68e76edecf99b2e57537853068342916e89cf9d5358888384942b8",
      "blockNumber": "0xb1e671",
      "gasUsed": "0xda0e",
      "effectiveGasPrice": "0xfb",
      "blobGasUsed": "0x0",
      "from": "0xbd51f3433a10128bcf9d8061f3eee39b2bce07b7",
      "to": "0x39cb184af026c05b6bcb507aa8365b2dbb377dcd",
      "contractAddress": null,
      "l1BaseFeeScalar": "0x558",
      "l1BlobBaseFee": "0x8297",
      "l1BlobBaseFeeScalar": "0xc5fc5",
      "l1Fee": "0x9a1057",
      "l1GasPrice": "0x337cd1",
      "l1GasUsed": "0x640"
    },
    {
      "status": "0x1",
      "cumulativeGasUsed": "0x12622",
      "logs": [
        {
          "address": "0xcea98d137e42bbfae8192efb4eecaeb0204ba158",
          "topics": [
            "0x8c5be1e5ebec7d5bd14f71427d1e84f3dd0314c0f7b2291e5b200ac8c7c3b925",
            "0x000000000000000000000000b78686a2f9cb282e72795a0c78087ed69bdb0759",
            "0x00000000000000000000000039cb184af026c05b6bcb507aa8365b2dbb377dcd"
          ],
          "data": "0x00000000000000000000000000000000000000000000003635c9adc5dea00000",
          "blockHash": "0xaef32eb3f19faeb388339caa396de3c24818323ee556af82e3017258392ff600",
          "blockNumber": "0xb1e673",
          "transactionHash": "0xec43b66952d0aff4d50b36a2e4257668a007dabd72288b4823c7dca8317a7acd",
          "transactionIndex": "0x1",
          "logIndex": "0x0",
          "removed": false
        }
      ],
      "logsBloom": "0x00000000000000000000000000000000000000000000000000000000000000000000000000000000000000000000000000000000000000000000000000200000000000000000000000000000000000000000000000000000000000000000000000000000040000000000000000000000000000000000000000000000000000000000000000000000010000000000000000000000000000000000000102000000030000000000000000000000000000000000000100000000000000000000000000000000000000000000004000000000000000000000000000000000000000000010800000000000000000000000100000000000000000000000000000000000",
      "type": "0x2",
      "transactionHash": "0xec43b66952d0aff4d50b36a2e4257668a007dabd72288b4823c7dca8317a7acd",
      "transactionIndex": "0x1",
      "blockHash": "0xaef32eb3f19faeb388339caa396de3c24818323ee556af82e3017258392ff600",
      "blockNumber": "0xb1e673",
      "gasUsed": "0x7aef",
      "effectiveGasPrice": "0xfb",
      "blobGasUsed": "0x0",
      "from": "0xb78686a2f9cb282e72795a0c78087ed69bdb0759",
      "to": "0xcea98d137e42bbfae8192efb4eecaeb0204ba158",
      "contractAddress": null,
      "l1BaseFeeScalar": "0x558",
      "l1BlobBaseFee": "0x8297",
      "l1BlobBaseFeeScalar": "0xc5fc5",
      "l1Fee": "0x9a1057",
      "l1GasPrice": "0x337cd1",
      "l1GasUsed": "0x640"
    },
    {
      "status": "0x1",
      "cumulativeGasUsed": "0x18541",
      "logs": [
        {
          "address": "0xcea98d137e42bbfae8192efb4eecaeb0204ba158",
          "topics": [
            "0xddf252ad1be2c89b69c2b068fc378daa952ba7f163c4a11628f55a4df523b3ef",
            "0x000000000000000000000000b78686a2f9cb282e72795a0c78087ed69bdb0759",
            "0x00000000000000000000000039cb184af026c05b6bcb507aa8365b2dbb377dcd"
          ],
          "data": "0x00000000000000000000000000000000000000000000003635c9adc5dea00000",
          "blockHash": "0xf9d1049efbdd33a094944316f8acdae20a9b5722a5013af4df1d9d4e4d244236",
          "blockNumber": "0xb1e675",
          "transactionHash": "0xec83978520b74b1223fd4ac85492f75a66119893ae5f01a7dbe8e0807f3fd1ab",
          "transactionIndex": "0x1",
          "logIndex": "0x0",
          "removed": false
        },
        {
          "address": "0x39cb184af026c05b6bcb507aa8365b2dbb377dcd",
          "topics": [
            "0x9e71bc8eea02a63969f509818f2dafb9254532904319f9dbda79b67bd34a5f3d",
            "0x000000000000000000000000b78686a2f9cb282e72795a0c78087ed69bdb0759"
          ],
          "data": "0x00000000000000000000000000000000000000000000003635c9adc5dea00000",
          "blockHash": "0xf9d1049efbdd33a094944316f8acdae20a9b5722a5013af4df1d9d4e4d244236",
          "blockNumber": "0xb1e675",
          "transactionHash": "0xec83978520b74b1223fd4ac85492f75a66119893ae5f01a7dbe8e0807f3fd1ab",
          "transactionIndex": "0x1",
          "logIndex": "0x1",
          "removed": false
        }
      ],
      "logsBloom": "0x00000000000000000000000000000000000000000800000000000000000000000000000000000000000000000000000000000000000000000000000000000000000000000000000000000008000000000000000000000000000000000000000040000000040000000008001000000000000000000000000000000010000000000000000000000000010000000000000000000000000000000000000102000000010000000800000000000000040000000000000100000000000000000000000000000002000000000000004000000000000000000000000000000000000000000000800000000000000000000000100000000000000000000000000000000000",
      "type": "0x2",
      "transactionHash": "0xec83978520b74b1223fd4ac85492f75a66119893ae5f01a7dbe8e0807f3fd1ab",
      "transactionIndex": "0x1",
      "blockHash": "0xf9d1049efbdd33a094944316f8acdae20a9b5722a5013af4df1d9d4e4d244236",
      "blockNumber": "0xb1e675",
      "gasUsed": "0xda0e",
      "effectiveGasPrice": "0xfb",
      "blobGasUsed": "0x0",
      "from": "0xb78686a2f9cb282e72795a0c78087ed69bdb0759",
      "to": "0x39cb184af026c05b6bcb507aa8365b2dbb377dcd",
      "contractAddress": null,
      "l1BaseFeeScalar": "0x558",
      "l1BlobBaseFee": "0x8297",
      "l1BlobBaseFeeScalar": "0xc5fc5",
      "l1Fee": "0x9a1057",
      "l1GasPrice": "0x337cd1",
      "l1GasUsed": "0x640"
    },
    {
      "status": "0x1",
      "cumulativeGasUsed": "0x146e6",
      "logs": [
        {
          "address": "0xcea98d137e42bbfae8192efb4eecaeb0204ba158",
          "topics": [
            "0x8c5be1e5ebec7d5bd14f71427d1e84f3dd0314c0f7b2291e5b200ac8c7c3b925",
            "0x00000000000000000000000064adb4f077ca5de063e0105c5b9d905d48b547a7",
            "0x00000000000000000000000039cb184af026c05b6bcb507aa8365b2dbb377dcd"
          ],
          "data": "0x00000000000000000000000000000000000000000000003635c9adc5dea00000",
          "blockHash": "0x1c9746b5db76083a6f5a38890d8e4a7f31b014d1d5a7a457db9ab9b75531d4fb",
          "blockNumber": "0xb1e677",
          "transactionHash": "0xa56b11aef04b316e1a0527022c48603e5851ab804e6ba4603a1fd80834f7de6e",
          "transactionIndex": "0x1",
          "logIndex": "0x0",
          "removed": false
        }
      ],
      "logsBloom": "0x00000000000000000000000000000000000000000000000000000000000000000000000000000000000000000000000000000000000000000000200000200000000000000000000000000000000000000000000000000000000000000000000000000000040000000000000000000000000000000800000000000000000000000000000000000000010200000000000000000000000000000000000000000000020000000000000000000000000000000000000100000000000000000000000000000000000000000000004000000000000000000000000000000000000000000010800000000000000000000000100000000000000000000000000000000000",
      "type": "0x2",
      "transactionHash": "0xa56b11aef04b316e1a0527022c48603e5851ab804e6ba4603a1fd80834f7de6e",
      "transactionIndex": "0x1",
      "blockHash": "0x1c9746b5db76083a6f5a38890d8e4a7f31b014d1d5a7a457db9ab9b75531d4fb",
      "blockNumber": "0xb1e677",
      "gasUsed": "0x7aef",
      "effectiveGasPrice": "0xfb",
      "blobGasUsed": "0x0",
      "from": "0x64adb4f077ca5de063e0105c5b9d905d48b547a7",
      "to": "0xcea98d137e42bbfae8192efb4eecaeb0204ba158",
      "contractAddress": null,
      "l1BaseFeeScalar": "0x558",
      "l1BlobBaseFee": "0x8297",
      "l1BlobBaseFeeScalar": "0xc5fc5",
      "l1Fee": "0x9a672a",
      "l1GasPrice": "0x33a47c",
      "l1GasUsed": "0x640"
    },
    {
      "status": "0x1",
      "cumulativeGasUsed": "0x18541",
      "logs": [
        {
          "address": "0xcea98d137e42bbfae8192efb4eecaeb0204ba158",
          "topics": [
            "0xddf252ad1be2c89b69c2b068fc378daa952ba7f163c4a11628f55a4df523b3ef",
            "0x00000000000000000000000064adb4f077ca5de063e0105c5b9d905d48b547a7",
            "0x00000000000000000000000039cb184af026c05b6bcb507aa8365b2dbb377dcd"
          ],
          "data": "0x00000000000000000000000000000000000000000000003635c9adc5dea00000",
          "blockHash": "0x4b70262074d2fe6dc1f379ea0c2f23778e93bbe2218d2b97355251d74c982fee",
          "blockNumber": "0xb1e679",
          "transactionHash": "0xa03866a9ca6230bbab04886908f9f04dad98d4ce225ff267b19f6b349fe1cdca",
          "transactionIndex": "0x1",
          "logIndex": "0x0",
          "removed": false
        },
        {
          "address": "0x39cb184af026c05b6bcb507aa8365b2dbb377dcd",
          "topics": [
            "0x9e71bc8eea02a63969f509818f2dafb9254532904319f9dbda79b67bd34a5f3d",
            "0x00000000000000000000000064adb4f077ca5de063e0105c5b9d905d48b547a7"
          ],
          "data": "0x00000000000000000000000000000000000000000000003635c9adc5dea00000",
          "blockHash": "0x4b70262074d2fe6dc1f379ea0c2f23778e93bbe2218d2b97355251d74c982fee",
          "blockNumber": "0xb1e679",
          "transactionHash": "0xa03866a9ca6230bbab04886908f9f04dad98d4ce225ff267b19f6b349fe1cdca",
          "transactionIndex": "0x1",
          "logIndex": "0x1",
          "removed": false
        }
      ],
      "logsBloom": "0x00000000000000000000000000000000000000000800000000000000000000000000000000000000000000000000000000000000000000000000200000000000000000000000000000000008000000000000000000000000000000000000000040000000040000000008001000000000000000000800000000000010000000000000000000000000010200000000000000000000000000000000000000000000000000000800000000000000040000000000000100000000000000000000000000000002000000000000004000000000000000000000000000000000000000000000800000000000000000000000100000000000000000000000000000000000",
      "type": "0x2",
      "transactionHash": "0xa03866a9ca6230bbab04886908f9f04dad98d4ce225ff267b19f6b349fe1cdca",
      "transactionIndex": "0x1",
      "blockHash": "0x4b70262074d2fe6dc1f379ea0c2f23778e93bbe2218d2b97355251d74c982fee",
      "blockNumber": "0xb1e679",
      "gasUsed": "0xda0e",
      "effectiveGasPrice": "0xfb",
      "blobGasUsed": "0x0",
      "from": "0x64adb4f077ca5de063e0105c5b9d905d48b547a7",
      "to": "0x39cb184af026c05b6bcb507aa8365b2dbb377dcd",
      "contractAddress": null,
      "l1BaseFeeScalar": "0x558",
      "l1BlobBaseFee": "0x8297",
      "l1BlobBaseFeeScalar": "0xc5fc5",
      "l1Fee": "0x9a672a",
      "l1GasPrice": "0x33a47c",
      "l1GasUsed": "0x640"
    },
    {
      "status": "0x1",
      "cumulativeGasUsed": "0x29c37",
      "logs": [
        {
          "address": "0x39cb184af026c05b6bcb507aa8365b2dbb377dcd",
          "topics": [
            "0x1a51752aa6f33b6ca737e2496a349f112944c0bb58bd54d60d6cf2b57c681b6c"
          ],
          "data": "0x00000000000000000000000000000000000000000000000000000000000000400000000000000000000000000000000000000000000000000000000000000080000000000000000000000000000000000000000000000000000000000000000570726f70320000000000000000000000000000000000000000000000000000000000000000000000000000000000000000000000000000000000000000000012737573706963696f757320616464726573730000000000000000000000000000",
          "blockHash": "0x2c279442df69204dc211d0356c242e3a29d183dbfcbd7307ec8f4caf82266d89",
          "blockNumber": "0xb1e67b",
          "transactionHash": "0xd9af085f014954f5eaa6824a8a9e4a66acfee60f461ccac518edf7e3da678430",
          "transactionIndex": "0x1",
          "logIndex": "0x0",
          "removed": false
        }
      ],
      "logsBloom": "0x00000000000000000000000000000000000000000000000000000000000000000000000000000000000000000000000000000000000000000000000000000000000000000000000000000000000000000000000000000000000000000000000000000000000000000000001001000000000000000000040000000000000000000000000000000000000000000000000000000000000000000000000000000000000000000800000000000000040000000000000000000000000000000000000000000000000000000000000000400000000000000000000000000000000000000000000000000000000000000000000000000000000000000000000000000000",
      "type": "0x2",
      "transactionHash": "0xd9af085f014954f5eaa6824a8a9e4a66acfee60f461ccac518edf7e3da678430",
      "transactionIndex": "0x1",
      "blockHash": "0x2c279442df69204dc211d0356c242e3a29d183dbfcbd7307ec8f4caf82266d89",
      "blockNumber": "0xb1e67b",
      "gasUsed": "0x1f104",
      "effectiveGasPrice": "0xfb",
      "blobGasUsed": "0x0",
      "from": "0xbd51f3433a10128bcf9d8061f3eee39b2bce07b7",
      "to": "0x39cb184af026c05b6bcb507aa8365b2dbb377dcd",
      "contractAddress": null,
      "l1BaseFeeScalar": "0x558",
      "l1BlobBaseFee": "0x8297",
      "l1BlobBaseFeeScalar": "0xc5fc5",
      "l1Fee": "0xd68507",
      "l1GasPrice": "0x33a47c",
      "l1GasUsed": "0x8ae"
    }
  ],
  "libraries": [],
  "pending": [],
  "returns": {},
  "timestamp": 1743865178,
  "chain": 4801,
  "commit": "f55a936"
}