{
  "transactions": [
    {
      "hash": "0x5c389b17e164f28b662ae641a4c2e89f0ce62cfcd7730733ca6daa2c33aec2cd",
      "transactionType": "CALL",
      "contractName": null,
      "contractAddress": "0xcea98d137e42bbfae8192efb4eecaeb0204ba158",
      "function": "mint(address,uint256)",
      "arguments": [
        "0xBD51F3433A10128BCF9D8061f3EEe39B2bCe07b7",
        "1000000000000000000000000"
      ],
      "transaction": {
        "from": "0x851a7ba59ee589560921ebb47d464e15b8afe901",
        "to": "0xcea98d137e42bbfae8192efb4eecaeb0204ba158",
        "gas": "0xd819",
        "value": "0x0",
        "input": "0x40c10f19000000000000000000000000bd51f3433a10128bcf9d8061f3eee39b2bce07b700000000000000000000000000000000000000000000d3c21bcecceda1000000",
        "nonce": "0x20",
        "chainId": "0x12c1"
      },
      "additionalContracts": [],
      "isFixedGasLimit": false
    },
    {
      "hash": "0x6f760ba1eb83b65e6aab2716eee88cd891494d2d78294b19a57362e28ffb22dc",
      "transactionType": "CALL",
      "contractName": null,
      "contractAddress": "0xcea98d137e42bbfae8192efb4eecaeb0204ba158",
      "function": "mint(address,uint256)",
      "arguments": [
        "0xB78686a2f9cb282E72795a0c78087eD69BDB0759",
        "1000000000000000000000000"
      ],
      "transaction": {
        "from": "0x851a7ba59ee589560921ebb47d464e15b8afe901",
        "to": "0xcea98d137e42bbfae8192efb4eecaeb0204ba158",
        "gas": "0xd819",
        "value": "0x0",
        "input": "0x40c10f19000000000000000000000000b78686a2f9cb282e72795a0c78087ed69bdb075900000000000000000000000000000000000000000000d3c21bcecceda1000000",
        "nonce": "0x21",
        "chainId": "0x12c1"
      },
      "additionalContracts": [],
      "isFixedGasLimit": false
    },
    {
      "hash": "0x63d83a97f4f6df77313fb8a304dd7c25480fcba671d63c60e9eb2243b45c0e08",
      "transactionType": "CALL",
      "contractName": null,
      "contractAddress": "0xcea98d137e42bbfae8192efb4eecaeb0204ba158",
      "function": "mint(address,uint256)",
      "arguments": [
        "0x64Adb4F077ca5dE063e0105c5b9d905D48B547a7",
        "1000000000000000000000000"
      ],
      "transaction": {
        "from": "0x851a7ba59ee589560921ebb47d464e15b8afe901",
        "to": "0xcea98d137e42bbfae8192efb4eecaeb0204ba158",
        "gas": "0xd819",
        "value": "0x0",
        "input": "0x40c10f1900000000000000000000000064adb4f077ca5de063e0105c5b9d905d48b547a700000000000000000000000000000000000000000000d3c21bcecceda1000000",
        "nonce": "0x22",
        "chainId": "0x12c1"
      },
      "additionalContracts": [],
      "isFixedGasLimit": false
    },
    {
      "hash": "0xd0d688669bebd54e5b7d8e69c2a4134398cc84bfaf3aadcc7fad13837169cf69",
      "transactionType": "CALL",
      "contractName": null,
      "contractAddress": "0xcea98d137e42bbfae8192efb4eecaeb0204ba158",
      "function": "approve(address,uint256)",
      "arguments": [
        "0x39CB184af026c05B6BcB507aA8365B2dbb377dcD",
        "1000000000000000000000"
      ],
      "transaction": {
        "from": "0xbd51f3433a10128bcf9d8061f3eee39b2bce07b7",
        "to": "0xcea98d137e42bbfae8192efb4eecaeb0204ba158",
        "gas": "0xa9cc",
        "value": "0x0",
        "input": "0x095ea7b300000000000000000000000039cb184af026c05b6bcb507aa8365b2dbb377dcd00000000000000000000000000000000000000000000003635c9adc5dea00000",
        "nonce": "0x2",
        "chainId": "0x12c1"
      },
      "additionalContracts": [],
      "isFixedGasLimit": false
    },
    {
      "hash": "0x3859ed4629ab2e6176728deb6ecce2a377aca24da904609121b217b43ac6e62d",
      "transactionType": "CALL",
      "contractName": null,
      "contractAddress": "0x39cb184af026c05b6bcb507aa8365b2dbb377dcd",
      "function": "stake(uint256)",
      "arguments": [
        "300000000000000000000"
      ],
      "transaction": {
        "from": "0xbd51f3433a10128bcf9d8061f3eee39b2bce07b7",
        "to": "0x39cb184af026c05b6bcb507aa8365b2dbb377dcd",
        "gas": "0x14715",
        "value": "0x0",
        "input": "0xa694fc3a00000000000000000000000000000000000000000000001043561a8829300000",
        "nonce": "0x3",
        "chainId": "0x12c1"
      },
      "additionalContracts": [],
      "isFixedGasLimit": false
    },
    {
      "hash": "0xdc253c02bdc04a2dae6a521a35d0d727156d368c20085a5b1693476a99365b6b",
      "transactionType": "CALL",
      "contractName": null,
      "contractAddress": "0xcea98d137e42bbfae8192efb4eecaeb0204ba158",
      "function": "approve(address,uint256)",
      "arguments": [
        "0x39CB184af026c05B6BcB507aA8365B2dbb377dcD",
        "1000000000000000000000"
      ],
      "transaction": {
        "from": "0xb78686a2f9cb282e72795a0c78087ed69bdb0759",
        "to": "0xcea98d137e42bbfae8192efb4eecaeb0204ba158",
        "gas": "0xa9cc",
        "value": "0x0",
        "input": "0x095ea7b300000000000000000000000039cb184af026c05b6bcb507aa8365b2dbb377dcd00000000000000000000000000000000000000000000003635c9adc5dea00000",
        "nonce": "0x3",
        "chainId": "0x12c1"
      },
      "additionalContracts": [],
      "isFixedGasLimit": false
    },
    {
      "hash": "0xe58a998c866b76ca5e6ea0f0acd86784e0b4a1c0149f0c610d7f18e3c0a30ddc",
      "transactionType": "CALL",
      "contractName": null,
      "contractAddress": "0x39cb184af026c05b6bcb507aa8365b2dbb377dcd",
      "function": "stake(uint256)",
      "arguments": [
        "300000000000000000000"
      ],
      "transaction": {
        "from": "0xb78686a2f9cb282e72795a0c78087ed69bdb0759",
        "to": "0x39cb184af026c05b6bcb507aa8365b2dbb377dcd",
        "gas": "0x14715",
        "value": "0x0",
        "input": "0xa694fc3a00000000000000000000000000000000000000000000001043561a8829300000",
        "nonce": "0x4",
        "chainId": "0x12c1"
      },
      "additionalContracts": [],
      "isFixedGasLimit": false
    },
    {
      "hash": "0x2cde092725371515b9dc19c3f7173dd5b784c386dd138c90753ab9b64fc2fec5",
      "transactionType": "CALL",
      "contractName": null,
      "contractAddress": "0xcea98d137e42bbfae8192efb4eecaeb0204ba158",
      "function": "approve(address,uint256)",
      "arguments": [
        "0x39CB184af026c05B6BcB507aA8365B2dbb377dcD",
        "1000000000000000000000"
      ],
      "transaction": {
        "from": "0x64adb4f077ca5de063e0105c5b9d905d48b547a7",
        "to": "0xcea98d137e42bbfae8192efb4eecaeb0204ba158",
        "gas": "0xa9cc",
        "value": "0x0",
        "input": "0x095ea7b300000000000000000000000039cb184af026c05b6bcb507aa8365b2dbb377dcd00000000000000000000000000000000000000000000003635c9adc5dea00000",
        "nonce": "0x2",
        "chainId": "0x12c1"
      },
      "additionalContracts": [],
      "isFixedGasLimit": false
    },
    {
      "hash": "0x1ae2835a2b5912ac7154309b09e8e0e36b2265fa33e91459a08c8309bc372f43",
      "transactionType": "CALL",
      "contractName": null,
      "contractAddress": "0x39cb184af026c05b6bcb507aa8365b2dbb377dcd",
      "function": "stake(uint256)",
      "arguments": [
        "300000000000000000000"
      ],
      "transaction": {
        "from": "0x64adb4f077ca5de063e0105c5b9d905d48b547a7",
        "to": "0x39cb184af026c05b6bcb507aa8365b2dbb377dcd",
        "gas": "0x14715",
        "value": "0x0",
        "input": "0xa694fc3a00000000000000000000000000000000000000000000001043561a8829300000",
        "nonce": "0x3",
        "chainId": "0x12c1"
      },
      "additionalContracts": [],
      "isFixedGasLimit": false
    },
    {
      "hash": "0x2328dd5b0b719ef8580dcd621e3b5b597082219331018c45aa96f02654cbbf6c",
      "transactionType": "CALL",
      "contractName": null,
      "contractAddress": "0x39cb184af026c05b6bcb507aa8365b2dbb377dcd",
      "function": "createProposal(string,address,bool,string,uint256)",
      "arguments": [
        "prop1",
        "0x6B0D6DD57981D90096D89c98548Feb23F9490890",
        "true",
        "suspicious address",
        "1743864888"
      ],
      "transaction": {
        "from": "0x851a7ba59ee589560921ebb47d464e15b8afe901",
        "to": "0x39cb184af026c05b6bcb507aa8365b2dbb377dcd",
        "gas": "0x11020",
        "value": "0x0",
        "input": "0x91e832bb00000000000000000000000000000000000000000000000000000000000000a00000000000000000000000006b0d6dd57981d90096d89c98548feb23f9490890000000000000000000000000000000000000000000000000000000000000000100000000000000000000000000000000000000000000000000000000000000e00000000000000000000000000000000000000000000000000000000067f14438000000000000000000000000000000000000000000000000000000000000000570726f70310000000000000000000000000000000000000000000000000000000000000000000000000000000000000000000000000000000000000000000012737573706963696f757320616464726573730000000000000000000000000000",
        "nonce": "0x23",
        "chainId": "0x12c1"
      },
      "additionalContracts": [],
      "isFixedGasLimit": false
    },
    {
      "hash": "0x6c0429d5d0d574a4cb8f80a5adecd742d119855bab3ba2f175ab40c639c0d113",
      "transactionType": "CALL",
      "contractName": null,
      "contractAddress": "0x39cb184af026c05b6bcb507aa8365b2dbb377dcd",
      "function": "commitVote(string,bytes32)",
      "arguments": [
        "prop1",
        "0xb2319d1a1d4ebe3b634c9c95f96ff9f616f3b9429565658ff2bfc2eb516f94f1"
      ],
      "transaction": {
        "from": "0x851a7ba59ee589560921ebb47d464e15b8afe901",
        "to": "0x39cb184af026c05b6bcb507aa8365b2dbb377dcd",
        "gas": "0x397b3",
        "value": "0x0",
        "input": "0x56d8f6fe0000000000000000000000000000000000000000000000000000000000000040b2319d1a1d4ebe3b634c9c95f96ff9f616f3b9429565658ff2bfc2eb516f94f1000000000000000000000000000000000000000000000000000000000000000570726f7031000000000000000000000000000000000000000000000000000000",
        "nonce": "0x24",
        "chainId": "0x12c1"
      },
      "additionalContracts": [],
      "isFixedGasLimit": false
    },
    {
      "hash": null,
      "transactionType": "CALL",
      "contractName": null,
      "contractAddress": "0x39cb184af026c05b6bcb507aa8365b2dbb377dcd",
      "function": "commitVote(string,bytes32)",
      "arguments": [
        "prop1",
        "0x90638151823553fdc18a2d09a203fafedce08bb012a2f97ea897aba010828b29"
      ],
      "transaction": {
        "from": "0xb78686a2f9cb282e72795a0c78087ed69bdb0759",
        "to": "0x39cb184af026c05b6bcb507aa8365b2dbb377dcd",
        "gas": "0x2d451",
        "value": "0x0",
        "input": "0x56d8f6fe000000000000000000000000000000000000000000000000000000000000004090638151823553fdc18a2d09a203fafedce08bb012a2f97ea897aba010828b29000000000000000000000000000000000000000000000000000000000000000570726f7031000000000000000000000000000000000000000000000000000000",
        "nonce": "0x5",
        "chainId": "0x12c1"
      },
      "additionalContracts": [],
      "isFixedGasLimit": false
    },
    {
      "hash": null,
      "transactionType": "CALL",
      "contractName": null,
      "contractAddress": "0x39cb184af026c05b6bcb507aa8365b2dbb377dcd",
      "function": "commitVote(string,bytes32)",
      "arguments": [
        "prop1",
        "0xf22eb50448c0ad7b424e3a928a9977d42fee3bca4e873977c53ec7c2b729be11"
      ],
      "transaction": {
        "from": "0x64adb4f077ca5de063e0105c5b9d905d48b547a7",
        "to": "0x39cb184af026c05b6bcb507aa8365b2dbb377dcd",
        "gas": "0x2d451",
        "value": "0x0",
        "input": "0x56d8f6fe0000000000000000000000000000000000000000000000000000000000000040f22eb50448c0ad7b424e3a928a9977d42fee3bca4e873977c53ec7c2b729be11000000000000000000000000000000000000000000000000000000000000000570726f7031000000000000000000000000000000000000000000000000000000",
        "nonce": "0x4",
        "chainId": "0x12c1"
      },
      "additionalContracts": [],
      "isFixedGasLimit": false
    }
  ],
  "receipts": [
    {
      "status": "0x1",
      "cumulativeGasUsed": "0x147a7",
      "logs": [
        {
          "address": "0xcea98d137e42bbfae8192efb4eecaeb0204ba158",
          "topics": [
            "0xddf252ad1be2c89b69c2b068fc378daa952ba7f163c4a11628f55a4df523b3ef",
            "0x0000000000000000000000000000000000000000000000000000000000000000",
            "0x000000000000000000000000bd51f3433a10128bcf9d8061f3eee39b2bce07b7"
          ],
          "data": "0x00000000000000000000000000000000000000000000d3c21bcecceda1000000",
          "blockHash": "0xb7e301f675b95b08a3d8e1e40014c4cdb22ae8caad9eff84c1a83f38ddfbc70c",
          "blockNumber": "0xb1e5ed",
          "transactionHash": "0x5c389b17e164f28b662ae641a4c2e89f0ce62cfcd7730733ca6daa2c33aec2cd",
          "transactionIndex": "0x1",
          "logIndex": "0x0",
          "removed": false
        }
      ],
      "logsBloom": "0x00000000000000000000000000000000000000000000000000000000000000000000000000000000000000000000000000000000000000000000000000000000000000000000000000000008000000000000000000000000000000000000000000000000020000000000000000000800000000000000000000000010000000000008000000000000010000000000000000000000000000000000000000000000000000000000000000000000000000000000000000000000000000000000000000000002000000000000004000000000000000000000000000000000000020000000000000000000000000000000100000002000001000000000000000000000",
      "type": "0x2",
      "transactionHash": "0x5c389b17e164f28b662ae641a4c2e89f0ce62cfcd7730733ca6daa2c33aec2cd",
      "transactionIndex": "0x1",
      "blockHash": "0xb7e301f675b95b08a3d8e1e40014c4cdb22ae8caad9eff84c1a83f38ddfbc70c",
      "blockNumber": "0xb1e5ed",
      "gasUsed": "0x9c74",
      "effectiveGasPrice": "0xfb",
      "blobGasUsed": "0x0",
      "from": "0x851a7ba59ee589560921ebb47d464e15b8afe901",
      "to": "0xcea98d137e42bbfae8192efb4eecaeb0204ba158",
      "contractAddress": null,
      "l1BaseFeeScalar": "0x558",
      "l1BlobBaseFee": "0x860e",
      "l1BlobBaseFeeScalar": "0xc5fc5",
      "l1Fee": "0xb2b9c4",
      "l1GasPrice": "0x3e40de",
      "l1GasUsed": "0x640"
    },
    {
      "status": "0x1",
      "cumulativeGasUsed": "0x147a7",
      "logs": [
        {
          "address": "0xcea98d137e42bbfae8192efb4eecaeb0204ba158",
          "topics": [
            "0xddf252ad1be2c89b69c2b068fc378daa952ba7f163c4a11628f55a4df523b3ef",
            "0x0000000000000000000000000000000000000000000000000000000000000000",
            "0x000000000000000000000000b78686a2f9cb282e72795a0c78087ed69bdb0759"
          ],
          "data": "0x00000000000000000000000000000000000000000000d3c21bcecceda1000000",
          "blockHash": "0xca07bc04f2b1ebffa37d0b9f06254a42f8dfba57a967434bf34b47704387e8e3",
          "blockNumber": "0xb1e5ef",
          "transactionHash": "0x6f760ba1eb83b65e6aab2716eee88cd891494d2d78294b19a57362e28ffb22dc",
          "transactionIndex": "0x1",
          "logIndex": "0x0",
          "removed": false
        }
      ],
      "logsBloom": "0x00000000000000000000000000000000000000000000000000000000000000000000000000000000000000000000000000000000000000000000000000000000000000000000000000000008000000000000000000000000000000000000000000000000020000000000000000000800000000000000000000000010000000000000000000000000010000000000000000000000000000000000000102000000010000000000000000000000000000000000000000000000000000000000000000000002000000000000004000000000000000000000000000000000000020000000000000000000000000000000100000000000000000000000000000000000",
      "type": "0x2",
      "transactionHash": "0x6f760ba1eb83b65e6aab2716eee88cd891494d2d78294b19a57362e28ffb22dc",
      "transactionIndex": "0x1",
      "blockHash": "0xca07bc04f2b1ebffa37d0b9f06254a42f8dfba57a967434bf34b47704387e8e3",
      "blockNumber": "0xb1e5ef",
      "gasUsed": "0x9c74",
      "effectiveGasPrice": "0xfb",
      "blobGasUsed": "0x0",
      "from": "0x851a7ba59ee589560921ebb47d464e15b8afe901",
      "to": "0xcea98d137e42bbfae8192efb4eecaeb0204ba158",
      "contractAddress": null,
      "l1BaseFeeScalar": "0x558",
      "l1BlobBaseFee": "0x860e",
      "l1BlobBaseFeeScalar": "0xc5fc5",
      "l1Fee": "0xb2b9c4",
      "l1GasPrice": "0x3e40de",
      "l1GasUsed": "0x640"
    },
    {
      "status": "0x1",
      "cumulativeGasUsed": "0x1735b",
      "logs": [
        {
          "address": "0xcea98d137e42bbfae8192efb4eecaeb0204ba158",
          "topics": [
            "0xddf252ad1be2c89b69c2b068fc378daa952ba7f163c4a11628f55a4df523b3ef",
            "0x0000000000000000000000000000000000000000000000000000000000000000",
            "0x00000000000000000000000064adb4f077ca5de063e0105c5b9d905d48b547a7"
          ],
          "data": "0x00000000000000000000000000000000000000000000d3c21bcecceda1000000",
          "blockHash": "0x15363cd6d2927ae821aa2ac8d6fd3a4af0cbdc2d3f595f0ae4dde293dc3eb0bc",
          "blockNumber": "0xb1e5f1",
          "transactionHash": "0x63d83a97f4f6df77313fb8a304dd7c25480fcba671d63c60e9eb2243b45c0e08",
          "transactionIndex": "0x1",
          "logIndex": "0x0",
          "removed": false
        }
      ],
      "logsBloom": "0x00000000000000000000000000000000000000000000000000000000000000000000000000000000000000000000000000000000000000000000200000000000000000000000000000000008000000000000000000000000000000000000000000000000020000000000000000000800000000000800000000000010000000000000000000000000010200000000000000000000000000000000000000000000000000000000000000000000000000000000000000000000000000000000000000000002000000000000004000000000000000000000000000000000000020000000000000000000000000000000100000000000000000000000000000000000",
      "type": "0x2",
      "transactionHash": "0x63d83a97f4f6df77313fb8a304dd7c25480fcba671d63c60e9eb2243b45c0e08",
      "transactionIndex": "0x1",
      "blockHash": "0x15363cd6d2927ae821aa2ac8d6fd3a4af0cbdc2d3f595f0ae4dde293dc3eb0bc",
      "blockNumber": "0xb1e5f1",
      "gasUsed": "0x9c74",
      "effectiveGasPrice": "0xfb",
      "blobGasUsed": "0x0",
      "from": "0x851a7ba59ee589560921ebb47d464e15b8afe901",
      "to": "0xcea98d137e42bbfae8192efb4eecaeb0204ba158",
      "contractAddress": null,
      "l1BaseFeeScalar": "0x558",
      "l1BlobBaseFee": "0x8d42",
      "l1BlobBaseFeeScalar": "0xc5fc5",
      "l1Fee": "0xb566ae",
      "l1GasPrice": "0x3e6ee9",
      "l1GasUsed": "0x640"
    },
    {
      "status": "0x1",
      "cumulativeGasUsed": "0x12622",
      "logs": [
        {
          "address": "0xcea98d137e42bbfae8192efb4eecaeb0204ba158",
          "topics": [
            "0x8c5be1e5ebec7d5bd14f71427d1e84f3dd0314c0f7b2291e5b200ac8c7c3b925",
            "0x000000000000000000000000bd51f3433a10128bcf9d8061f3eee39b2bce07b7",
            "0x00000000000000000000000039cb184af026c05b6bcb507aa8365b2dbb377dcd"
          ],
          "data": "0x00000000000000000000000000000000000000000000003635c9adc5dea00000",
          "blockHash": "0xbe385d18e67e77ce9e06e05609e6ab68514645a9f4d15a822489c36ef7e5d45c",
          "blockNumber": "0xb1e5f3",
          "transactionHash": "0xd0d688669bebd54e5b7d8e69c2a4134398cc84bfaf3aadcc7fad13837169cf69",
          "transactionIndex": "0x1",
          "logIndex": "0x0",
          "removed": false
        }
      ],
      "logsBloom": "0x00000000000000000000000000000000000000000000000000000000000000000000000000000000000000000000000000000000000000000000000000200000000000000000000000000000000000000000000000000000000000000000000000000000040000000000000000000000000000000000000000000000000000000008000000000000010000000000000000000000000000000000000000000000020000000000000000000000000000000000000100000000000000000000000000000000000000000000004000000000000000000000000000000000000000000010800000000000000000000000100000002000001000000000000000000000",
      "type": "0x2",
      "transactionHash": "0xd0d688669bebd54e5b7d8e69c2a4134398cc84bfaf3aadcc7fad13837169cf69",
      "transactionIndex": "0x1",
      "blockHash": "0xbe385d18e67e77ce9e06e05609e6ab68514645a9f4d15a822489c36ef7e5d45c",
      "blockNumber": "0xb1e5f3",
      "gasUsed": "0x7aef",
      "effectiveGasPrice": "0xfb",
      "blobGasUsed": "0x0",
      "from": "0xbd51f3433a10128bcf9d8061f3eee39b2bce07b7",
      "to": "0xcea98d137e42bbfae8192efb4eecaeb0204ba158",
      "contractAddress": null,
      "l1BaseFeeScalar": "0x558",
      "l1BlobBaseFee": "0x8d42",
      "l1BlobBaseFeeScalar": "0xc5fc5",
      "l1Fee": "0xb566ae",
      "l1GasPrice": "0x3e6ee9",
      "l1GasUsed": "0x640"
    },
    {
      "status": "0x1",
      "cumulativeGasUsed": "0x19801",
      "logs": [
        {
          "address": "0xcea98d137e42bbfae8192efb4eecaeb0204ba158",
          "topics": [
            "0xddf252ad1be2c89b69c2b068fc378daa952ba7f163c4a11628f55a4df523b3ef",
            "0x000000000000000000000000bd51f3433a10128bcf9d8061f3eee39b2bce07b7",
            "0x00000000000000000000000039cb184af026c05b6bcb507aa8365b2dbb377dcd"
          ],
          "data": "0x00000000000000000000000000000000000000000000001043561a8829300000",
          "blockHash": "0xc18be361fdf1702569b713a9f89aeb08c173996a2e3cceb5529741a8e4990fde",
          "blockNumber": "0xb1e5f5",
          "transactionHash": "0x3859ed4629ab2e6176728deb6ecce2a377aca24da904609121b217b43ac6e62d",
          "transactionIndex": "0x1",
          "logIndex": "0x0",
          "removed": false
        },
        {
          "address": "0x39cb184af026c05b6bcb507aa8365b2dbb377dcd",
          "topics": [
            "0x9e71bc8eea02a63969f509818f2dafb9254532904319f9dbda79b67bd34a5f3d",
            "0x000000000000000000000000bd51f3433a10128bcf9d8061f3eee39b2bce07b7"
          ],
          "data": "0x00000000000000000000000000000000000000000000001043561a8829300000",
          "blockHash": "0xc18be361fdf1702569b713a9f89aeb08c173996a2e3cceb5529741a8e4990fde",
          "blockNumber": "0xb1e5f5",
          "transactionHash": "0x3859ed4629ab2e6176728deb6ecce2a377aca24da904609121b217b43ac6e62d",
          "transactionIndex": "0x1",
          "logIndex": "0x1",
          "removed": false
        }
      ],
      "logsBloom": "0x00000000000000000000000000000000000000000800000000000000000000000000000000000000000000000000000000000000000000000000000000000000000000000000000000000008000000000000000000000000000000000000000040000000040000000008001000000000000000000000000000000010000000000008000000000000010000000000000000000000000000000000000000000000000000000800000000000000040000000000000100000000000000000000000000000002000000000000004000000000000000000000000000000000000000000000800000000000000000000000100000002000001000000000000000000000",
      "type": "0x2",
      "transactionHash": "0x3859ed4629ab2e6176728deb6ecce2a377aca24da904609121b217b43ac6e62d",
      "transactionIndex": "0x1",
      "blockHash": "0xc18be361fdf1702569b713a9f89aeb08c173996a2e3cceb5529741a8e4990fde",
      "blockNumber": "0xb1e5f5",
      "gasUsed": "0xecce",
      "effectiveGasPrice": "0xfb",
      "blobGasUsed": "0x0",
      "from": "0xbd51f3433a10128bcf9d8061f3eee39b2bce07b7",
      "to": "0x39cb184af026c05b6bcb507aa8365b2dbb377dcd",
      "contractAddress": null,
      "l1BaseFeeScalar": "0x558",
      "l1BlobBaseFee": "0x8d42",
      "l1BlobBaseFeeScalar": "0xc5fc5",
      "l1Fee": "0xb566ae",
      "l1GasPrice": "0x3e6ee9",
      "l1GasUsed": "0x640"
    },
    {
      "status": "0x1",
      "cumulativeGasUsed": "0x12622",
      "logs": [
        {
          "address": "0xcea98d137e42bbfae8192efb4eecaeb0204ba158",
          "topics": [
            "0x8c5be1e5ebec7d5bd14f71427d1e84f3dd0314c0f7b2291e5b200ac8c7c3b925",
            "0x000000000000000000000000b78686a2f9cb282e72795a0c78087ed69bdb0759",
            "0x00000000000000000000000039cb184af026c05b6bcb507aa8365b2dbb377dcd"
          ],
          "data": "0x00000000000000000000000000000000000000000000003635c9adc5dea00000",
          "blockHash": "0x6b49fe5c6d87497309b10dac266e4125328d4be41c461bdd637aab071d3d91dc",
          "blockNumber": "0xb1e5f7",
          "transactionHash": "0xdc253c02bdc04a2dae6a521a35d0d727156d368c20085a5b1693476a99365b6b",
          "transactionIndex": "0x1",
          "logIndex": "0x0",
          "removed": false
        }
      ],
      "logsBloom": "0x00000000000000000000000000000000000000000000000000000000000000000000000000000000000000000000000000000000000000000000000000200000000000000000000000000000000000000000000000000000000000000000000000000000040000000000000000000000000000000000000000000000000000000000000000000000010000000000000000000000000000000000000102000000030000000000000000000000000000000000000100000000000000000000000000000000000000000000004000000000000000000000000000000000000000000010800000000000000000000000100000000000000000000000000000000000",
      "type": "0x2",
      "transactionHash": "0xdc253c02bdc04a2dae6a521a35d0d727156d368c20085a5b1693476a99365b6b",
      "transactionIndex": "0x1",
      "blockHash": "0x6b49fe5c6d87497309b10dac266e4125328d4be41c461bdd637aab071d3d91dc",
      "blockNumber": "0xb1e5f7",
      "gasUsed": "0x7aef",
      "effectiveGasPrice": "0xfb",
      "blobGasUsed": "0x0",
      "from": "0xb78686a2f9cb282e72795a0c78087ed69bdb0759",
      "to": "0xcea98d137e42bbfae8192efb4eecaeb0204ba158",
      "contractAddress": null,
      "l1BaseFeeScalar": "0x558",
      "l1BlobBaseFee": "0x8d42",
      "l1BlobBaseFeeScalar": "0xc5fc5",
      "l1Fee": "0xb566ae",
      "l1GasPrice": "0x3e6ee9",
      "l1GasUsed": "0x640"
    },
    {
      "status": "0x1",
      "cumulativeGasUsed": "0x19801",
      "logs": [
        {
          "address": "0xcea98d137e42bbfae8192efb4eecaeb0204ba158",
          "topics": [
            "0xddf252ad1be2c89b69c2b068fc378daa952ba7f163c4a11628f55a4df523b3ef",
            "0x000000000000000000000000b78686a2f9cb282e72795a0c78087ed69bdb0759",
            "0x00000000000000000000000039cb184af026c05b6bcb507aa8365b2dbb377dcd"
          ],
          "data": "0x00000000000000000000000000000000000000000000001043561a8829300000",
          "blockHash": "0x4cb74b92d9f73dba67d26c8751acc5358228d089cd6bcbe3bbe8960f8ff932ca",
          "blockNumber": "0xb1e5f9",
          "transactionHash": "0xe58a998c866b76ca5e6ea0f0acd86784e0b4a1c0149f0c610d7f18e3c0a30ddc",
          "transactionIndex": "0x1",
          "logIndex": "0x0",
          "removed": false
        },
        {
          "address": "0x39cb184af026c05b6bcb507aa8365b2dbb377dcd",
          "topics": [
            "0x9e71bc8eea02a63969f509818f2dafb9254532904319f9dbda79b67bd34a5f3d",
            "0x000000000000000000000000b78686a2f9cb282e72795a0c78087ed69bdb0759"
          ],
          "data": "0x00000000000000000000000000000000000000000000001043561a8829300000",
          "blockHash": "0x4cb74b92d9f73dba67d26c8751acc5358228d089cd6bcbe3bbe8960f8ff932ca",
          "blockNumber": "0xb1e5f9",
          "transactionHash": "0xe58a998c866b76ca5e6ea0f0acd86784e0b4a1c0149f0c610d7f18e3c0a30ddc",
          "transactionIndex": "0x1",
          "logIndex": "0x1",
          "removed": false
        }
      ],
      "logsBloom": "0x00000000000000000000000000000000000000000800000000000000000000000000000000000000000000000000000000000000000000000000000000000000000000000000000000000008000000000000000000000000000000000000000040000000040000000008001000000000000000000000000000000010000000000000000000000000010000000000000000000000000000000000000102000000010000000800000000000000040000000000000100000000000000000000000000000002000000000000004000000000000000000000000000000000000000000000800000000000000000000000100000000000000000000000000000000000",
      "type": "0x2",
      "transactionHash": "0xe58a998c866b76ca5e6ea0f0acd86784e0b4a1c0149f0c610d7f18e3c0a30ddc",
      "transactionIndex": "0x1",
      "blockHash": "0x4cb74b92d9f73dba67d26c8751acc5358228d089cd6bcbe3bbe8960f8ff932ca",
      "blockNumber": "0xb1e5f9",
      "gasUsed": "0xecce",
      "effectiveGasPrice": "0xfb",
      "blobGasUsed": "0x0",
      "from": "0xb78686a2f9cb282e72795a0c78087ed69bdb0759",
      "to": "0x39cb184af026c05b6bcb507aa8365b2dbb377dcd",
      "contractAddress": null,
      "l1BaseFeeScalar": "0x558",
      "l1BlobBaseFee": "0x8d42",
      "l1BlobBaseFeeScalar": "0xc5fc5",
      "l1Fee": "0xb566ae",
      "l1GasPrice": "0x3e6ee9",
      "l1GasUsed": "0x640"
    },
    {
      "status": "0x1",
      "cumulativeGasUsed": "0x12622",
      "logs": [
        {
          "address": "0xcea98d137e42bbfae8192efb4eecaeb0204ba158",
          "topics": [
            "0x8c5be1e5ebec7d5bd14f71427d1e84f3dd0314c0f7b2291e5b200ac8c7c3b925",
            "0x00000000000000000000000064adb4f077ca5de063e0105c5b9d905d48b547a7",
            "0x00000000000000000000000039cb184af026c05b6bcb507aa8365b2dbb377dcd"
          ],
          "data": "0x00000000000000000000000000000000000000000000003635c9adc5dea00000",
          "blockHash": "0xbdd6c3e36ec15609693e00715324a7afd7cd29f4786c2de4a9bdfbb79faf21b0",
          "blockNumber": "0xb1e5fb",
          "transactionHash": "0x2cde092725371515b9dc19c3f7173dd5b784c386dd138c90753ab9b64fc2fec5",
          "transactionIndex": "0x1",
          "logIndex": "0x0",
          "removed": false
        }
      ],
      "logsBloom": "0x00000000000000000000000000000000000000000000000000000000000000000000000000000000000000000000000000000000000000000000200000200000000000000000000000000000000000000000000000000000000000000000000000000000040000000000000000000000000000000800000000000000000000000000000000000000010200000000000000000000000000000000000000000000020000000000000000000000000000000000000100000000000000000000000000000000000000000000004000000000000000000000000000000000000000000010800000000000000000000000100000000000000000000000000000000000",
      "type": "0x2",
      "transactionHash": "0x2cde092725371515b9dc19c3f7173dd5b784c386dd138c90753ab9b64fc2fec5",
      "transactionIndex": "0x1",
      "blockHash": "0xbdd6c3e36ec15609693e00715324a7afd7cd29f4786c2de4a9bdfbb79faf21b0",
      "blockNumber": "0xb1e5fb",
      "gasUsed": "0x7aef",
      "effectiveGasPrice": "0xfb",
      "blobGasUsed": "0x0",
      "from": "0x64adb4f077ca5de063e0105c5b9d905d48b547a7",
      "to": "0xcea98d137e42bbfae8192efb4eecaeb0204ba158",
      "contractAddress": null,
      "l1BaseFeeScalar": "0x558",
      "l1BlobBaseFee": "0x8d42",
      "l1BlobBaseFeeScalar": "0xc5fc5",
      "l1Fee": "0xb566ae",
      "l1GasPrice": "0x3e6ee9",
      "l1GasUsed": "0x640"
    },
    {
      "status": "0x1",
      "cumulativeGasUsed": "0x4a396",
      "logs": [
        {
          "address": "0xcea98d137e42bbfae8192efb4eecaeb0204ba158",
          "topics": [
            "0xddf252ad1be2c89b69c2b068fc378daa952ba7f163c4a11628f55a4df523b3ef",
            "0x00000000000000000000000064adb4f077ca5de063e0105c5b9d905d48b547a7",
            "0x00000000000000000000000039cb184af026c05b6bcb507aa8365b2dbb377dcd"
          ],
          "data": "0x00000000000000000000000000000000000000000000001043561a8829300000",
          "blockHash": "0x2bbaf1a2525abca9d6cbcf18ea86377e08bbcacb88ad04751ffec9ea1acebc0c",
          "blockNumber": "0xb1e5fd",
          "transactionHash": "0x1ae2835a2b5912ac7154309b09e8e0e36b2265fa33e91459a08c8309bc372f43",
          "transactionIndex": "0x2",
          "logIndex": "0x6",
          "removed": false
        },
        {
          "address": "0x39cb184af026c05b6bcb507aa8365b2dbb377dcd",
          "topics": [
            "0x9e71bc8eea02a63969f509818f2dafb9254532904319f9dbda79b67bd34a5f3d",
            "0x00000000000000000000000064adb4f077ca5de063e0105c5b9d905d48b547a7"
          ],
          "data": "0x00000000000000000000000000000000000000000000001043561a8829300000",
          "blockHash": "0x2bbaf1a2525abca9d6cbcf18ea86377e08bbcacb88ad04751ffec9ea1acebc0c",
          "blockNumber": "0xb1e5fd",
          "transactionHash": "0x1ae2835a2b5912ac7154309b09e8e0e36b2265fa33e91459a08c8309bc372f43",
          "transactionIndex": "0x2",
          "logIndex": "0x7",
          "removed": false
        }
      ],
      "logsBloom": "0x00000000000000000000000000000000000000000800000000000000000000000000000000000000000000000000000000000000000000000000200000000000000000000000000000000008000000000000000000000000000000000000000040000000040000000008001000000000000000000800000000000010000000000000000000000000010200000000000000000000000000000000000000000000000000000800000000000000040000000000000100000000000000000000000000000002000000000000004000000000000000000000000000000000000000000000800000000000000000000000100000000000000000000000000000000000",
      "type": "0x2",
      "transactionHash": "0x1ae2835a2b5912ac7154309b09e8e0e36b2265fa33e91459a08c8309bc372f43",
      "transactionIndex": "0x2",
      "blockHash": "0x2bbaf1a2525abca9d6cbcf18ea86377e08bbcacb88ad04751ffec9ea1acebc0c",
      "blockNumber": "0xb1e5fd",
      "gasUsed": "0xecce",
      "effectiveGasPrice": "0xfb",
      "blobGasUsed": "0x0",
      "from": "0x64adb4f077ca5de063e0105c5b9d905d48b547a7",
      "to": "0x39cb184af026c05b6bcb507aa8365b2dbb377dcd",
      "contractAddress": null,
      "l1BaseFeeScalar": "0x558",
      "l1BlobBaseFee": "0x8297",
      "l1BlobBaseFeeScalar": "0xc5fc5",
      "l1Fee": "0xaac243",
      "l1GasPrice": "0x3b1d73",
      "l1GasUsed": "0x640"
    },
    {
      "status": "0x1",
      "cumulativeGasUsed": "0x17037",
      "logs": [
        {
          "address": "0x39cb184af026c05b6bcb507aa8365b2dbb377dcd",
          "topics": [
            "0x1a51752aa6f33b6ca737e2496a349f112944c0bb58bd54d60d6cf2b57c681b6c"
          ],
          "data": "0x00000000000000000000000000000000000000000000000000000000000000400000000000000000000000000000000000000000000000000000000000000080000000000000000000000000000000000000000000000000000000000000000570726f70310000000000000000000000000000000000000000000000000000000000000000000000000000000000000000000000000000000000000000000012737573706963696f757320616464726573730000000000000000000000000000",
          "blockHash": "0xbdd0374618225ce8d73bb0144d6603e0991be4755641565cc74c6bfa40e2a3ef",
          "blockNumber": "0xb1e5ff",
          "transactionHash": "0x2328dd5b0b719ef8580dcd621e3b5b597082219331018c45aa96f02654cbbf6c",
          "transactionIndex": "0x1",
          "logIndex": "0x0",
          "removed": false
        }
      ],
      "logsBloom": "0x00000000000000000000000000000000000000000000000000000000000000000000000000000000000000000000000000000000000000000000000000000000000000000000000000000000000000000000000000000000000000000000000000000000000000000000001001000000000000000000040000000000000000000000000000000000000000000000000000000000000000000000000000000000000000000800000000000000040000000000000000000000000000000000000000000000000000000000000000400000000000000000000000000000000000000000000000000000000000000000000000000000000000000000000000000000",
      "type": "0x2",
      "transactionHash": "0x2328dd5b0b719ef8580dcd621e3b5b597082219331018c45aa96f02654cbbf6c",
      "transactionIndex": "0x1",
      "blockHash": "0xbdd0374618225ce8d73bb0144d6603e0991be4755641565cc74c6bfa40e2a3ef",
      "blockNumber": "0xb1e5ff",
      "gasUsed": "0xc504",
      "effectiveGasPrice": "0xfb",
      "blobGasUsed": "0x0",
      "from": "0x851a7ba59ee589560921ebb47d464e15b8afe901",
      "to": "0x39cb184af026c05b6bcb507aa8365b2dbb377dcd",
      "contractAddress": null,
      "l1BaseFeeScalar": "0x558",
      "l1BlobBaseFee": "0x8297",
      "l1BlobBaseFeeScalar": "0xc5fc5",
      "l1Fee": "0xed3e5e",
      "l1GasPrice": "0x3b1d73",
      "l1GasUsed": "0x8ae"
    }
  ],
  "libraries": [],
  "pending": [],
  "returns": {},
  "timestamp": 1743864932,
  "chain": 4801,
  "commit": "f55a936"
}