{
  "transactions": [
    {
      "hash": "0x8621b83fae141f8ef8b3838792942639e2b3844dc039781d47f82d879965bb26",
      "transactionType": "CALL",
      "contractName": null,
      "contractAddress": "0x39cb184af026c05b6bcb507aa8365b2dbb377dcd",
      "function": "createProposal(string,address,bool,string,uint256)",
      "arguments": [
        "prop1",
        "0x6B0D6DD57981D90096D89c98548Feb23F9490890",
        "true",
        "suspicious address",
        "1743865270"
      ],
      "transaction": {
        "from": "0xbd51f3433a10128bcf9d8061f3eee39b2bce07b7",
        "to": "0x39cb184af026c05b6bcb507aa8365b2dbb377dcd",
        "gas": "0x11f3b",
        "value": "0x0",
        "input": "0x91e832bb00000000000000000000000000000000000000000000000000000000000000a00000000000000000000000006b0d6dd57981d90096d89c98548feb23f9490890000000000000000000000000000000000000000000000000000000000000000100000000000000000000000000000000000000000000000000000000000000e00000000000000000000000000000000000000000000000000000000067f145b6000000000000000000000000000000000000000000000000000000000000000570726f70310000000000000000000000000000000000000000000000000000000000000000000000000000000000000000000000000000000000000000000012737573706963696f757320616464726573730000000000000000000000000000",
        "nonce": "0x8",
        "chainId": "0x12c1"
      },
      "additionalContracts": [],
      "isFixedGasLimit": false
    },
    {
      "hash": "0xc1c2dfce9e4dc07b3d40a6cb09af781350028683b27d12204039da9095c2b9bb",
      "transactionType": "CALL",
      "contractName": null,
      "contractAddress": "0x39cb184af026c05b6bcb507aa8365b2dbb377dcd",
      "function": "commitVote(string,bytes32)",
      "arguments": [
        "prop1",
        "0xb2319d1a1d4ebe3b634c9c95f96ff9f616f3b9429565658ff2bfc2eb516f94f1"
      ],
      "transaction": {
        "from": "0xbd51f3433a10128bcf9d8061f3eee39b2bce07b7",
        "to": "0x39cb184af026c05b6bcb507aa8365b2dbb377dcd",
        "gas": "0x397b3",
        "value": "0x0",
        "input": "0x56d8f6fe0000000000000000000000000000000000000000000000000000000000000040b2319d1a1d4ebe3b634c9c95f96ff9f616f3b9429565658ff2bfc2eb516f94f1000000000000000000000000000000000000000000000000000000000000000570726f7031000000000000000000000000000000000000000000000000000000",
        "nonce": "0x9",
        "chainId": "0x12c1"
      },
      "additionalContracts": [],
      "isFixedGasLimit": false
    },
    {
      "hash": "0x274b372b1aef2605d653483f91ef38fa6146ceeff80f10f359a7b7e83ec786f5",
      "transactionType": "CALL",
      "contractName": null,
      "contractAddress": "0x39cb184af026c05b6bcb507aa8365b2dbb377dcd",
      "function": "commitVote(string,bytes32)",
      "arguments": [
        "prop1",
        "0x90638151823553fdc18a2d09a203fafedce08bb012a2f97ea897aba010828b29"
      ],
      "transaction": {
        "from": "0xb78686a2f9cb282e72795a0c78087ed69bdb0759",
        "to": "0x39cb184af026c05b6bcb507aa8365b2dbb377dcd",
        "gas": "0x2d451",
        "value": "0x0",
        "input": "0x56d8f6fe000000000000000000000000000000000000000000000000000000000000004090638151823553fdc18a2d09a203fafedce08bb012a2f97ea897aba010828b29000000000000000000000000000000000000000000000000000000000000000570726f7031000000000000000000000000000000000000000000000000000000",
        "nonce": "0x7",
        "chainId": "0x12c1"
      },
      "additionalContracts": [],
      "isFixedGasLimit": false
    },
    {
      "hash": null,
      "transactionType": "CALL",
      "contractName": null,
      "contractAddress": "0x39cb184af026c05b6bcb507aa8365b2dbb377dcd",
      "function": "commitVote(string,bytes32)",
      "arguments": [
        "prop1",
        "0xf22eb50448c0ad7b424e3a928a9977d42fee3bca4e873977c53ec7c2b729be11"
      ],
      "transaction": {
        "from": "0x64adb4f077ca5de063e0105c5b9d905d48b547a7",
        "to": "0x39cb184af026c05b6bcb507aa8365b2dbb377dcd",
        "gas": "0x2d451",
        "value": "0x0",
        "input": "0x56d8f6fe0000000000000000000000000000000000000000000000000000000000000040f22eb50448c0ad7b424e3a928a9977d42fee3bca4e873977c53ec7c2b729be11000000000000000000000000000000000000000000000000000000000000000570726f7031000000000000000000000000000000000000000000000000000000",
        "nonce": "0x6",
        "chainId": "0x12c1"
      },
      "additionalContracts": [],
      "isFixedGasLimit": false
    }
  ],
  "receipts": [
    {
      "status": "0x1",
      "cumulativeGasUsed": "0x17b27",
      "logs": [
        {
          "address": "0x39cb184af026c05b6bcb507aa8365b2dbb377dcd",
          "topics": [
            "0x1a51752aa6f33b6ca737e2496a349f112944c0bb58bd54d60d6cf2b57c681b6c"
          ],
          "data": "0x00000000000000000000000000000000000000000000000000000000000000400000000000000000000000000000000000000000000000000000000000000080000000000000000000000000000000000000000000000000000000000000000570726f70310000000000000000000000000000000000000000000000000000000000000000000000000000000000000000000000000000000000000000000012737573706963696f757320616464726573730000000000000000000000000000",
          "blockHash": "0x57490fa34ad371ff0fce1014b95f79b01768f05764fbaaf714b93192d52d7136",
          "blockNumber": "0xb1e6a9",
          "transactionHash": "0x8621b83fae141f8ef8b3838792942639e2b3844dc039781d47f82d879965bb26",
          "transactionIndex": "0x1",
          "logIndex": "0x0",
          "removed": false
        }
      ],
      "logsBloom": "0x00000000000000000000000000000000000000000000000000000000000000000000000000000000000000000000000000000000000000000000000000000000000000000000000000000000000000000000000000000000000000000000000000000000000000000000001001000000000000000000040000000000000000000000000000000000000000000000000000000000000000000000000000000000000000000800000000000000040000000000000000000000000000000000000000000000000000000000000000400000000000000000000000000000000000000000000000000000000000000000000000000000000000000000000000000000",
      "type": "0x2",
      "transactionHash": "0x8621b83fae141f8ef8b3838792942639e2b3844dc039781d47f82d879965bb26",
      "transactionIndex": "0x1",
      "blockHash": "0x57490fa34ad371ff0fce1014b95f79b01768f05764fbaaf714b93192d52d7136",
      "blockNumber": "0xb1e6a9",
      "gasUsed": "0xcff4",
      "effectiveGasPrice": "0xfb",
      "blobGasUsed": "0x0",
      "from": "0xbd51f3433a10128bcf9d8061f3eee39b2bce07b7",
      "to": "0x39cb184af026c05b6bcb507aa8365b2dbb377dcd",
      "contractAddress": null,
      "l1BaseFeeScalar": "0x558",
      "l1BlobBaseFee": "0x78ba",
      "l1BlobBaseFeeScalar": "0xc5fc5",
      "l1Fee": "0xbdba41",
      "l1GasPrice": "0x2ceadb",
      "l1GasUsed": "0x8ae"
    },
    {
      "status": "0x1",
      "cumulativeGasUsed": "0x3200e",
      "logs": [
        {
          "address": "0x39cb184af026c05b6bcb507aa8365b2dbb377dcd",
          "topics": [
            "0x50243476cf032fae798fcf62289573b1a73fe13390986e4368c6cd4a21944c36"
          ],
          "data": "0x0000000000000000000000000000000000000000000000000000000000000040000000000000000000000000bd51f3433a10128bcf9d8061f3eee39b2bce07b7000000000000000000000000000000000000000000000000000000000000000570726f7031000000000000000000000000000000000000000000000000000000",
          "blockHash": "0x48b9fc3f2f40718e87a5f4d03176ef2109c583ef607b67a0629546002c6b4ade",
          "blockNumber": "0xb1e6ab",
          "transactionHash": "0xc1c2dfce9e4dc07b3d40a6cb09af781350028683b27d12204039da9095c2b9bb",
          "transactionIndex": "0x1",
          "logIndex": "0x0",
          "removed": false
        }
      ],
      "logsBloom": "0x00000000000000000000000000000000000000000000000000000000000000000000000000000000000000000000000000000000000000000000000000000000000000000000000000000000000000000000000000000000000000000000000000000000000000000000001000000000000000000000000000000000000000000000000000000000000000000000000000000000000000000000000000000000000000000800000000000000040000000000010000000000000000000000000000000000000000000000000000000080000000000000000000000000000000000000000020000000000000000000000000000000000000000000000000000000",
      "type": "0x2",
      "transactionHash": "0xc1c2dfce9e4dc07b3d40a6cb09af781350028683b27d12204039da9095c2b9bb",
      "transactionIndex": "0x1",
      "blockHash": "0x48b9fc3f2f40718e87a5f4d03176ef2109c583ef607b67a0629546002c6b4ade",
      "blockNumber": "0xb1e6ab",
      "gasUsed": "0x274db",
      "effectiveGasPrice": "0xfb",
      "blobGasUsed": "0x0",
      "from": "0xbd51f3433a10128bcf9d8061f3eee39b2bce07b7",
      "to": "0x39cb184af026c05b6bcb507aa8365b2dbb377dcd",
      "contractAddress": null,
      "l1BaseFeeScalar": "0x558",
      "l1BlobBaseFee": "0x78ba",
      "l1BlobBaseFeeScalar": "0xc5fc5",
      "l1Fee": "0x892e61",
      "l1GasPrice": "0x2ceadb",
      "l1GasUsed": "0x647"
    }
  ],
  "libraries": [],
  "pending": [],
  "returns": {},
  "timestamp": 1743865275,
  "chain": 4801,
  "commit": "f55a936"
}