{
  "transactions": [
    {
      "hash": "0x9ff941809ffcc551e15913c30e7d75b6aa1c65bd927eb91ceac6afcaa2b93660",
      "transactionType": "CALL",
      "contractName": null,
      "contractAddress": "0xcea98d137e42bbfae8192efb4eecaeb0204ba158",
      "function": "mint(address,uint256)",
      "arguments": [
        "0xBD51F3433A10128BCF9D8061f3EEe39B2bCe07b7",
        "1000000000000000000000000"
      ],
      "transaction": {
        "from": "0x851a7ba59ee589560921ebb47d464e15b8afe901",
        "to": "0xcea98d137e42bbfae8192efb4eecaeb0204ba158",
        "gas": "0xd819",
        "value": "0x0",
        "input": "0x40c10f19000000000000000000000000bd51f3433a10128bcf9d8061f3eee39b2bce07b700000000000000000000000000000000000000000000d3c21bcecceda1000000",
        "nonce": "0x19",
        "chainId": "0x12c1"
      },
      "additionalContracts": [],
      "isFixedGasLimit": false
    },
    {
      "hash": "0x73a0c724dd867111b5547250dbc63123cb96e84be959b163b0b70ea4b4e8c22d",
      "transactionType": "CALL",
      "contractName": null,
      "contractAddress": "0xcea98d137e42bbfae8192efb4eecaeb0204ba158",
      "function": "mint(address,uint256)",
      "arguments": [
        "0xB78686a2f9cb282E72795a0c78087eD69BDB0759",
        "1000000000000000000000000"
      ],
      "transaction": {
        "from": "0x851a7ba59ee589560921ebb47d464e15b8afe901",
        "to": "0xcea98d137e42bbfae8192efb4eecaeb0204ba158",
        "gas": "0xd819",
        "value": "0x0",
        "input": "0x40c10f19000000000000000000000000b78686a2f9cb282e72795a0c78087ed69bdb075900000000000000000000000000000000000000000000d3c21bcecceda1000000",
        "nonce": "0x1a",
        "chainId": "0x12c1"
      },
      "additionalContracts": [],
      "isFixedGasLimit": false
    },
    {
      "hash": "0x278c55aea5dc392a8084c762d6775abe715b41cdadc90157013f9bc2c96cf999",
      "transactionType": "CALL",
      "contractName": null,
      "contractAddress": "0xcea98d137e42bbfae8192efb4eecaeb0204ba158",
      "function": "mint(address,uint256)",
      "arguments": [
        "0x64Adb4F077ca5dE063e0105c5b9d905D48B547a7",
        "1000000000000000000000000"
      ],
      "transaction": {
        "from": "0x851a7ba59ee589560921ebb47d464e15b8afe901",
        "to": "0xcea98d137e42bbfae8192efb4eecaeb0204ba158",
        "gas": "0x1345d",
        "value": "0x0",
        "input": "0x40c10f1900000000000000000000000064adb4f077ca5de063e0105c5b9d905d48b547a700000000000000000000000000000000000000000000d3c21bcecceda1000000",
        "nonce": "0x1b",
        "chainId": "0x12c1"
      },
      "additionalContracts": [],
      "isFixedGasLimit": false
    },
    {
      "hash": "0xfdeab19f02df3a719e56ff301edeb1b39db8edc727b374ec85eb77571eb1e41b",
      "transactionType": "CALL",
      "contractName": null,
      "contractAddress": "0xbd51f3433a10128bcf9d8061f3eee39b2bce07b7",
      "function": null,
      "arguments": null,
      "transaction": {
        "from": "0x851a7ba59ee589560921ebb47d464e15b8afe901",
        "to": "0xbd51f3433a10128bcf9d8061f3eee39b2bce07b7",
        "gas": "0x714d",
        "value": "0x5af3107a4000",
        "input": "0x",
        "nonce": "0x1c",
        "chainId": "0x12c1"
      },
      "additionalContracts": [],
      "isFixedGasLimit": false
    },
    {
      "hash": "0x77aa58b9e9aeb93f01a4d53a354d66c68132bcd070ab90e821d7a2b269d42a9e",
      "transactionType": "CALL",
      "contractName": null,
      "contractAddress": "0xb78686a2f9cb282e72795a0c78087ed69bdb0759",
      "function": null,
      "arguments": null,
      "transaction": {
        "from": "0x851a7ba59ee589560921ebb47d464e15b8afe901",
        "to": "0xb78686a2f9cb282e72795a0c78087ed69bdb0759",
        "gas": "0x714d",
        "value": "0x5af3107a4000",
        "input": "0x",
        "nonce": "0x1d",
        "chainId": "0x12c1"
      },
      "additionalContracts": [],
      "isFixedGasLimit": false
    },
    {
      "hash": "0xb305ee00a3ea2acb92cfb1d244d6c1259f2cf18e4f35394b6794305bec91eaf8",
      "transactionType": "CALL",
      "contractName": null,
      "contractAddress": "0x64adb4f077ca5de063e0105c5b9d905d48b547a7",
      "function": null,
      "arguments": null,
      "transaction": {
        "from": "0x851a7ba59ee589560921ebb47d464e15b8afe901",
        "to": "0x64adb4f077ca5de063e0105c5b9d905d48b547a7",
        "gas": "0x714d",
        "value": "0x5af3107a4000",
        "input": "0x",
        "nonce": "0x1e",
        "chainId": "0x12c1"
      },
      "additionalContracts": [],
      "isFixedGasLimit": false
    },
    {
      "hash": "0x4d247044baf02d46ba11cd312d6beba53c7bf65eaa48edafbba0d0b715f6aa1e",
      "transactionType": "CALL",
      "contractName": null,
      "contractAddress": "0xcea98d137e42bbfae8192efb4eecaeb0204ba158",
      "function": "approve(address,uint256)",
      "arguments": [
        "0x39CB184af026c05B6BcB507aA8365B2dbb377dcD",
        "1000000000000000000000"
      ],
      "transaction": {
        "from": "0xbd51f3433a10128bcf9d8061f3eee39b2bce07b7",
        "to": "0xcea98d137e42bbfae8192efb4eecaeb0204ba158",
        "gas": "0x1157a",
        "value": "0x0",
        "input": "0x095ea7b300000000000000000000000039cb184af026c05b6bcb507aa8365b2dbb377dcd00000000000000000000000000000000000000000000003635c9adc5dea00000",
        "nonce": "0x0",
        "chainId": "0x12c1"
      },
      "additionalContracts": [],
      "isFixedGasLimit": false
    },
    {
      "hash": "0x38555d845816ab264bb732236d619dbd5919ef0366b503bedeedcf22eafd23de",
      "transactionType": "CALL",
      "contractName": null,
      "contractAddress": "0x39cb184af026c05b6bcb507aa8365b2dbb377dcd",
      "function": "stake(uint256)",
      "arguments": [
        "300000000000000000000"
      ],
      "transaction": {
        "from": "0xbd51f3433a10128bcf9d8061f3eee39b2bce07b7",
        "to": "0x39cb184af026c05b6bcb507aa8365b2dbb377dcd",
        "gas": "0x1bc04",
        "value": "0x0",
        "input": "0xa694fc3a00000000000000000000000000000000000000000000001043561a8829300000",
        "nonce": "0x1",
        "chainId": "0x12c1"
      },
      "additionalContracts": [],
      "isFixedGasLimit": false
    },
    {
      "hash": "0xe8cefd9591528362a78f6b8ad1c36a0b7cdeaee80ccadbb41bf248dd979b8351",
      "transactionType": "CALL",
      "contractName": null,
      "contractAddress": "0xcea98d137e42bbfae8192efb4eecaeb0204ba158",
      "function": "approve(address,uint256)",
      "arguments": [
        "0x39CB184af026c05B6BcB507aA8365B2dbb377dcD",
        "1000000000000000000000"
      ],
      "transaction": {
        "from": "0xb78686a2f9cb282e72795a0c78087ed69bdb0759",
        "to": "0xcea98d137e42bbfae8192efb4eecaeb0204ba158",
        "gas": "0x1157a",
        "value": "0x0",
        "input": "0x095ea7b300000000000000000000000039cb184af026c05b6bcb507aa8365b2dbb377dcd00000000000000000000000000000000000000000000003635c9adc5dea00000",
        "nonce": "0x0",
        "chainId": "0x12c1"
      },
      "additionalContracts": [],
      "isFixedGasLimit": false
    },
    {
      "hash": "0x6ffd9b6ac94b0b4e15536a4eb5f89e00697f60fe416811341517b8ac7510be3e",
      "transactionType": "CALL",
      "contractName": null,
      "contractAddress": "0x39cb184af026c05b6bcb507aa8365b2dbb377dcd",
      "function": "stake(uint256)",
      "arguments": [
        "300000000000000000000"
      ],
      "transaction": {
        "from": "0xb78686a2f9cb282e72795a0c78087ed69bdb0759",
        "to": "0x39cb184af026c05b6bcb507aa8365b2dbb377dcd",
        "gas": "0x1bc04",
        "value": "0x0",
        "input": "0xa694fc3a00000000000000000000000000000000000000000000001043561a8829300000",
        "nonce": "0x1",
        "chainId": "0x12c1"
      },
      "additionalContracts": [],
      "isFixedGasLimit": false
    },
    {
      "hash": "0x07492d572c9bfcd22a4442d6995128df086ce6004929b981b842522fa1c3f89e",
      "transactionType": "CALL",
      "contractName": null,
      "contractAddress": "0xcea98d137e42bbfae8192efb4eecaeb0204ba158",
      "function": "approve(address,uint256)",
      "arguments": [
        "0x39CB184af026c05B6BcB507aA8365B2dbb377dcD",
        "1000000000000000000000"
      ],
      "transaction": {
        "from": "0x64adb4f077ca5de063e0105c5b9d905d48b547a7",
        "to": "0xcea98d137e42bbfae8192efb4eecaeb0204ba158",
        "gas": "0x1157a",
        "value": "0x0",
        "input": "0x095ea7b300000000000000000000000039cb184af026c05b6bcb507aa8365b2dbb377dcd00000000000000000000000000000000000000000000003635c9adc5dea00000",
        "nonce": "0x0",
        "chainId": "0x12c1"
      },
      "additionalContracts": [],
      "isFixedGasLimit": false
    },
    {
      "hash": "0x2419d9384e70215760aa3804fb87e914ee55fe8d5880f64723133d9fc6d1dce3",
      "transactionType": "CALL",
      "contractName": null,
      "contractAddress": "0x39cb184af026c05b6bcb507aa8365b2dbb377dcd",
      "function": "stake(uint256)",
      "arguments": [
        "300000000000000000000"
      ],
      "transaction": {
        "from": "0x64adb4f077ca5de063e0105c5b9d905d48b547a7",
        "to": "0x39cb184af026c05b6bcb507aa8365b2dbb377dcd",
        "gas": "0x1bc04",
        "value": "0x0",
        "input": "0xa694fc3a00000000000000000000000000000000000000000000001043561a8829300000",
        "nonce": "0x1",
        "chainId": "0x12c1"
      },
      "additionalContracts": [],
      "isFixedGasLimit": false
    },
    {
      "hash": "0x332c7a12784be7e9137b3819444e7dbaa71e765c2bedce7e41255f481d7a3d1f",
      "transactionType": "CALL",
      "contractName": null,
      "contractAddress": "0x39cb184af026c05b6bcb507aa8365b2dbb377dcd",
      "function": "createProposal(string,address,bool,string,uint256)",
      "arguments": [
        "prop1",
        "0x6B0D6DD57981D90096D89c98548Feb23F9490890",
        "true",
        "suspicious address",
        "1743864360"
      ],
      "transaction": {
        "from": "0x851a7ba59ee589560921ebb47d464e15b8afe901",
        "to": "0x39cb184af026c05b6bcb507aa8365b2dbb377dcd",
        "gas": "0x2ae80",
        "value": "0x0",
        "input": "0x91e832bb00000000000000000000000000000000000000000000000000000000000000a00000000000000000000000006b0d6dd57981d90096d89c98548feb23f9490890000000000000000000000000000000000000000000000000000000000000000100000000000000000000000000000000000000000000000000000000000000e00000000000000000000000000000000000000000000000000000000067f14228000000000000000000000000000000000000000000000000000000000000000570726f70310000000000000000000000000000000000000000000000000000000000000000000000000000000000000000000000000000000000000000000012737573706963696f757320616464726573730000000000000000000000000000",
        "nonce": "0x1f",
        "chainId": "0x12c1"
      },
      "additionalContracts": [],
      "isFixedGasLimit": false
    },
    {
      "hash": "0x9ecdf4392c303199568da87b7a1951cfe0cab678dbba2baa4b47da9a2cd9eaae",
      "transactionType": "CALL",
      "contractName": null,
      "contractAddress": "0x39cb184af026c05b6bcb507aa8365b2dbb377dcd",
      "function": "commitVote(string,bytes32)",
      "arguments": [
        "prop1",
        "0x90638151823553fdc18a2d09a203fafedce08bb012a2f97ea897aba010828b29"
      ],
      "transaction": {
        "from": "0xb78686a2f9cb282e72795a0c78087ed69bdb0759",
        "to": "0x39cb184af026c05b6bcb507aa8365b2dbb377dcd",
        "gas": "0x397b3",
        "value": "0x0",
        "input": "0x56d8f6fe000000000000000000000000000000000000000000000000000000000000004090638151823553fdc18a2d09a203fafedce08bb012a2f97ea897aba010828b29000000000000000000000000000000000000000000000000000000000000000570726f7031000000000000000000000000000000000000000000000000000000",
        "nonce": "0x2",
        "chainId": "0x12c1"
      },
      "additionalContracts": [],
      "isFixedGasLimit": false
    },
    {
      "hash": null,
      "transactionType": "CALL",
      "contractName": null,
      "contractAddress": "0x39cb184af026c05b6bcb507aa8365b2dbb377dcd",
      "function": "commitVote(string,bytes32)",
      "arguments": [
        "prop1",
        "0xf22eb50448c0ad7b424e3a928a9977d42fee3bca4e873977c53ec7c2b729be11"
      ],
      "transaction": {
        "from": "0x64adb4f077ca5de063e0105c5b9d905d48b547a7",
        "to": "0x39cb184af026c05b6bcb507aa8365b2dbb377dcd",
        "gas": "0x2d451",
        "value": "0x0",
        "input": "0x56d8f6fe0000000000000000000000000000000000000000000000000000000000000040f22eb50448c0ad7b424e3a928a9977d42fee3bca4e873977c53ec7c2b729be11000000000000000000000000000000000000000000000000000000000000000570726f7031000000000000000000000000000000000000000000000000000000",
        "nonce": "0x2",
        "chainId": "0x12c1"
      },
      "additionalContracts": [],
      "isFixedGasLimit": false
    },
    {
      "hash": null,
      "transactionType": "CALL",
      "contractName": null,
      "contractAddress": "0x39cb184af026c05b6bcb507aa8365b2dbb377dcd",
      "function": "commitVote(string,bytes32)",
      "arguments": [
        "prop1",
        "0xb2319d1a1d4ebe3b634c9c95f96ff9f616f3b9429565658ff2bfc2eb516f94f1"
      ],
      "transaction": {
        "from": "0xbd51f3433a10128bcf9d8061f3eee39b2bce07b7",
        "to": "0x39cb184af026c05b6bcb507aa8365b2dbb377dcd",
        "gas": "0x2d451",
        "value": "0x0",
        "input": "0x56d8f6fe0000000000000000000000000000000000000000000000000000000000000040b2319d1a1d4ebe3b634c9c95f96ff9f616f3b9429565658ff2bfc2eb516f94f1000000000000000000000000000000000000000000000000000000000000000570726f7031000000000000000000000000000000000000000000000000000000",
        "nonce": "0x2",
        "chainId": "0x12c1"
      },
      "additionalContracts": [],
      "isFixedGasLimit": false
    }
  ],
  "receipts": [
    {
      "status": "0x1",
      "cumulativeGasUsed": "0x1686b",
      "logs": [
        {
          "address": "0xcea98d137e42bbfae8192efb4eecaeb0204ba158",
          "topics": [
            "0xddf252ad1be2c89b69c2b068fc378daa952ba7f163c4a11628f55a4df523b3ef",
            "0x0000000000000000000000000000000000000000000000000000000000000000",
            "0x000000000000000000000000bd51f3433a10128bcf9d8061f3eee39b2bce07b7"
          ],
          "data": "0x00000000000000000000000000000000000000000000d3c21bcecceda1000000",
          "blockHash": "0x6451db1dee3638bd6e12d7aa7c644489345676c6d3c570b405dc232cd54883ed",
          "blockNumber": "0xb1e4e5",
          "transactionHash": "0x9ff941809ffcc551e15913c30e7d75b6aa1c65bd927eb91ceac6afcaa2b93660",
          "transactionIndex": "0x1",
          "logIndex": "0x0",
          "removed": false
        }
      ],
      "logsBloom": "0x00000000000000000000000000000000000000000000000000000000000000000000000000000000000000000000000000000000000000000000000000000000000000000000000000000008000000000000000000000000000000000000000000000000020000000000000000000800000000000000000000000010000000000008000000000000010000000000000000000000000000000000000000000000000000000000000000000000000000000000000000000000000000000000000000000002000000000000004000000000000000000000000000000000000020000000000000000000000000000000100000002000001000000000000000000000",
      "type": "0x2",
      "transactionHash": "0x9ff941809ffcc551e15913c30e7d75b6aa1c65bd927eb91ceac6afcaa2b93660",
      "transactionIndex": "0x1",
      "blockHash": "0x6451db1dee3638bd6e12d7aa7c644489345676c6d3c570b405dc232cd54883ed",
      "blockNumber": "0xb1e4e5",
      "gasUsed": "0x9c74",
      "effectiveGasPrice": "0xfb",
      "blobGasUsed": "0x0",
      "from": "0x851a7ba59ee589560921ebb47d464e15b8afe901",
      "to": "0xcea98d137e42bbfae8192efb4eecaeb0204ba158",
      "contractAddress": null,
      "l1BaseFeeScalar": "0x558",
      "l1BlobBaseFee": "0x4f6b",
      "l1BlobBaseFeeScalar": "0xc5fc5",
      "l1Fee": "0x13e873d",
      "l1GasPrice": "0x860857",
      "l1GasUsed": "0x640"
    },
    {
      "status": "0x1",
      "cumulativeGasUsed": "0x147a7",
      "logs": [
        {
          "address": "0xcea98d137e42bbfae8192efb4eecaeb0204ba158",
          "topics": [
            "0xddf252ad1be2c89b69c2b068fc378daa952ba7f163c4a11628f55a4df523b3ef",
            "0x0000000000000000000000000000000000000000000000000000000000000000",
            "0x000000000000000000000000b78686a2f9cb282e72795a0c78087ed69bdb0759"
          ],
          "data": "0x00000000000000000000000000000000000000000000d3c21bcecceda1000000",
          "blockHash": "0x7e5733533954939400b5373771eed09d8d732d655bbb9665b9bb6aba03110882",
          "blockNumber": "0xb1e4e7",
          "transactionHash": "0x73a0c724dd867111b5547250dbc63123cb96e84be959b163b0b70ea4b4e8c22d",
          "transactionIndex": "0x1",
          "logIndex": "0x0",
          "removed": false
        }
      ],
      "logsBloom": "0x00000000000000000000000000000000000000000000000000000000000000000000000000000000000000000000000000000000000000000000000000000000000000000000000000000008000000000000000000000000000000000000000000000000020000000000000000000800000000000000000000000010000000000000000000000000010000000000000000000000000000000000000102000000010000000000000000000000000000000000000000000000000000000000000000000002000000000000004000000000000000000000000000000000000020000000000000000000000000000000100000000000000000000000000000000000",
      "type": "0x2",
      "transactionHash": "0x73a0c724dd867111b5547250dbc63123cb96e84be959b163b0b70ea4b4e8c22d",
      "transactionIndex": "0x1",
      "blockHash": "0x7e5733533954939400b5373771eed09d8d732d655bbb9665b9bb6aba03110882",
      "blockNumber": "0xb1e4e7",
      "gasUsed": "0x9c74",
      "effectiveGasPrice": "0xfb",
      "blobGasUsed": "0x0",
      "from": "0x851a7ba59ee589560921ebb47d464e15b8afe901",
      "to": "0xcea98d137e42bbfae8192efb4eecaeb0204ba158",
      "contractAddress": null,
      "l1BaseFeeScalar": "0x558",
      "l1BlobBaseFee": "0x4f6b",
      "l1BlobBaseFeeScalar": "0xc5fc5",
      "l1Fee": "0x13e873d",
      "l1GasPrice": "0x860857",
      "l1GasUsed": "0x640"
    },
    {
      "status": "0x1",
      "cumulativeGasUsed": "0x18a73",
      "logs": [
        {
          "address": "0xcea98d137e42bbfae8192efb4eecaeb0204ba158",
          "topics": [
            "0xddf252ad1be2c89b69c2b068fc378daa952ba7f163c4a11628f55a4df523b3ef",
            "0x0000000000000000000000000000000000000000000000000000000000000000",
            "0x00000000000000000000000064adb4f077ca5de063e0105c5b9d905d48b547a7"
          ],
          "data": "0x00000000000000000000000000000000000000000000d3c21bcecceda1000000",
          "blockHash": "0x9dd944ee094fbcae0ccaafc3c434c41905023d8b67f1cfa593a612f85a143d3f",
          "blockNumber": "0xb1e4e9",
          "transactionHash": "0x278c55aea5dc392a8084c762d6775abe715b41cdadc90157013f9bc2c96cf999",
          "transactionIndex": "0x1",
          "logIndex": "0x0",
          "removed": false
        }
      ],
      "logsBloom": "0x00000000000000000000000000000000000000000000000000000000000000000000000000000000000000000000000000000000000000000000200000000000000000000000000000000008000000000000000000000000000000000000000000000000020000000000000000000800000000000800000000000010000000000000000000000000010200000000000000000000000000000000000000000000000000000000000000000000000000000000000000000000000000000000000000000002000000000000004000000000000000000000000000000000000020000000000000000000000000000000100000000000000000000000000000000000",
      "type": "0x2",
      "transactionHash": "0x278c55aea5dc392a8084c762d6775abe715b41cdadc90157013f9bc2c96cf999",
      "transactionIndex": "0x1",
      "blockHash": "0x9dd944ee094fbcae0ccaafc3c434c41905023d8b67f1cfa593a612f85a143d3f",
      "blockNumber": "0xb1e4e9",
      "gasUsed": "0xdf40",
      "effectiveGasPrice": "0xfb",
      "blobGasUsed": "0x0",
      "from": "0x851a7ba59ee589560921ebb47d464e15b8afe901",
      "to": "0xcea98d137e42bbfae8192efb4eecaeb0204ba158",
      "contractAddress": null,
      "l1BaseFeeScalar": "0x558",
      "l1BlobBaseFee": "0x4f6b",
      "l1BlobBaseFeeScalar": "0xc5fc5",
      "l1Fee": "0x13e873d",
      "l1GasPrice": "0x860857",
      "l1GasUsed": "0x640"
    },
    {
      "status": "0x1",
      "cumulativeGasUsed": "0x128ef",
      "logs": [],
      "logsBloom": "0x00000000000000000000000000000000000000000000000000000000000000000000000000000000000000000000000000000000000000000000000000000000000000000000000000000000000000000000000000000000000000000000000000000000000000000000000000000000000000000000000000000000000000000000000000000000000000000000000000000000000000000000000000000000000000000000000000000000000000000000000000000000000000000000000000000000000000000000000000000000000000000000000000000000000000000000000000000000000000000000000000000000000000000000000000000000",
      "type": "0x2",
      "transactionHash": "0xfdeab19f02df3a719e56ff301edeb1b39db8edc727b374ec85eb77571eb1e41b",
      "transactionIndex": "0x1",
      "blockHash": "0xa1160d67a3fee10564dd354f32c3a20bbe3a8dd3ba2965479e04cf4489a8a522",
      "blockNumber": "0xb1e4eb",
      "gasUsed": "0x5208",
      "effectiveGasPrice": "0xfb",
      "blobGasUsed": "0x0",
      "from": "0x851a7ba59ee589560921ebb47d464e15b8afe901",
      "to": "0xbd51f3433a10128bcf9d8061f3eee39b2bce07b7",
      "contractAddress": null,
      "l1BaseFeeScalar": "0x558",
      "l1BlobBaseFee": "0x53b0",
      "l1BlobBaseFeeScalar": "0xc5fc5",
      "l1Fee": "0x14cdd13",
      "l1GasPrice": "0x8bf6cc",
      "l1GasUsed": "0x640"
    },
    {
      "status": "0x1",
      "cumulativeGasUsed": "0xfd3b",
      "logs": [],
      "logsBloom": "0x00000000000000000000000000000000000000000000000000000000000000000000000000000000000000000000000000000000000000000000000000000000000000000000000000000000000000000000000000000000000000000000000000000000000000000000000000000000000000000000000000000000000000000000000000000000000000000000000000000000000000000000000000000000000000000000000000000000000000000000000000000000000000000000000000000000000000000000000000000000000000000000000000000000000000000000000000000000000000000000000000000000000000000000000000000000",
      "type": "0x2",
      "transactionHash": "0x77aa58b9e9aeb93f01a4d53a354d66c68132bcd070ab90e821d7a2b269d42a9e",
      "transactionIndex": "0x1",
      "blockHash": "0x1cfb0d2fe3fe65c4f6fb650e8529a7d781704e644d38d506fb989b827d3f8eea",
      "blockNumber": "0xb1e4ed",
      "gasUsed": "0x5208",
      "effectiveGasPrice": "0xfb",
      "blobGasUsed": "0x0",
      "from": "0x851a7ba59ee589560921ebb47d464e15b8afe901",
      "to": "0xb78686a2f9cb282e72795a0c78087ed69bdb0759",
      "contractAddress": null,
      "l1BaseFeeScalar": "0x558",
      "l1BlobBaseFee": "0x53b0",
      "l1BlobBaseFeeScalar": "0xc5fc5",
      "l1Fee": "0x14cdd13",
      "l1GasPrice": "0x8bf6cc",
      "l1GasUsed": "0x640"
    },
    {
      "status": "0x1",
      "cumulativeGasUsed": "0xfd3b",
      "logs": [],
      "logsBloom": "0x00000000000000000000000000000000000000000000000000000000000000000000000000000000000000000000000000000000000000000000000000000000000000000000000000000000000000000000000000000000000000000000000000000000000000000000000000000000000000000000000000000000000000000000000000000000000000000000000000000000000000000000000000000000000000000000000000000000000000000000000000000000000000000000000000000000000000000000000000000000000000000000000000000000000000000000000000000000000000000000000000000000000000000000000000000000",
      "type": "0x2",
      "transactionHash": "0xb305ee00a3ea2acb92cfb1d244d6c1259f2cf18e4f35394b6794305bec91eaf8",
      "transactionIndex": "0x1",
      "blockHash": "0x8cc8dc6053052b2750e986d7ee31a8d1ff93987f5650a4882956bb462385382c",
      "blockNumber": "0xb1e4ef",
      "gasUsed": "0x5208",
      "effectiveGasPrice": "0xfb",
      "blobGasUsed": "0x0",
      "from": "0x851a7ba59ee589560921ebb47d464e15b8afe901",
      "to": "0x64adb4f077ca5de063e0105c5b9d905d48b547a7",
      "contractAddress": null,
      "l1BaseFeeScalar": "0x558",
      "l1BlobBaseFee": "0x53b0",
      "l1BlobBaseFeeScalar": "0xc5fc5",
      "l1Fee": "0x14cdd13",
      "l1GasPrice": "0x8bf6cc",
      "l1GasUsed": "0x640"
    },
    {
      "status": "0x1",
      "cumulativeGasUsed": "0x189a6",
      "logs": [
        {
          "address": "0xcea98d137e42bbfae8192efb4eecaeb0204ba158",
          "topics": [
            "0x8c5be1e5ebec7d5bd14f71427d1e84f3dd0314c0f7b2291e5b200ac8c7c3b925",
            "0x000000000000000000000000bd51f3433a10128bcf9d8061f3eee39b2bce07b7",
            "0x00000000000000000000000039cb184af026c05b6bcb507aa8365b2dbb377dcd"
          ],
          "data": "0x00000000000000000000000000000000000000000000003635c9adc5dea00000",
          "blockHash": "0x5e5f5ea532d5e01cf3f870c44b846944b2e93e8827f37bd155c6b82f20ac140b",
          "blockNumber": "0xb1e4f1",
          "transactionHash": "0x4d247044baf02d46ba11cd312d6beba53c7bf65eaa48edafbba0d0b715f6aa1e",
          "transactionIndex": "0x1",
          "logIndex": "0x0",
          "removed": false
        }
      ],
      "logsBloom": "0x00000000000000000000000000000000000000000000000000000000000000000000000000000000000000000000000000000000000000000000000000200000000000000000000000000000000000000000000000000000000000000000000000000000040000000000000000000000000000000000000000000000000000000008000000000000010000000000000000000000000000000000000000000000020000000000000000000000000000000000000100000000000000000000000000000000000000000000004000000000000000000000000000000000000000000010800000000000000000000000100000002000001000000000000000000000",
      "type": "0x2",
      "transactionHash": "0x4d247044baf02d46ba11cd312d6beba53c7bf65eaa48edafbba0d0b715f6aa1e",
      "transactionIndex": "0x1",
      "blockHash": "0x5e5f5ea532d5e01cf3f870c44b846944b2e93e8827f37bd155c6b82f20ac140b",
      "blockNumber": "0xb1e4f1",
      "gasUsed": "0xbdbb",
      "effectiveGasPrice": "0xfb",
      "blobGasUsed": "0x0",
      "from": "0xbd51f3433a10128bcf9d8061f3eee39b2bce07b7",
      "to": "0xcea98d137e42bbfae8192efb4eecaeb0204ba158",
      "contractAddress": null,
      "l1BaseFeeScalar": "0x558",
      "l1BlobBaseFee": "0x53b0",
      "l1BlobBaseFeeScalar": "0xc5fc5",
      "l1Fee": "0x1413236",
      "l1GasPrice": "0x86a22f",
      "l1GasUsed": "0x640"
    },
    {
      "status": "0x1",
      "cumulativeGasUsed": "0x1dac1",
      "logs": [
        {
          "address": "0xcea98d137e42bbfae8192efb4eecaeb0204ba158",
          "topics": [
            "0xddf252ad1be2c89b69c2b068fc378daa952ba7f163c4a11628f55a4df523b3ef",
            "0x000000000000000000000000bd51f3433a10128bcf9d8061f3eee39b2bce07b7",
            "0x00000000000000000000000039cb184af026c05b6bcb507aa8365b2dbb377dcd"
          ],
          "data": "0x00000000000000000000000000000000000000000000001043561a8829300000",
          "blockHash": "0xd6057a820d4dbdfe786c67a73dc360dfe011ff5be68907c53c08dc368694391a",
          "blockNumber": "0xb1e4f3",
          "transactionHash": "0x38555d845816ab264bb732236d619dbd5919ef0366b503bedeedcf22eafd23de",
          "transactionIndex": "0x1",
          "logIndex": "0x0",
          "removed": false
        },
        {
          "address": "0x39cb184af026c05b6bcb507aa8365b2dbb377dcd",
          "topics": [
            "0x9e71bc8eea02a63969f509818f2dafb9254532904319f9dbda79b67bd34a5f3d",
            "0x000000000000000000000000bd51f3433a10128bcf9d8061f3eee39b2bce07b7"
          ],
          "data": "0x00000000000000000000000000000000000000000000001043561a8829300000",
          "blockHash": "0xd6057a820d4dbdfe786c67a73dc360dfe011ff5be68907c53c08dc368694391a",
          "blockNumber": "0xb1e4f3",
          "transactionHash": "0x38555d845816ab264bb732236d619dbd5919ef0366b503bedeedcf22eafd23de",
          "transactionIndex": "0x1",
          "logIndex": "0x1",
          "removed": false
        }
      ],
      "logsBloom": "0x00000000000000000000000000000000000000000800000000000000000000000000000000000000000000000000000000000000000000000000000000000000000000000000000000000008000000000000000000000000000000000000000040000000040000000008001000000000000000000000000000000010000000000008000000000000010000000000000000000000000000000000000000000000000000000800000000000000040000000000000100000000000000000000000000000002000000000000004000000000000000000000000000000000000000000000800000000000000000000000100000002000001000000000000000000000",
      "type": "0x2",
      "transactionHash": "0x38555d845816ab264bb732236d619dbd5919ef0366b503bedeedcf22eafd23de",
      "transactionIndex": "0x1",
      "blockHash": "0xd6057a820d4dbdfe786c67a73dc360dfe011ff5be68907c53c08dc368694391a",
      "blockNumber": "0xb1e4f3",
      "gasUsed": "0x12f9a",
      "effectiveGasPrice": "0xfb",
      "blobGasUsed": "0x0",
      "from": "0xbd51f3433a10128bcf9d8061f3eee39b2bce07b7",
      "to": "0x39cb184af026c05b6bcb507aa8365b2dbb377dcd",
      "contractAddress": null,
      "l1BaseFeeScalar": "0x558",
      "l1BlobBaseFee": "0x53b0",
      "l1BlobBaseFeeScalar": "0xc5fc5",
      "l1Fee": "0x1413236",
      "l1GasPrice": "0x86a22f",
      "l1GasUsed": "0x640"
    },
    {
      "status": "0x1",
      "cumulativeGasUsed": "0x168e2",
      "logs": [
        {
          "address": "0xcea98d137e42bbfae8192efb4eecaeb0204ba158",
          "topics": [
            "0x8c5be1e5ebec7d5bd14f71427d1e84f3dd0314c0f7b2291e5b200ac8c7c3b925",
            "0x000000000000000000000000b78686a2f9cb282e72795a0c78087ed69bdb0759",
            "0x00000000000000000000000039cb184af026c05b6bcb507aa8365b2dbb377dcd"
          ],
          "data": "0x00000000000000000000000000000000000000000000003635c9adc5dea00000",
          "blockHash": "0xb0d5f6e9918ed3f2f837f989e0178e4ea2ffeef02400e61a1e69029b4b4f3446",
          "blockNumber": "0xb1e4f5",
          "transactionHash": "0xe8cefd9591528362a78f6b8ad1c36a0b7cdeaee80ccadbb41bf248dd979b8351",
          "transactionIndex": "0x1",
          "logIndex": "0x0",
          "removed": false
        }
      ],
      "logsBloom": "0x00000000000000000000000000000000000000000000000000000000000000000000000000000000000000000000000000000000000000000000000000200000000000000000000000000000000000000000000000000000000000000000000000000000040000000000000000000000000000000000000000000000000000000000000000000000010000000000000000000000000000000000000102000000030000000000000000000000000000000000000100000000000000000000000000000000000000000000004000000000000000000000000000000000000000000010800000000000000000000000100000000000000000000000000000000000",
      "type": "0x2",
      "transactionHash": "0xe8cefd9591528362a78f6b8ad1c36a0b7cdeaee80ccadbb41bf248dd979b8351",
      "transactionIndex": "0x1",
      "blockHash": "0xb0d5f6e9918ed3f2f837f989e0178e4ea2ffeef02400e61a1e69029b4b4f3446",
      "blockNumber": "0xb1e4f5",
      "gasUsed": "0xbdbb",
      "effectiveGasPrice": "0xfb",
      "blobGasUsed": "0x0",
      "from": "0xb78686a2f9cb282e72795a0c78087ed69bdb0759",
      "to": "0xcea98d137e42bbfae8192efb4eecaeb0204ba158",
      "contractAddress": null,
      "l1BaseFeeScalar": "0x558",
      "l1BlobBaseFee": "0x53b0",
      "l1BlobBaseFeeScalar": "0xc5fc5",
      "l1Fee": "0x1413236",
      "l1GasPrice": "0x86a22f",
      "l1GasUsed": "0x640"
    },
    {
      "status": "0x1",
      "cumulativeGasUsed": "0x20681",
      "logs": [
        {
          "address": "0xcea98d137e42bbfae8192efb4eecaeb0204ba158",
          "topics": [
            "0xddf252ad1be2c89b69c2b068fc378daa952ba7f163c4a11628f55a4df523b3ef",
            "0x000000000000000000000000b78686a2f9cb282e72795a0c78087ed69bdb0759",
            "0x00000000000000000000000039cb184af026c05b6bcb507aa8365b2dbb377dcd"
          ],
          "data": "0x00000000000000000000000000000000000000000000001043561a8829300000",
          "blockHash": "0x5080c18feef3b133d8419c7acbef513fc757402a269c0aff7f98fb0abf3aaa4a",
          "blockNumber": "0xb1e4f7",
          "transactionHash": "0x6ffd9b6ac94b0b4e15536a4eb5f89e00697f60fe416811341517b8ac7510be3e",
          "transactionIndex": "0x1",
          "logIndex": "0x0",
          "removed": false
        },
        {
          "address": "0x39cb184af026c05b6bcb507aa8365b2dbb377dcd",
          "topics": [
            "0x9e71bc8eea02a63969f509818f2dafb9254532904319f9dbda79b67bd34a5f3d",
            "0x000000000000000000000000b78686a2f9cb282e72795a0c78087ed69bdb0759"
          ],
          "data": "0x00000000000000000000000000000000000000000000001043561a8829300000",
          "blockHash": "0x5080c18feef3b133d8419c7acbef513fc757402a269c0aff7f98fb0abf3aaa4a",
          "blockNumber": "0xb1e4f7",
          "transactionHash": "0x6ffd9b6ac94b0b4e15536a4eb5f89e00697f60fe416811341517b8ac7510be3e",
          "transactionIndex": "0x1",
          "logIndex": "0x1",
          "removed": false
        }
      ],
      "logsBloom": "0x00000000000000000000000000000000000000000800000000000000000000000000000000000000000000000000000000000000000000000000000000000000000000000000000000000008000000000000000000000000000000000000000040000000040000000008001000000000000000000000000000000010000000000000000000000000010000000000000000000000000000000000000102000000010000000800000000000000040000000000000100000000000000000000000000000002000000000000004000000000000000000000000000000000000000000000800000000000000000000000100000000000000000000000000000000000",
      "type": "0x2",
      "transactionHash": "0x6ffd9b6ac94b0b4e15536a4eb5f89e00697f60fe416811341517b8ac7510be3e",
      "transactionIndex": "0x1",
      "blockHash": "0x5080c18feef3b133d8419c7acbef513fc757402a269c0aff7f98fb0abf3aaa4a",
      "blockNumber": "0xb1e4f7",
      "gasUsed": "0x12f9a",
      "effectiveGasPrice": "0xfb",
      "blobGasUsed": "0x0",
      "from": "0xb78686a2f9cb282e72795a0c78087ed69bdb0759",
      "to": "0x39cb184af026c05b6bcb507aa8365b2dbb377dcd",
      "contractAddress": null,
      "l1BaseFeeScalar": "0x558",
      "l1BlobBaseFee": "0x5a86",
      "l1BlobBaseFeeScalar": "0xc5fc5",
      "l1Fee": "0x141e454",
      "l1GasPrice": "0x85f64a",
      "l1GasUsed": "0x640"
    },
    {
      "status": "0x1",
      "cumulativeGasUsed": "0x168ee",
      "logs": [
        {
          "address": "0xcea98d137e42bbfae8192efb4eecaeb0204ba158",
          "topics": [
            "0x8c5be1e5ebec7d5bd14f71427d1e84f3dd0314c0f7b2291e5b200ac8c7c3b925",
            "0x00000000000000000000000064adb4f077ca5de063e0105c5b9d905d48b547a7",
            "0x00000000000000000000000039cb184af026c05b6bcb507aa8365b2dbb377dcd"
          ],
          "data": "0x00000000000000000000000000000000000000000000003635c9adc5dea00000",
          "blockHash": "0xb3418a4a0b267c04359bd4c8f332b20bf579300c9b5b677231b8d30c5a90a017",
          "blockNumber": "0xb1e4f9",
          "transactionHash": "0x07492d572c9bfcd22a4442d6995128df086ce6004929b981b842522fa1c3f89e",
          "transactionIndex": "0x1",
          "logIndex": "0x0",
          "removed": false
        }
      ],
      "logsBloom": "0x00000000000000000000000000000000000000000000000000000000000000000000000000000000000000000000000000000000000000000000200000200000000000000000000000000000000000000000000000000000000000000000000000000000040000000000000000000000000000000800000000000000000000000000000000000000010200000000000000000000000000000000000000000000020000000000000000000000000000000000000100000000000000000000000000000000000000000000004000000000000000000000000000000000000000000010800000000000000000000000100000000000000000000000000000000000",
      "type": "0x2",
      "transactionHash": "0x07492d572c9bfcd22a4442d6995128df086ce6004929b981b842522fa1c3f89e",
      "transactionIndex": "0x1",
      "blockHash": "0xb3418a4a0b267c04359bd4c8f332b20bf579300c9b5b677231b8d30c5a90a017",
      "blockNumber": "0xb1e4f9",
      "gasUsed": "0xbdbb",
      "effectiveGasPrice": "0xfb",
      "blobGasUsed": "0x0",
      "from": "0x64adb4f077ca5de063e0105c5b9d905d48b547a7",
      "to": "0xcea98d137e42bbfae8192efb4eecaeb0204ba158",
      "contractAddress": null,
      "l1BaseFeeScalar": "0x558",
      "l1BlobBaseFee": "0x5a86",
      "l1BlobBaseFeeScalar": "0xc5fc5",
      "l1Fee": "0x141e454",
      "l1GasPrice": "0x85f64a",
      "l1GasUsed": "0x640"
    },
    {
      "status": "0x1",
      "cumulativeGasUsed": "0x1dacd",
      "logs": [
        {
          "address": "0xcea98d137e42bbfae8192efb4eecaeb0204ba158",
          "topics": [
            "0xddf252ad1be2c89b69c2b068fc378daa952ba7f163c4a11628f55a4df523b3ef",
            "0x00000000000000000000000064adb4f077ca5de063e0105c5b9d905d48b547a7",
            "0x00000000000000000000000039cb184af026c05b6bcb507aa8365b2dbb377dcd"
          ],
          "data": "0x00000000000000000000000000000000000000000000001043561a8829300000",
          "blockHash": "0x64a2bae034c6a755c39924763ef295e6698e2154c2ed687a3ffd59b4879a3203",
          "blockNumber": "0xb1e4fb",
          "transactionHash": "0x2419d9384e70215760aa3804fb87e914ee55fe8d5880f64723133d9fc6d1dce3",
          "transactionIndex": "0x1",
          "logIndex": "0x0",
          "removed": false
        },
        {
          "address": "0x39cb184af026c05b6bcb507aa8365b2dbb377dcd",
          "topics": [
            "0x9e71bc8eea02a63969f509818f2dafb9254532904319f9dbda79b67bd34a5f3d",
            "0x00000000000000000000000064adb4f077ca5de063e0105c5b9d905d48b547a7"
          ],
          "data": "0x00000000000000000000000000000000000000000000001043561a8829300000",
          "blockHash": "0x64a2bae034c6a755c39924763ef295e6698e2154c2ed687a3ffd59b4879a3203",
          "blockNumber": "0xb1e4fb",
          "transactionHash": "0x2419d9384e70215760aa3804fb87e914ee55fe8d5880f64723133d9fc6d1dce3",
          "transactionIndex": "0x1",
          "logIndex": "0x1",
          "removed": false
        }
      ],
      "logsBloom": "0x00000000000000000000000000000000000000000800000000000000000000000000000000000000000000000000000000000000000000000000200000000000000000000000000000000008000000000000000000000000000000000000000040000000040000000008001000000000000000000800000000000010000000000000000000000000010200000000000000000000000000000000000000000000000000000800000000000000040000000000000100000000000000000000000000000002000000000000004000000000000000000000000000000000000000000000800000000000000000000000100000000000000000000000000000000000",
      "type": "0x2",
      "transactionHash": "0x2419d9384e70215760aa3804fb87e914ee55fe8d5880f64723133d9fc6d1dce3",
      "transactionIndex": "0x1",
      "blockHash": "0x64a2bae034c6a755c39924763ef295e6698e2154c2ed687a3ffd59b4879a3203",
      "blockNumber": "0xb1e4fb",
      "gasUsed": "0x12f9a",
      "effectiveGasPrice": "0xfb",
      "blobGasUsed": "0x0",
      "from": "0x64adb4f077ca5de063e0105c5b9d905d48b547a7",
      "to": "0x39cb184af026c05b6bcb507aa8365b2dbb377dcd",
      "contractAddress": null,
      "l1BaseFeeScalar": "0x558",
      "l1BlobBaseFee": "0x5a86",
      "l1BlobBaseFeeScalar": "0xc5fc5",
      "l1Fee": "0x141e454",
      "l1GasPrice": "0x85f64a",
      "l1GasUsed": "0x640"
    },
    {
      "status": "0x1",
      "cumulativeGasUsed": "0x2c7eb",
      "logs": [
        {
          "address": "0x39cb184af026c05b6bcb507aa8365b2dbb377dcd",
          "topics": [
            "0x1a51752aa6f33b6ca737e2496a349f112944c0bb58bd54d60d6cf2b57c681b6c"
          ],
          "data": "0x00000000000000000000000000000000000000000000000000000000000000400000000000000000000000000000000000000000000000000000000000000080000000000000000000000000000000000000000000000000000000000000000570726f70310000000000000000000000000000000000000000000000000000000000000000000000000000000000000000000000000000000000000000000012737573706963696f757320616464726573730000000000000000000000000000",
          "blockHash": "0x325fd81bac17e0fc03ca4cd9da305d7a1c28fbbecf2d1c41f2390948fec87280",
          "blockNumber": "0xb1e4fd",
          "transactionHash": "0x332c7a12784be7e9137b3819444e7dbaa71e765c2bedce7e41255f481d7a3d1f",
          "transactionIndex": "0x1",
          "logIndex": "0x0",
          "removed": false
        }
      ],
      "logsBloom": "0x00000000000000000000000000000000000000000000000000000000000000000000000000000000000000000000000000000000000000000000000000000000000000000000000000000000000000000000000000000000000000000000000000000000000000000000001001000000000000000000040000000000000000000000000000000000000000000000000000000000000000000000000000000000000000000800000000000000040000000000000000000000000000000000000000000000000000000000000000400000000000000000000000000000000000000000000000000000000000000000000000000000000000000000000000000000",
      "type": "0x2",
      "transactionHash": "0x332c7a12784be7e9137b3819444e7dbaa71e765c2bedce7e41255f481d7a3d1f",
      "transactionIndex": "0x1",
      "blockHash": "0x325fd81bac17e0fc03ca4cd9da305d7a1c28fbbecf2d1c41f2390948fec87280",
      "blockNumber": "0xb1e4fd",
      "gasUsed": "0x1f104",
      "effectiveGasPrice": "0xfb",
      "blobGasUsed": "0x0",
      "from": "0x851a7ba59ee589560921ebb47d464e15b8afe901",
      "to": "0x39cb184af026c05b6bcb507aa8365b2dbb377dcd",
      "contractAddress": null,
      "l1BaseFeeScalar": "0x558",
      "l1BlobBaseFee": "0x61eb",
      "l1BlobBaseFeeScalar": "0xc5fc5",
      "l1Fee": "0x1c37e18",
      "l1GasPrice": "0x864bfb",
      "l1GasUsed": "0x8ae"
    }
  ],
  "libraries": [],
  "pending": [],
  "returns": {},
  "timestamp": 1743864415,
  "chain": 4801,
  "commit": "f55a936"
}