{
  "transactions": [
    {
      "hash": "0xb917d8d0a0444df83a83cba34ed66ee44b7bedef85f2c8152a5f690a3e73203c",
      "transactionType": "CALL",
      "contractName": null,
      "contractAddress": "0x39cb184af026c05b6bcb507aa8365b2dbb377dcd",
      "function": "createProposal(string,address,bool,string,uint256)",
      "arguments": [
        "prop2",
        "0x6B0D6DD57981D90096D89c98548Feb23F9490890",
        "true",
        "suspicious address",
        "1743865496"
      ],
      "transaction": {
        "from": "0xbd51f3433a10128bcf9d8061f3eee39b2bce07b7",
        "to": "0x39cb184af026c05b6bcb507aa8365b2dbb377dcd",
        "gas": "0x11020",
        "value": "0x0",
        "input": "0x91e832bb00000000000000000000000000000000000000000000000000000000000000a00000000000000000000000006b0d6dd57981d90096d89c98548feb23f9490890000000000000000000000000000000000000000000000000000000000000000100000000000000000000000000000000000000000000000000000000000000e00000000000000000000000000000000000000000000000000000000067f14698000000000000000000000000000000000000000000000000000000000000000570726f70320000000000000000000000000000000000000000000000000000000000000000000000000000000000000000000000000000000000000000000012737573706963696f757320616464726573730000000000000000000000000000",
        "nonce": "0xa",
        "chainId": "0x12c1"
      },
      "additionalContracts": [],
      "isFixedGasLimit": false
    },
    {
      "hash": "0xe9711a5e1d13df3e65890a3e5550bec659d63d46d1ca1489c425f318e2120ed8",
      "transactionType": "CALL",
      "contractName": null,
      "contractAddress": "0x39cb184af026c05b6bcb507aa8365b2dbb377dcd",
      "function": "commitVote(string,bytes32)",
      "arguments": [
        "prop2",
        "0xb2319d1a1d4ebe3b634c9c95f96ff9f616f3b9429565658ff2bfc2eb516f94f1"
      ],
      "transaction": {
        "from": "0xbd51f3433a10128bcf9d8061f3eee39b2bce07b7",
        "to": "0x39cb184af026c05b6bcb507aa8365b2dbb377dcd",
        "gas": "0x397b3",
        "value": "0x0",
        "input": "0x56d8f6fe0000000000000000000000000000000000000000000000000000000000000040b2319d1a1d4ebe3b634c9c95f96ff9f616f3b9429565658ff2bfc2eb516f94f1000000000000000000000000000000000000000000000000000000000000000570726f7032000000000000000000000000000000000000000000000000000000",
        "nonce": "0xb",
        "chainId": "0x12c1"
      },
      "additionalContracts": [],
      "isFixedGasLimit": false
    },
    {
      "hash": "0x12b977fa2fa432b5589559c6d757e4d4ac2d1d2517f8f05e32646b15d7f2ae8b",
      "transactionType": "CALL",
      "contractName": null,
      "contractAddress": "0x39cb184af026c05b6bcb507aa8365b2dbb377dcd",
      "function": "commitVote(string,bytes32)",
      "arguments": [
        "prop2",
        "0x90638151823553fdc18a2d09a203fafedce08bb012a2f97ea897aba010828b29"
      ],
      "transaction": {
        "from": "0xb78686a2f9cb282e72795a0c78087ed69bdb0759",
        "to": "0x39cb184af026c05b6bcb507aa8365b2dbb377dcd",
        "gas": "0x2d451",
        "value": "0x0",
        "input": "0x56d8f6fe000000000000000000000000000000000000000000000000000000000000004090638151823553fdc18a2d09a203fafedce08bb012a2f97ea897aba010828b29000000000000000000000000000000000000000000000000000000000000000570726f7032000000000000000000000000000000000000000000000000000000",
        "nonce": "0x8",
        "chainId": "0x12c1"
      },
      "additionalContracts": [],
      "isFixedGasLimit": false
    },
    {
      "hash": "0xd42cd5bbb9132621e0e34741c4c4fd7f40d16fa5ef207c903ac7aedd85f52cff",
      "transactionType": "CALL",
      "contractName": null,
      "contractAddress": "0x39cb184af026c05b6bcb507aa8365b2dbb377dcd",
      "function": "commitVote(string,bytes32)",
      "arguments": [
        "prop2",
        "0xf22eb50448c0ad7b424e3a928a9977d42fee3bca4e873977c53ec7c2b729be11"
      ],
      "transaction": {
        "from": "0x64adb4f077ca5de063e0105c5b9d905d48b547a7",
        "to": "0x39cb184af026c05b6bcb507aa8365b2dbb377dcd",
        "gas": "0x2d451",
        "value": "0x0",
        "input": "0x56d8f6fe0000000000000000000000000000000000000000000000000000000000000040f22eb50448c0ad7b424e3a928a9977d42fee3bca4e873977c53ec7c2b729be11000000000000000000000000000000000000000000000000000000000000000570726f7032000000000000000000000000000000000000000000000000000000",
        "nonce": "0x6",
        "chainId": "0x12c1"
      },
      "additionalContracts": [],
      "isFixedGasLimit": false
    }
  ],
  "receipts": [
    {
      "status": "0x1",
      "cumulativeGasUsed": "0x17037",
      "logs": [
        {
          "address": "0x39cb184af026c05b6bcb507aa8365b2dbb377dcd",
          "topics": [
            "0x1a51752aa6f33b6ca737e2496a349f112944c0bb58bd54d60d6cf2b57c681b6c"
          ],
          "data": "0x00000000000000000000000000000000000000000000000000000000000000400000000000000000000000000000000000000000000000000000000000000080000000000000000000000000000000000000000000000000000000000000000570726f70320000000000000000000000000000000000000000000000000000000000000000000000000000000000000000000000000000000000000000000012737573706963696f757320616464726573730000000000000000000000000000",
          "blockHash": "0xe8659b3a3681f89fbbc745facef8849d1f1bbd577f63e740d2cc3eac61860ab9",
          "blockNumber": "0xb1e6f9",
          "transactionHash": "0xb917d8d0a0444df83a83cba34ed66ee44b7bedef85f2c8152a5f690a3e73203c",
          "transactionIndex": "0x1",
          "logIndex": "0x0",
          "removed": false
        }
      ],
      "logsBloom": "0x00000000000000000000000000000000000000000000000000000000000000000000000000000000000000000000000000000000000000000000000000000000000000000000000000000000000000000000000000000000000000000000000000000000000000000000001001000000000000000000040000000000000000000000000000000000000000000000000000000000000000000000000000000000000000000800000000000000040000000000000000000000000000000000000000000000000000000000000000400000000000000000000000000000000000000000000000000000000000000000000000000000000000000000000000000000",
      "type": "0x2",
      "transactionHash": "0xb917d8d0a0444df83a83cba34ed66ee44b7bedef85f2c8152a5f690a3e73203c",
      "transactionIndex": "0x1",
      "blockHash": "0xe8659b3a3681f89fbbc745facef8849d1f1bbd577f63e740d2cc3eac61860ab9",
      "blockNumber": "0xb1e6f9",
      "gasUsed": "0xc504",
      "effectiveGasPrice": "0xfb",
      "blobGasUsed": "0x0",
      "from": "0xbd51f3433a10128bcf9d8061f3eee39b2bce07b7",
      "to": "0x39cb184af026c05b6bcb507aa8365b2dbb377dcd",
      "contractAddress": null,
      "l1BaseFeeScalar": "0x558",
      "l1BlobBaseFee": "0x672f",
      "l1BlobBaseFeeScalar": "0xc5fc5",
      "l1Fee": "0xaec45a",
      "l1GasPrice": "0x2a8967",
      "l1GasUsed": "0x8ae"
    },
    {
      "status": "0x1",
      "cumulativeGasUsed": "0x3200e",
      "logs": [
        {
          "address": "0x39cb184af026c05b6bcb507aa8365b2dbb377dcd",
          "topics": [
            "0x50243476cf032fae798fcf62289573b1a73fe13390986e4368c6cd4a21944c36"
          ],
          "data": "0x0000000000000000000000000000000000000000000000000000000000000040000000000000000000000000bd51f3433a10128bcf9d8061f3eee39b2bce07b7000000000000000000000000000000000000000000000000000000000000000570726f7032000000000000000000000000000000000000000000000000000000",
          "blockHash": "0xe74a06eb61eb7acb69cedf9022c50dedd668d5b3abb49eb590616ec1ac2f2d5e",
          "blockNumber": "0xb1e6fb",
          "transactionHash": "0xe9711a5e1d13df3e65890a3e5550bec659d63d46d1ca1489c425f318e2120ed8",
          "transactionIndex": "0x1",
          "logIndex": "0x0",
          "removed": false
        }
      ],
      "logsBloom": "0x00000000000000000000000000000000000000000000000000000000000000000000000000000000000000000000000000000000000000000000000000000000000000000000000000000000000000000000000000000000000000000000000000000000000000000000001000000000000000000000000000000000000000000000000000000000000000000000000000000000000000000000000000000000000000000800000000000000040000000000010000000000000000000000000000000000000000000000000000000080000000000000000000000000000000000000000020000000000000000000000000000000000000000000000000000000",
      "type": "0x2",
      "transactionHash": "0xe9711a5e1d13df3e65890a3e5550bec659d63d46d1ca1489c425f318e2120ed8",
      "transactionIndex": "0x1",
      "blockHash": "0xe74a06eb61eb7acb69cedf9022c50dedd668d5b3abb49eb590616ec1ac2f2d5e",
      "blockNumber": "0xb1e6fb",
      "gasUsed": "0x274db",
      "effectiveGasPrice": "0xfb",
      "blobGasUsed": "0x0",
      "from": "0xbd51f3433a10128bcf9d8061f3eee39b2bce07b7",
      "to": "0x39cb184af026c05b6bcb507aa8365b2dbb377dcd",
      "contractAddress": null,
      "l1BaseFeeScalar": "0x558",
      "l1BlobBaseFee": "0x672f",
      "l1BlobBaseFeeScalar": "0xc5fc5",
      "l1Fee": "0x7e5d32",
      "l1GasPrice": "0x2a8967",
      "l1GasUsed": "0x647"
    },
    {
      "status": "0x1",
      "cumulativeGasUsed": "0x2c61e",
      "logs": [
        {
          "address": "0x39cb184af026c05b6bcb507aa8365b2dbb377dcd",
          "topics": [
            "0x50243476cf032fae798fcf62289573b1a73fe13390986e4368c6cd4a21944c36"
          ],
          "data": "0x0000000000000000000000000000000000000000000000000000000000000040000000000000000000000000b78686a2f9cb282e72795a0c78087ed69bdb0759000000000000000000000000000000000000000000000000000000000000000570726f7032000000000000000000000000000000000000000000000000000000",
          "blockHash": "0x9187a50e0465fd8a995f7a868b86c98bb23766d54cdf93823029e07c99f558c3",
          "blockNumber": "0xb1e6fd",
          "transactionHash": "0x12b977fa2fa432b5589559c6d757e4d4ac2d1d2517f8f05e32646b15d7f2ae8b",
          "transactionIndex": "0x1",
          "logIndex": "0x0",
          "removed": false
        }
      ],
      "logsBloom": "0x00000000000000000000000000000000000000000000000000000000000000000000000000000000000000000000000000000000000000000000000000000000000000000000000000000000000000000000000000000000000000000000000000000000000000000000001000000000000000000000000000000000000000000000000000000000000000000000000000000000000000000000000000000000000000000800000000000000040000000000010000000000000000000000000000000000000000000000000000000080000000000000000000000000000000000000000020000000000000000000000000000000000000000000000000000000",
      "type": "0x2",
      "transactionHash": "0x12b977fa2fa432b5589559c6d757e4d4ac2d1d2517f8f05e32646b15d7f2ae8b",
      "transactionIndex": "0x1",
      "blockHash": "0x9187a50e0465fd8a995f7a868b86c98bb23766d54cdf93823029e07c99f558c3",
      "blockNumber": "0xb1e6fd",
      "gasUsed": "0x1ef43",
      "effectiveGasPrice": "0xfb",
      "blobGasUsed": "0x0",
      "from": "0xb78686a2f9cb282e72795a0c78087ed69bdb0759",
      "to": "0x39cb184af026c05b6bcb507aa8365b2dbb377dcd",
      "contractAddress": null,
      "l1BaseFeeScalar": "0x558",
      "l1BlobBaseFee": "0x61eb",
      "l1BlobBaseFeeScalar": "0xc5fc5",
      "l1Fee": "0x78f12a",
      "l1GasPrice": "0x28d538",
      "l1GasUsed": "0x647"
    },
    {
      "status": "0x1",
      "cumulativeGasUsed": "0x29a6a",
      "logs": [
        {
          "address": "0x39cb184af026c05b6bcb507aa8365b2dbb377dcd",
          "topics": [
            "0x50243476cf032fae798fcf62289573b1a73fe13390986e4368c6cd4a21944c36"
          ],
          "data": "0x000000000000000000000000000000000000000000000000000000000000004000000000000000000000000064adb4f077ca5de063e0105c5b9d905d48b547a7000000000000000000000000000000000000000000000000000000000000000570726f7032000000000000000000000000000000000000000000000000000000",
          "blockHash": "0x686f7d85fa053628a629b07d09be0750525d176c4ec584327e4f25027041e07d",
          "blockNumber": "0xb1e6ff",
          "transactionHash": "0xd42cd5bbb9132621e0e34741c4c4fd7f40d16fa5ef207c903ac7aedd85f52cff",
          "transactionIndex": "0x1",
          "logIndex": "0x0",
          "removed": false
        }
      ],
      "logsBloom": "0x00000000000000000000000000000000000000000000000000000000000000000000000000000000000000000000000000000000000000000000000000000000000000000000000000000000000000000000000000000000000000000000000000000000000000000000001000000000000000000000000000000000000000000000000000000000000000000000000000000000000000000000000000000000000000000800000000000000040000000000010000000000000000000000000000000000000000000000000000000080000000000000000000000000000000000000000020000000000000000000000000000000000000000000000000000000",
      "type": "0x2",
      "transactionHash": "0xd42cd5bbb9132621e0e34741c4c4fd7f40d16fa5ef207c903ac7aedd85f52cff",
      "transactionIndex": "0x1",
      "blockHash": "0x686f7d85fa053628a629b07d09be0750525d176c4ec584327e4f25027041e07d",
      "blockNumber": "0xb1e6ff",
      "gasUsed": "0x1ef43",
      "effectiveGasPrice": "0xfb",
      "blobGasUsed": "0x0",
      "from": "0x64adb4f077ca5de063e0105c5b9d905d48b547a7",
      "to": "0x39cb184af026c05b6bcb507aa8365b2dbb377dcd",
      "contractAddress": null,
      "l1BaseFeeScalar": "0x558",
      "l1BlobBaseFee": "0x61eb",
      "l1BlobBaseFeeScalar": "0xc5fc5",
      "l1Fee": "0x78f12a",
      "l1GasPrice": "0x28d538",
      "l1GasUsed": "0x647"
    }
  ],
  "libraries": [],
  "pending": [],
  "returns": {},
  "timestamp": 1743865440,
  "chain": 4801,
  "commit": "f55a936"
}