{
  "transactions": [
    {
      "hash": "0x4802caa4dc9ede1b86fe1051f4191dedbb74c208b4bbee4d50c861bf441ae2f8",
      "transactionType": "CALL",
      "contractName": null,
      "contractAddress": "0xcea98d137e42bbfae8192efb4eecaeb0204ba158",
      "function": "approve(address,uint256)",
      "arguments": [
        "0xe9D4186dBB7aa4E4054e6F5176e0206f58b6F64e",
        "300000000000000000000"
      ],
      "transaction": {
        "from": "0x851a7ba59ee589560921ebb47d464e15b8afe901",
        "to": "0xcea98d137e42bbfae8192efb4eecaeb0204ba158",
        "gas": "0x1157a",
        "value": "0x0",
        "input": "0x095ea7b3000000000000000000000000e9d4186dbb7aa4e4054e6f5176e0206f58b6f64e00000000000000000000000000000000000000000000001043561a8829300000",
        "nonce": "0xc",
        "chainId": "0x12c1"
      },
      "additionalContracts": [],
      "isFixedGasLimit": false
    },
    {
      "hash": "0x0f14d777d4810bdefe4ff9bfc224af0d09fcc67f8533d82c8f2dd76303218e33",
      "transactionType": "CALL",
      "contractName": null,
      "contractAddress": "0xcea98d137e42bbfae8192efb4eecaeb0204ba158",
      "function": "approve(address,uint256)",
      "arguments": [
        "0x39CB184af026c05B6BcB507aA8365B2dbb377dcD",
        "10000000000000000000000"
      ],
      "transaction": {
        "from": "0x851a7ba59ee589560921ebb47d464e15b8afe901",
        "to": "0xcea98d137e42bbfae8192efb4eecaeb0204ba158",
        "gas": "0x10620",
        "value": "0x0",
        "input": "0x095ea7b300000000000000000000000039cb184af026c05b6bcb507aa8365b2dbb377dcd00000000000000000000000000000000000000000000021e19e0c9bab2400000",
        "nonce": "0xd",
        "chainId": "0x12c1"
      },
      "additionalContracts": [],
      "isFixedGasLimit": false
    },
    {
      "hash": "0x0af2657fc62c2ed813855154ae9bb2be95c2a3acfdea40508622c9a8e650e803",
      "transactionType": "CALL",
      "contractName": null,
      "contractAddress": "0xe9d4186dbb7aa4e4054e6f5176e0206f58b6f64e",
      "function": "stake(uint256)",
      "arguments": [
        "300000000000000000000"
      ],
      "transaction": {
        "from": "0x851a7ba59ee589560921ebb47d464e15b8afe901",
        "to": "0xe9d4186dbb7aa4e4054e6f5176e0206f58b6f64e",
        "gas": "0x13f27",
        "value": "0x0",
        "input": "0xa694fc3a00000000000000000000000000000000000000000000001043561a8829300000",
        "nonce": "0xe",
        "chainId": "0x12c1"
      },
      "additionalContracts": [],
      "isFixedGasLimit": false
    },
    {
      "hash": "0xd8102c16a8657ec620e8cf5d657a447635b38ad63f7a1b3a367bc56073a36a2f",
      "transactionType": "CALL",
      "contractName": null,
      "contractAddress": "0x39cb184af026c05b6bcb507aa8365b2dbb377dcd",
      "function": "stake(uint256)",
      "arguments": [
        "10000000000000000000000"
      ],
      "transaction": {
        "from": "0x851a7ba59ee589560921ebb47d464e15b8afe901",
        "to": "0x39cb184af026c05b6bcb507aa8365b2dbb377dcd",
        "gas": "0x13ef8",
        "value": "0x0",
        "input": "0xa694fc3a00000000000000000000000000000000000000000000021e19e0c9bab2400000",
        "nonce": "0xf",
        "chainId": "0x12c1"
      },
      "additionalContracts": [],
      "isFixedGasLimit": false
    },
    {
      "hash": "0x94ec8952a721340fbdcdb6cc5dab07e6b2ca20b083051fe6ea1d47b6aa3b4b57",
      "transactionType": "CALL",
      "contractName": null,
      "contractAddress": "0xe9d4186dbb7aa4e4054e6f5176e0206f58b6f64e",
      "function": "updateLabel(bytes32,string,bool)",
      "arguments": [
        "0x326e44f428818ecc9263cbdb0e6144077d0e886c94ab30632e469a60dcabc15b",
        "GOD ADDRESS",
        "false"
      ],
      "transaction": {
        "from": "0x851a7ba59ee589560921ebb47d464e15b8afe901",
        "to": "0xe9d4186dbb7aa4e4054e6f5176e0206f58b6f64e",
        "gas": "0xbdec",
        "value": "0x0",
        "input": "0x77e15498326e44f428818ecc9263cbdb0e6144077d0e886c94ab30632e469a60dcabc15b00000000000000000000000000000000000000000000000000000000000000600000000000000000000000000000000000000000000000000000000000000000000000000000000000000000000000000000000000000000000000000000000b474f442041444452455353000000000000000000000000000000000000000000",
        "nonce": "0x10",
        "chainId": "0x12c1"
      },
      "additionalContracts": [],
      "isFixedGasLimit": false
    }
  ],
  "receipts": [
    {
      "status": "0x1",
      "cumulativeGasUsed": "0x168ee",
      "logs": [
        {
          "address": "0xcea98d137e42bbfae8192efb4eecaeb0204ba158",
          "topics": [
            "0x8c5be1e5ebec7d5bd14f71427d1e84f3dd0314c0f7b2291e5b200ac8c7c3b925",
            "0x000000000000000000000000851a7ba59ee589560921ebb47d464e15b8afe901",
            "0x000000000000000000000000e9d4186dbb7aa4e4054e6f5176e0206f58b6f64e"
          ],
          "data": "0x00000000000000000000000000000000000000000000001043561a8829300000",
          "blockHash": "0x51a8b495f58e10a81e0e1dcd523b2da05509c8d8bff240e1c605777ca491d3ce",
          "blockNumber": "0xb1df4f",
          "transactionHash": "0x4802caa4dc9ede1b86fe1051f4191dedbb74c208b4bbee4d50c861bf441ae2f8",
          "transactionIndex": "0x1",
          "logIndex": "0x0",
          "removed": false
        }
      ],
      "logsBloom": "0x00000000000000000000000000000000000000000000000000000000000000000000020000000000000000000000000000000000000000000000000000200000000000000000000000000000000000000000000000000000000000000000000000000000000000000000000000000000000000000000000000000000000000000000040000000000010000000000000000000000000000000000800000000000020000000000000000000000000040000000000000000000000000000000000000000000001000000000004000200000000000000000000000000000000000000010000000000000000000000000100000000000000000000000000000000000",
      "type": "0x2",
      "transactionHash": "0x4802caa4dc9ede1b86fe1051f4191dedbb74c208b4bbee4d50c861bf441ae2f8",
      "transactionIndex": "0x1",
      "blockHash": "0x51a8b495f58e10a81e0e1dcd523b2da05509c8d8bff240e1c605777ca491d3ce",
      "blockNumber": "0xb1df4f",
      "gasUsed": "0xbdbb",
      "effectiveGasPrice": "0xfb",
      "blobGasUsed": "0x0",
      "from": "0x851a7ba59ee589560921ebb47d464e15b8afe901",
      "to": "0xcea98d137e42bbfae8192efb4eecaeb0204ba158",
      "contractAddress": null,
      "l1BaseFeeScalar": "0x558",
      "l1BlobBaseFee": "0x5a5",
      "l1BlobBaseFeeScalar": "0xc5fc5",
      "l1Fee": "0xd6c702",
      "l1GasPrice": "0x614f08",
      "l1GasUsed": "0x640"
    },
    {
      "status": "0x1",
      "cumulativeGasUsed": "0x226b5",
      "logs": [
        {
          "address": "0xcea98d137e42bbfae8192efb4eecaeb0204ba158",
          "topics": [
            "0x8c5be1e5ebec7d5bd14f71427d1e84f3dd0314c0f7b2291e5b200ac8c7c3b925",
            "0x000000000000000000000000851a7ba59ee589560921ebb47d464e15b8afe901",
            "0x00000000000000000000000039cb184af026c05b6bcb507aa8365b2dbb377dcd"
          ],
          "data": "0x00000000000000000000000000000000000000000000021e19e0c9bab2400000",
          "blockHash": "0x51a8b495f58e10a81e0e1dcd523b2da05509c8d8bff240e1c605777ca491d3ce",
          "blockNumber": "0xb1df4f",
          "transactionHash": "0x0f14d777d4810bdefe4ff9bfc224af0d09fcc67f8533d82c8f2dd76303218e33",
          "transactionIndex": "0x2",
          "logIndex": "0x1",
          "removed": false
        }
      ],
      "logsBloom": "0x00000000000000000000000000000000000000000000000000000000000000000000000000000000000000000000000000000000000000000000000000200000000000000000000000000000000000000000000000000000000000000000000000000000040000000000000000000000000000000000000000000000000000000000040000000000010000000000000000000000000000000000000000000000020000000000000000000000000000000000000100000000000000000000000000000000001000000000004000200000000000000000000000000000000000000010800000000000000000000000100000000000000000000000000000000000",
      "type": "0x2",
      "transactionHash": "0x0f14d777d4810bdefe4ff9bfc224af0d09fcc67f8533d82c8f2dd76303218e33",
      "transactionIndex": "0x2",
      "blockHash": "0x51a8b495f58e10a81e0e1dcd523b2da05509c8d8bff240e1c605777ca491d3ce",
      "blockNumber": "0xb1df4f",
      "gasUsed": "0xbdc7",
      "effectiveGasPrice": "0xfb",
      "blobGasUsed": "0x0",
      "from": "0x851a7ba59ee589560921ebb47d464e15b8afe901",
      "to": "0xcea98d137e42bbfae8192efb4eecaeb0204ba158",
      "contractAddress": null,
      "l1BaseFeeScalar": "0x558",
      "l1BlobBaseFee": "0x5a5",
      "l1BlobBaseFeeScalar": "0xc5fc5",
      "l1Fee": "0xd6c702",
      "l1GasPrice": "0x614f08",
      "l1GasUsed": "0x640"
    },
    {
      "status": "0x1",
      "cumulativeGasUsed": "0x300ef",
      "logs": [
        {
          "address": "0xcea98d137e42bbfae8192efb4eecaeb0204ba158",
          "topics": [
            "0xddf252ad1be2c89b69c2b068fc378daa952ba7f163c4a11628f55a4df523b3ef",
            "0x000000000000000000000000851a7ba59ee589560921ebb47d464e15b8afe901",
            "0x000000000000000000000000e9d4186dbb7aa4e4054e6f5176e0206f58b6f64e"
          ],
          "data": "0x00000000000000000000000000000000000000000000001043561a8829300000",
          "blockHash": "0x51a8b495f58e10a81e0e1dcd523b2da05509c8d8bff240e1c605777ca491d3ce",
          "blockNumber": "0xb1df4f",
          "transactionHash": "0x0af2657fc62c2ed813855154ae9bb2be95c2a3acfdea40508622c9a8e650e803",
          "transactionIndex": "0x3",
          "logIndex": "0x2",
          "removed": false
        },
        {
          "address": "0xe9d4186dbb7aa4e4054e6f5176e0206f58b6f64e",
          "topics": [
            "0x9e71bc8eea02a63969f509818f2dafb9254532904319f9dbda79b67bd34a5f3d",
            "0x000000000000000000000000851a7ba59ee589560921ebb47d464e15b8afe901"
          ],
          "data": "0x00000000000000000000000000000000000000000000001043561a8829300000",
          "blockHash": "0x51a8b495f58e10a81e0e1dcd523b2da05509c8d8bff240e1c605777ca491d3ce",
          "blockNumber": "0xb1df4f",
          "transactionHash": "0x0af2657fc62c2ed813855154ae9bb2be95c2a3acfdea40508622c9a8e650e803",
          "transactionIndex": "0x3",
          "logIndex": "0x3",
          "removed": false
        }
      ],
      "logsBloom": "0x00000000000000000000000000000000000000000800000000000000000000000000020000000000000000000000000000000000000004000000000000000000000000000000000000000008000000000000000000000000000000000000000040000000000000000008000000000000000000000000000000000010000000000000040000000000010000000000000000000000000000000000800000000000000000000000000000040000000040000000000000000000000000000000000000000002001000000000004000200000000000000000000000000004000000000000000000000000000000000000100000000000000000000000000000000000",
      "type": "0x2",
      "transactionHash": "0x0af2657fc62c2ed813855154ae9bb2be95c2a3acfdea40508622c9a8e650e803",
      "transactionIndex": "0x3",
      "blockHash": "0x51a8b495f58e10a81e0e1dcd523b2da05509c8d8bff240e1c605777ca491d3ce",
      "blockNumber": "0xb1df4f",
      "gasUsed": "0xda3a",
      "effectiveGasPrice": "0xfb",
      "blobGasUsed": "0x0",
      "from": "0x851a7ba59ee589560921ebb47d464e15b8afe901",
      "to": "0xe9d4186dbb7aa4e4054e6f5176e0206f58b6f64e",
      "contractAddress": null,
      "l1BaseFeeScalar": "0x558",
      "l1BlobBaseFee": "0x5a5",
      "l1BlobBaseFeeScalar": "0xc5fc5",
      "l1Fee": "0xd6c702",
      "l1GasPrice": "0x614f08",
      "l1GasUsed": "0x640"
    },
    {
      "status": "0x1",
      "cumulativeGasUsed": "0x3db09",
      "logs": [
        {
          "address": "0xcea98d137e42bbfae8192efb4eecaeb0204ba158",
          "topics": [
            "0xddf252ad1be2c89b69c2b068fc378daa952ba7f163c4a11628f55a4df523b3ef",
            "0x000000000000000000000000851a7ba59ee589560921ebb47d464e15b8afe901",
            "0x00000000000000000000000039cb184af026c05b6bcb507aa8365b2dbb377dcd"
          ],
          "data": "0x00000000000000000000000000000000000000000000021e19e0c9bab2400000",
          "blockHash": "0x51a8b495f58e10a81e0e1dcd523b2da05509c8d8bff240e1c605777ca491d3ce",
          "blockNumber": "0xb1df4f",
          "transactionHash": "0xd8102c16a8657ec620e8cf5d657a447635b38ad63f7a1b3a367bc56073a36a2f",
          "transactionIndex": "0x4",
          "logIndex": "0x4",
          "removed": false
        },
        {
          "address": "0x39cb184af026c05b6bcb507aa8365b2dbb377dcd",
          "topics": [
            "0x9e71bc8eea02a63969f509818f2dafb9254532904319f9dbda79b67bd34a5f3d",
            "0x000000000000000000000000851a7ba59ee589560921ebb47d464e15b8afe901"
          ],
          "data": "0x00000000000000000000000000000000000000000000021e19e0c9bab2400000",
          "blockHash": "0x51a8b495f58e10a81e0e1dcd523b2da05509c8d8bff240e1c605777ca491d3ce",
          "blockNumber": "0xb1df4f",
          "transactionHash": "0xd8102c16a8657ec620e8cf5d657a447635b38ad63f7a1b3a367bc56073a36a2f",
          "transactionIndex": "0x4",
          "logIndex": "0x5",
          "removed": false
        }
      ],
      "logsBloom": "0x00000000000000000000000000000000000000000800000000000000000000000000000000000000000000000000000000000000000000000000000000000000000000000000000000000008000000000000000000000000000000000000000040000000040000000008001000000000000000000000000000000010000000000000040000000000010000000000000000000000000000000000000000000000000000000800000000000000040000000000000100000000000000000000000000000002001000000000004000200000000000000000000000000000000000000000800000000000000000000000100000000000000000000000000000000000",
      "type": "0x2",
      "transactionHash": "0xd8102c16a8657ec620e8cf5d657a447635b38ad63f7a1b3a367bc56073a36a2f",
      "transactionIndex": "0x4",
      "blockHash": "0x51a8b495f58e10a81e0e1dcd523b2da05509c8d8bff240e1c605777ca491d3ce",
      "blockNumber": "0xb1df4f",
      "gasUsed": "0xda1a",
      "effectiveGasPrice": "0xfb",
      "blobGasUsed": "0x0",
      "from": "0x851a7ba59ee589560921ebb47d464e15b8afe901",
      "to": "0x39cb184af026c05b6bcb507aa8365b2dbb377dcd",
      "contractAddress": null,
      "l1BaseFeeScalar": "0x558",
      "l1BlobBaseFee": "0x5a5",
      "l1BlobBaseFeeScalar": "0xc5fc5",
      "l1Fee": "0xd6c702",
      "l1GasPrice": "0x614f08",
      "l1GasUsed": "0x640"
    },
    {
      "status": "0x1",
      "cumulativeGasUsed": "0x46489",
      "logs": [
        {
          "address": "0xe9d4186dbb7aa4e4054e6f5176e0206f58b6f64e",
          "topics": [
            "0xed2570ae73fe7e38149b889321f4588d317721fec9f7eb4459cfb4bc79433133",
            "0x326e44f428818ecc9263cbdb0e6144077d0e886c94ab30632e469a60dcabc15b"
          ],
          "data": "0x00000000000000000000000000000000000000000000000000000000000000400000000000000000000000000000000000000000000000000000000000000000000000000000000000000000000000000000000000000000000000000000000b474f442041444452455353000000000000000000000000000000000000000000",
          "blockHash": "0x51a8b495f58e10a81e0e1dcd523b2da05509c8d8bff240e1c605777ca491d3ce",
          "blockNumber": "0xb1df4f",
          "transactionHash": "0x94ec8952a721340fbdcdb6cc5dab07e6b2ca20b083051fe6ea1d47b6aa3b4b57",
          "transactionIndex": "0x5",
          "logIndex": "0x6",
          "removed": false
        }
      ],
      "logsBloom": "0x00000000000000000000000000000000000000000000000000000000000000000000000000000000000000000000000000000000000004000000000000000000000000000000000000000000000000000000000000000000000000000000000000000000000000000000000000000000000000000000000000000000000000000000000000000000000000000000000000800000000000000800000000000000000000000000000000040000000000000000800000000000000000000000000000000000000000000000000000000000000000000000000000000004400000000000200000000000000000000000000000040000000000000000000000000000",
      "type": "0x2",
      "transactionHash": "0x94ec8952a721340fbdcdb6cc5dab07e6b2ca20b083051fe6ea1d47b6aa3b4b57",
      "transactionIndex": "0x5",
      "blockHash": "0x51a8b495f58e10a81e0e1dcd523b2da05509c8d8bff240e1c605777ca491d3ce",
      "blockNumber": "0xb1df4f",
      "gasUsed": "0x8980",
      "effectiveGasPrice": "0xfb",
      "blobGasUsed": "0x0",
      "from": "0x851a7ba59ee589560921ebb47d464e15b8afe901",
      "to": "0xe9d4186dbb7aa4e4054e6f5176e0206f58b6f64e",
      "contractAddress": null,
      "l1BaseFeeScalar": "0x558",
      "l1BlobBaseFee": "0x5a5",
      "l1BlobBaseFeeScalar": "0xc5fc5",
      "l1Fee": "0xe28945",
      "l1GasPrice": "0x614f08",
      "l1GasUsed": "0x697"
    }
  ],
  "libraries": [],
  "pending": [],
  "returns": {},
  "timestamp": 1743861504,
  "chain": 4801,
  "commit": "f55a936"
}