{
  "transactions": [
    {
      "hash": "0xb8fe60b7b1cf0d47e46469e075d664811e4ca5c79caf1c74ae18c236e887b9cb",
      "transactionType": "CALL",
      "contractName": null,
      "contractAddress": "0xcea98d137e42bbfae8192efb4eecaeb0204ba158",
      "function": "approve(address,uint256)",
      "arguments": [
        "0xe9D4186dBB7aa4E4054e6F5176e0206f58b6F64e",
        "300000000000000000000"
      ],
      "transaction": {
        "from": "0x851a7ba59ee589560921ebb47d464e15b8afe901",
        "to": "0xcea98d137e42bbfae8192efb4eecaeb0204ba158",
        "gas": "0x1157a",
        "value": "0x0",
        "input": "0x095ea7b3000000000000000000000000e9d4186dbb7aa4e4054e6f5176e0206f58b6f64e00000000000000000000000000000000000000000000001043561a8829300000",
        "nonce": "0x4",
        "chainId": "0x12c1"
      },
      "additionalContracts": [],
      "isFixedGasLimit": false
    },
    {
      "hash": "0xac68e56094197b42fa49eb465691ea10f22b2fb76a991aa51a7097a7e2a56525",
      "transactionType": "CALL",
      "contractName": null,
      "contractAddress": "0xe9d4186dbb7aa4e4054e6f5176e0206f58b6f64e",
      "function": "stake(uint256)",
      "arguments": [
        "300000000000000000000"
      ],
      "transaction": {
        "from": "0x851a7ba59ee589560921ebb47d464e15b8afe901",
        "to": "0xe9d4186dbb7aa4e4054e6f5176e0206f58b6f64e",
        "gas": "0x20289",
        "value": "0x0",
        "input": "0xa694fc3a00000000000000000000000000000000000000000000001043561a8829300000",
        "nonce": "0x5",
        "chainId": "0x12c1"
      },
      "additionalContracts": [],
      "isFixedGasLimit": false
    },
    {
      "hash": "0x9e4c54933dec34aafba4d8c2312043191b8dd646b00f1473b6ffddb3f3128761",
      "transactionType": "CALL",
      "contractName": null,
      "contractAddress": "0xe9d4186dbb7aa4e4054e6f5176e0206f58b6f64e",
      "function": "updateLabel(bytes32,string,bool)",
      "arguments": [
        "0x326e44f428818ecc9263cbdb0e6144077d0e886c94ab30632e469a60dcabc15b",
        "GOD ADDRESS",
        "false"
      ],
      "transaction": {
        "from": "0x851a7ba59ee589560921ebb47d464e15b8afe901",
        "to": "0xe9d4186dbb7aa4e4054e6f5176e0206f58b6f64e",
        "gas": "0x12949",
        "value": "0x0",
        "input": "0x77e15498326e44f428818ecc9263cbdb0e6144077d0e886c94ab30632e469a60dcabc15b00000000000000000000000000000000000000000000000000000000000000600000000000000000000000000000000000000000000000000000000000000000000000000000000000000000000000000000000000000000000000000000000b474f442041444452455353000000000000000000000000000000000000000000",
        "nonce": "0x6",
        "chainId": "0x12c1"
      },
      "additionalContracts": [],
      "isFixedGasLimit": false
    }
  ],
  "receipts": [
    {
      "status": "0x1",
      "cumulativeGasUsed": "0x168ee",
      "logs": [
        {
          "address": "0xcea98d137e42bbfae8192efb4eecaeb0204ba158",
          "topics": [
            "0x8c5be1e5ebec7d5bd14f71427d1e84f3dd0314c0f7b2291e5b200ac8c7c3b925",
            "0x000000000000000000000000851a7ba59ee589560921ebb47d464e15b8afe901",
            "0x000000000000000000000000e9d4186dbb7aa4e4054e6f5176e0206f58b6f64e"
          ],
          "data": "0x00000000000000000000000000000000000000000000001043561a8829300000",
          "blockHash": "0xae0626e191f7034b4cab548cc1bf11e6d8fe0abb96589f2d1309227c976c94bb",
          "blockNumber": "0xb1db88",
          "transactionHash": "0xb8fe60b7b1cf0d47e46469e075d664811e4ca5c79caf1c74ae18c236e887b9cb",
          "transactionIndex": "0x1",
          "logIndex": "0x0",
          "removed": false
        }
      ],
      "logsBloom": "0x00000000000000000000000000000000000000000000000000000000000000000000020000000000000000000000000000000000000000000000000000200000000000000000000000000000000000000000000000000000000000000000000000000000000000000000000000000000000000000000000000000000000000000000040000000000010000000000000000000000000000000000800000000000020000000000000000000000000040000000000000000000000000000000000000000000001000000000004000200000000000000000000000000000000000000010000000000000000000000000100000000000000000000000000000000000",
      "type": "0x2",
      "transactionHash": "0xb8fe60b7b1cf0d47e46469e075d664811e4ca5c79caf1c74ae18c236e887b9cb",
      "transactionIndex": "0x1",
      "blockHash": "0xae0626e191f7034b4cab548cc1bf11e6d8fe0abb96589f2d1309227c976c94bb",
      "blockNumber": "0xb1db88",
      "gasUsed": "0xbdbb",
      "effectiveGasPrice": "0xfb",
      "blobGasUsed": "0x0",
      "from": "0x851a7ba59ee589560921ebb47d464e15b8afe901",
      "to": "0xcea98d137e42bbfae8192efb4eecaeb0204ba158",
      "contractAddress": null,
      "l1BaseFeeScalar": "0x558",
      "l1BlobBaseFee": "0x538",
      "l1BlobBaseFeeScalar": "0xc5fc5",
      "l1Fee": "0x683cec",
      "l1GasPrice": "0x2ede39",
      "l1GasUsed": "0x640"
    },
    {
      "status": "0x1",
      "cumulativeGasUsed": "0x2c8c0",
      "logs": [
        {
          "address": "0xcea98d137e42bbfae8192efb4eecaeb0204ba158",
          "topics": [
            "0xddf252ad1be2c89b69c2b068fc378daa952ba7f163c4a11628f55a4df523b3ef",
            "0x000000000000000000000000851a7ba59ee589560921ebb47d464e15b8afe901",
            "0x000000000000000000000000e9d4186dbb7aa4e4054e6f5176e0206f58b6f64e"
          ],
          "data": "0x00000000000000000000000000000000000000000000001043561a8829300000",
          "blockHash": "0xae0626e191f7034b4cab548cc1bf11e6d8fe0abb96589f2d1309227c976c94bb",
          "blockNumber": "0xb1db88",
          "transactionHash": "0xac68e56094197b42fa49eb465691ea10f22b2fb76a991aa51a7097a7e2a56525",
          "transactionIndex": "0x2",
          "logIndex": "0x1",
          "removed": false
        },
        {
          "address": "0xe9d4186dbb7aa4e4054e6f5176e0206f58b6f64e",
          "topics": [
            "0x9e71bc8eea02a63969f509818f2dafb9254532904319f9dbda79b67bd34a5f3d",
            "0x000000000000000000000000851a7ba59ee589560921ebb47d464e15b8afe901"
          ],
          "data": "0x00000000000000000000000000000000000000000000001043561a8829300000",
          "blockHash": "0xae0626e191f7034b4cab548cc1bf11e6d8fe0abb96589f2d1309227c976c94bb",
          "blockNumber": "0xb1db88",
          "transactionHash": "0xac68e56094197b42fa49eb465691ea10f22b2fb76a991aa51a7097a7e2a56525",
          "transactionIndex": "0x2",
          "logIndex": "0x2",
          "removed": false
        }
      ],
      "logsBloom": "0x00000000000000000000000000000000000000000800000000000000000000000000020000000000000000000000000000000000000004000000000000000000000000000000000000000008000000000000000000000000000000000000000040000000000000000008000000000000000000000000000000000010000000000000040000000000010000000000000000000000000000000000800000000000000000000000000000040000000040000000000000000000000000000000000000000002001000000000004000200000000000000000000000000004000000000000000000000000000000000000100000000000000000000000000000000000",
      "type": "0x2",
      "transactionHash": "0xac68e56094197b42fa49eb465691ea10f22b2fb76a991aa51a7097a7e2a56525",
      "transactionIndex": "0x2",
      "blockHash": "0xae0626e191f7034b4cab548cc1bf11e6d8fe0abb96589f2d1309227c976c94bb",
      "blockNumber": "0xb1db88",
      "gasUsed": "0x15fd2",
      "effectiveGasPrice": "0xfb",
      "blobGasUsed": "0x0",
      "from": "0x851a7ba59ee589560921ebb47d464e15b8afe901",
      "to": "0xe9d4186dbb7aa4e4054e6f5176e0206f58b6f64e",
      "contractAddress": null,
      "l1BaseFeeScalar": "0x558",
      "l1BlobBaseFee": "0x538",
      "l1BlobBaseFeeScalar": "0xc5fc5",
      "l1Fee": "0x683cec",
      "l1GasPrice": "0x2ede39",
      "l1GasUsed": "0x640"
    },
    {
      "status": "0x1",
      "cumulativeGasUsed": "0x39ffc",
      "logs": [
        {
          "address": "0xe9d4186dbb7aa4e4054e6f5176e0206f58b6f64e",
          "topics": [
            "0xed2570ae73fe7e38149b889321f4588d317721fec9f7eb4459cfb4bc79433133",
            "0x326e44f428818ecc9263cbdb0e6144077d0e886c94ab30632e469a60dcabc15b"
          ],
          "data": "0x00000000000000000000000000000000000000000000000000000000000000400000000000000000000000000000000000000000000000000000000000000000000000000000000000000000000000000000000000000000000000000000000b474f442041444452455353000000000000000000000000000000000000000000",
          "blockHash": "0xae0626e191f7034b4cab548cc1bf11e6d8fe0abb96589f2d1309227c976c94bb",
          "blockNumber": "0xb1db88",
          "transactionHash": "0x9e4c54933dec34aafba4d8c2312043191b8dd646b00f1473b6ffddb3f3128761",
          "transactionIndex": "0x3",
          "logIndex": "0x3",
          "removed": false
        }
      ],
      "logsBloom": "0x00000000000000000000000000000000000000000000000000000000000000000000000000000000000000000000000000000000000004000000000000000000000000000000000000000000000000000000000000000000000000000000000000000000000000000000000000000000000000000000000000000000000000000000000000000000000000000000000000800000000000000800000000000000000000000000000000040000000000000000800000000000000000000000000000000000000000000000000000000000000000000000000000000004400000000000200000000000000000000000000000040000000000000000000000000000",
      "type": "0x2",
      "transactionHash": "0x9e4c54933dec34aafba4d8c2312043191b8dd646b00f1473b6ffddb3f3128761",
      "transactionIndex": "0x3",
      "blockHash": "0xae0626e191f7034b4cab548cc1bf11e6d8fe0abb96589f2d1309227c976c94bb",
      "blockNumber": "0xb1db88",
      "gasUsed": "0xd73c",
      "effectiveGasPrice": "0xfb",
      "blobGasUsed": "0x0",
      "from": "0x851a7ba59ee589560921ebb47d464e15b8afe901",
      "to": "0xe9d4186dbb7aa4e4054e6f5176e0206f58b6f64e",
      "contractAddress": null,
      "l1BaseFeeScalar": "0x558",
      "l1BlobBaseFee": "0x538",
      "l1BlobBaseFeeScalar": "0xc5fc5",
      "l1Fee": "0x6ed11d",
      "l1GasPrice": "0x2ede39",
      "l1GasUsed": "0x6a4"
    }
  ],
  "libraries": [],
  "pending": [],
  "returns": {},
  "timestamp": 1743859569,
  "chain": 4801,
  "commit": "bc21007"
}