{
  "transactions": [
    {
      "hash": "0xac1ca599015f10b4b88fa43bc9209e6c0621b1b0d62367a6318ed7acf21c1847",
      "transactionType": "CALL",
      "contractName": null,
      "contractAddress": "0xcea98d137e42bbfae8192efb4eecaeb0204ba158",
      "function": "approve(address,uint256)",
      "arguments": [
        "0xe9D4186dBB7aa4E4054e6F5176e0206f58b6F64e",
        "300000000000000000000"
      ],
      "transaction": {
        "from": "0x851a7ba59ee589560921ebb47d464e15b8afe901",
        "to": "0xcea98d137e42bbfae8192efb4eecaeb0204ba158",
        "gas": "0x1157a",
        "value": "0x0",
        "input": "0x095ea7b3000000000000000000000000e9d4186dbb7aa4e4054e6f5176e0206f58b6f64e00000000000000000000000000000000000000000000001043561a8829300000",
        "nonce": "0x7",
        "chainId": "0x12c1"
      },
      "additionalContracts": [],
      "isFixedGasLimit": false
    },
    {
      "hash": "0x602a62345e2847de761f0ada798eabffec42cee0c37c6d9370627e2a7939d3b3",
      "transactionType": "CALL",
      "contractName": null,
      "contractAddress": "0xcea98d137e42bbfae8192efb4eecaeb0204ba158",
      "function": "approve(address,uint256)",
      "arguments": [
        "0x39CB184af026c05B6BcB507aA8365B2dbb377dcD",
        "300000000000000000000"
      ],
      "transaction": {
        "from": "0x851a7ba59ee589560921ebb47d464e15b8afe901",
        "to": "0xcea98d137e42bbfae8192efb4eecaeb0204ba158",
        "gas": "0x1157a",
        "value": "0x0",
        "input": "0x095ea7b300000000000000000000000039cb184af026c05b6bcb507aa8365b2dbb377dcd00000000000000000000000000000000000000000000001043561a8829300000",
        "nonce": "0x8",
        "chainId": "0x12c1"
      },
      "additionalContracts": [],
      "isFixedGasLimit": false
    },
    {
      "hash": "0x324b484ee23fc831f94e483d4bcc8b669aaa508b2eff52106cc228c9dec73368",
      "transactionType": "CALL",
      "contractName": null,
      "contractAddress": "0xe9d4186dbb7aa4e4054e6f5176e0206f58b6f64e",
      "function": "stake(uint256)",
      "arguments": [
        "300000000000000000000"
      ],
      "transaction": {
        "from": "0x851a7ba59ee589560921ebb47d464e15b8afe901",
        "to": "0xe9d4186dbb7aa4e4054e6f5176e0206f58b6f64e",
        "gas": "0x13f27",
        "value": "0x0",
        "input": "0xa694fc3a00000000000000000000000000000000000000000000001043561a8829300000",
        "nonce": "0x9",
        "chainId": "0x12c1"
      },
      "additionalContracts": [],
      "isFixedGasLimit": false
    },
    {
      "hash": "0xec01f6f78b4dfe559dd879ac6b0e70662dd9c24184f1cebd454dd0a6ac9c0c98",
      "transactionType": "CALL",
      "contractName": null,
      "contractAddress": "0x39cb184af026c05b6bcb507aa8365b2dbb377dcd",
      "function": "stake(uint256)",
      "arguments": [
        "300000000000000000000"
      ],
      "transaction": {
        "from": "0x851a7ba59ee589560921ebb47d464e15b8afe901",
        "to": "0x39cb184af026c05b6bcb507aa8365b2dbb377dcd",
        "gas": "0x1e5b6",
        "value": "0x0",
        "input": "0xa694fc3a00000000000000000000000000000000000000000000001043561a8829300000",
        "nonce": "0xa",
        "chainId": "0x12c1"
      },
      "additionalContracts": [],
      "isFixedGasLimit": false
    },
    {
      "hash": "0x0f30177aa407d8fe03dcb6e4e634266d9013277a63aab5efaa270a4ac4f562dd",
      "transactionType": "CALL",
      "contractName": null,
      "contractAddress": "0xe9d4186dbb7aa4e4054e6f5176e0206f58b6f64e",
      "function": "updateLabel(bytes32,string,bool)",
      "arguments": [
        "0x326e44f428818ecc9263cbdb0e6144077d0e886c94ab30632e469a60dcabc15b",
        "GOD ADDRESS",
        "false"
      ],
      "transaction": {
        "from": "0x851a7ba59ee589560921ebb47d464e15b8afe901",
        "to": "0xe9d4186dbb7aa4e4054e6f5176e0206f58b6f64e",
        "gas": "0xbdec",
        "value": "0x0",
        "input": "0x77e15498326e44f428818ecc9263cbdb0e6144077d0e886c94ab30632e469a60dcabc15b00000000000000000000000000000000000000000000000000000000000000600000000000000000000000000000000000000000000000000000000000000000000000000000000000000000000000000000000000000000000000000000000b474f442041444452455353000000000000000000000000000000000000000000",
        "nonce": "0xb",
        "chainId": "0x12c1"
      },
      "additionalContracts": [],
      "isFixedGasLimit": false
    }
  ],
  "receipts": [
    {
      "status": "0x1",
      "cumulativeGasUsed": "0x168ee",
      "logs": [
        {
          "address": "0xcea98d137e42bbfae8192efb4eecaeb0204ba158",
          "topics": [
            "0x8c5be1e5ebec7d5bd14f71427d1e84f3dd0314c0f7b2291e5b200ac8c7c3b925",
            "0x000000000000000000000000851a7ba59ee589560921ebb47d464e15b8afe901",
            "0x000000000000000000000000e9d4186dbb7aa4e4054e6f5176e0206f58b6f64e"
          ],
          "data": "0x00000000000000000000000000000000000000000000001043561a8829300000",
          "blockHash": "0x1fd98f86364afa6f5579567aaa6ce3f69206a595d88ce70a9131910480c57433",
          "blockNumber": "0xb1df3b",
          "transactionHash": "0xac1ca599015f10b4b88fa43bc9209e6c0621b1b0d62367a6318ed7acf21c1847",
          "transactionIndex": "0x1",
          "logIndex": "0x0",
          "removed": false
        }
      ],
      "logsBloom": "0x00000000000000000000000000000000000000000000000000000000000000000000020000000000000000000000000000000000000000000000000000200000000000000000000000000000000000000000000000000000000000000000000000000000000000000000000000000000000000000000000000000000000000000000040000000000010000000000000000000000000000000000800000000000020000000000000000000000000040000000000000000000000000000000000000000000001000000000004000200000000000000000000000000000000000000010000000000000000000000000100000000000000000000000000000000000",
      "type": "0x2",
      "transactionHash": "0xac1ca599015f10b4b88fa43bc9209e6c0621b1b0d62367a6318ed7acf21c1847",
      "transactionIndex": "0x1",
      "blockHash": "0x1fd98f86364afa6f5579567aaa6ce3f69206a595d88ce70a9131910480c57433",
      "blockNumber": "0xb1df3b",
      "gasUsed": "0xbdbb",
      "effectiveGasPrice": "0xfb",
      "blobGasUsed": "0x0",
      "from": "0x851a7ba59ee589560921ebb47d464e15b8afe901",
      "to": "0xcea98d137e42bbfae8192efb4eecaeb0204ba158",
      "contractAddress": null,
      "l1BaseFeeScalar": "0x558",
      "l1BlobBaseFee": "0x516",
      "l1BlobBaseFeeScalar": "0xc5fc5",
      "l1Fee": "0xde79c5",
      "l1GasPrice": "0x64e81d",
      "l1GasUsed": "0x640"
    },
    {
      "status": "0x1",
      "cumulativeGasUsed": "0x226a9",
      "logs": [
        {
          "address": "0xcea98d137e42bbfae8192efb4eecaeb0204ba158",
          "topics": [
            "0x8c5be1e5ebec7d5bd14f71427d1e84f3dd0314c0f7b2291e5b200ac8c7c3b925",
            "0x000000000000000000000000851a7ba59ee589560921ebb47d464e15b8afe901",
            "0x00000000000000000000000039cb184af026c05b6bcb507aa8365b2dbb377dcd"
          ],
          "data": "0x00000000000000000000000000000000000000000000001043561a8829300000",
          "blockHash": "0x1fd98f86364afa6f5579567aaa6ce3f69206a595d88ce70a9131910480c57433",
          "blockNumber": "0xb1df3b",
          "transactionHash": "0x602a62345e2847de761f0ada798eabffec42cee0c37c6d9370627e2a7939d3b3",
          "transactionIndex": "0x2",
          "logIndex": "0x1",
          "removed": false
        }
      ],
      "logsBloom": "0x00000000000000000000000000000000000000000000000000000000000000000000000000000000000000000000000000000000000000000000000000200000000000000000000000000000000000000000000000000000000000000000000000000000040000000000000000000000000000000000000000000000000000000000040000000000010000000000000000000000000000000000000000000000020000000000000000000000000000000000000100000000000000000000000000000000001000000000004000200000000000000000000000000000000000000010800000000000000000000000100000000000000000000000000000000000",
      "type": "0x2",
      "transactionHash": "0x602a62345e2847de761f0ada798eabffec42cee0c37c6d9370627e2a7939d3b3",
      "transactionIndex": "0x2",
      "blockHash": "0x1fd98f86364afa6f5579567aaa6ce3f69206a595d88ce70a9131910480c57433",
      "blockNumber": "0xb1df3b",
      "gasUsed": "0xbdbb",
      "effectiveGasPrice": "0xfb",
      "blobGasUsed": "0x0",
      "from": "0x851a7ba59ee589560921ebb47d464e15b8afe901",
      "to": "0xcea98d137e42bbfae8192efb4eecaeb0204ba158",
      "contractAddress": null,
      "l1BaseFeeScalar": "0x558",
      "l1BlobBaseFee": "0x516",
      "l1BlobBaseFeeScalar": "0xc5fc5",
      "l1Fee": "0xde79c5",
      "l1GasPrice": "0x64e81d",
      "l1GasUsed": "0x640"
    },
    {
      "status": "0x1",
      "cumulativeGasUsed": "0x300e3",
      "logs": [
        {
          "address": "0xcea98d137e42bbfae8192efb4eecaeb0204ba158",
          "topics": [
            "0xddf252ad1be2c89b69c2b068fc378daa952ba7f163c4a11628f55a4df523b3ef",
            "0x000000000000000000000000851a7ba59ee589560921ebb47d464e15b8afe901",
            "0x000000000000000000000000e9d4186dbb7aa4e4054e6f5176e0206f58b6f64e"
          ],
          "data": "0x00000000000000000000000000000000000000000000001043561a8829300000",
          "blockHash": "0x1fd98f86364afa6f5579567aaa6ce3f69206a595d88ce70a9131910480c57433",
          "blockNumber": "0xb1df3b",
          "transactionHash": "0x324b484ee23fc831f94e483d4bcc8b669aaa508b2eff52106cc228c9dec73368",
          "transactionIndex": "0x3",
          "logIndex": "0x2",
          "removed": false
        },
        {
          "address": "0xe9d4186dbb7aa4e4054e6f5176e0206f58b6f64e",
          "topics": [
            "0x9e71bc8eea02a63969f509818f2dafb9254532904319f9dbda79b67bd34a5f3d",
            "0x000000000000000000000000851a7ba59ee589560921ebb47d464e15b8afe901"
          ],
          "data": "0x00000000000000000000000000000000000000000000001043561a8829300000",
          "blockHash": "0x1fd98f86364afa6f5579567aaa6ce3f69206a595d88ce70a9131910480c57433",
          "blockNumber": "0xb1df3b",
          "transactionHash": "0x324b484ee23fc831f94e483d4bcc8b669aaa508b2eff52106cc228c9dec73368",
          "transactionIndex": "0x3",
          "logIndex": "0x3",
          "removed": false
        }
      ],
      "logsBloom": "0x00000000000000000000000000000000000000000800000000000000000000000000020000000000000000000000000000000000000004000000000000000000000000000000000000000008000000000000000000000000000000000000000040000000000000000008000000000000000000000000000000000010000000000000040000000000010000000000000000000000000000000000800000000000000000000000000000040000000040000000000000000000000000000000000000000002001000000000004000200000000000000000000000000004000000000000000000000000000000000000100000000000000000000000000000000000",
      "type": "0x2",
      "transactionHash": "0x324b484ee23fc831f94e483d4bcc8b669aaa508b2eff52106cc228c9dec73368",
      "transactionIndex": "0x3",
      "blockHash": "0x1fd98f86364afa6f5579567aaa6ce3f69206a595d88ce70a9131910480c57433",
      "blockNumber": "0xb1df3b",
      "gasUsed": "0xda3a",
      "effectiveGasPrice": "0xfb",
      "blobGasUsed": "0x0",
      "from": "0x851a7ba59ee589560921ebb47d464e15b8afe901",
      "to": "0xe9d4186dbb7aa4e4054e6f5176e0206f58b6f64e",
      "contractAddress": null,
      "l1BaseFeeScalar": "0x558",
      "l1BlobBaseFee": "0x516",
      "l1BlobBaseFeeScalar": "0xc5fc5",
      "l1Fee": "0xde79c5",
      "l1GasPrice": "0x64e81d",
      "l1GasUsed": "0x640"
    },
    {
      "status": "0x1",
      "cumulativeGasUsed": "0x46089",
      "logs": [
        {
          "address": "0xcea98d137e42bbfae8192efb4eecaeb0204ba158",
          "topics": [
            "0xddf252ad1be2c89b69c2b068fc378daa952ba7f163c4a11628f55a4df523b3ef",
            "0x000000000000000000000000851a7ba59ee589560921ebb47d464e15b8afe901",
            "0x00000000000000000000000039cb184af026c05b6bcb507aa8365b2dbb377dcd"
          ],
          "data": "0x00000000000000000000000000000000000000000000001043561a8829300000",
          "blockHash": "0x1fd98f86364afa6f5579567aaa6ce3f69206a595d88ce70a9131910480c57433",
          "blockNumber": "0xb1df3b",
          "transactionHash": "0xec01f6f78b4dfe559dd879ac6b0e70662dd9c24184f1cebd454dd0a6ac9c0c98",
          "transactionIndex": "0x4",
          "logIndex": "0x4",
          "removed": false
        },
        {
          "address": "0x39cb184af026c05b6bcb507aa8365b2dbb377dcd",
          "topics": [
            "0x9e71bc8eea02a63969f509818f2dafb9254532904319f9dbda79b67bd34a5f3d",
            "0x000000000000000000000000851a7ba59ee589560921ebb47d464e15b8afe901"
          ],
          "data": "0x00000000000000000000000000000000000000000000001043561a8829300000",
          "blockHash": "0x1fd98f86364afa6f5579567aaa6ce3f69206a595d88ce70a9131910480c57433",
          "blockNumber": "0xb1df3b",
          "transactionHash": "0xec01f6f78b4dfe559dd879ac6b0e70662dd9c24184f1cebd454dd0a6ac9c0c98",
          "transactionIndex": "0x4",
          "logIndex": "0x5",
          "removed": false
        }
      ],
      "logsBloom": "0x00000000000000000000000000000000000000000800000000000000000000000000000000000000000000000000000000000000000000000000000000000000000000000000000000000008000000000000000000000000000000000000000040000000040000000008001000000000000000000000000000000010000000000000040000000000010000000000000000000000000000000000000000000000000000000800000000000000040000000000000100000000000000000000000000000002001000000000004000200000000000000000000000000000000000000000800000000000000000000000100000000000000000000000000000000000",
      "type": "0x2",
      "transactionHash": "0xec01f6f78b4dfe559dd879ac6b0e70662dd9c24184f1cebd454dd0a6ac9c0c98",
      "transactionIndex": "0x4",
      "blockHash": "0x1fd98f86364afa6f5579567aaa6ce3f69206a595d88ce70a9131910480c57433",
      "blockNumber": "0xb1df3b",
      "gasUsed": "0x15fa6",
      "effectiveGasPrice": "0xfb",
      "blobGasUsed": "0x0",
      "from": "0x851a7ba59ee589560921ebb47d464e15b8afe901",
      "to": "0x39cb184af026c05b6bcb507aa8365b2dbb377dcd",
      "contractAddress": null,
      "l1BaseFeeScalar": "0x558",
      "l1BlobBaseFee": "0x516",
      "l1BlobBaseFeeScalar": "0xc5fc5",
      "l1Fee": "0xde79c5",
      "l1GasPrice": "0x64e81d",
      "l1GasUsed": "0x640"
    },
    {
      "status": "0x1",
      "cumulativeGasUsed": "0x4ea09",
      "logs": [
        {
          "address": "0xe9d4186dbb7aa4e4054e6f5176e0206f58b6f64e",
          "topics": [
            "0xed2570ae73fe7e38149b889321f4588d317721fec9f7eb4459cfb4bc79433133",
            "0x326e44f428818ecc9263cbdb0e6144077d0e886c94ab30632e469a60dcabc15b"
          ],
          "data": "0x00000000000000000000000000000000000000000000000000000000000000400000000000000000000000000000000000000000000000000000000000000000000000000000000000000000000000000000000000000000000000000000000b474f442041444452455353000000000000000000000000000000000000000000",
          "blockHash": "0x1fd98f86364afa6f5579567aaa6ce3f69206a595d88ce70a9131910480c57433",
          "blockNumber": "0xb1df3b",
          "transactionHash": "0x0f30177aa407d8fe03dcb6e4e634266d9013277a63aab5efaa270a4ac4f562dd",
          "transactionIndex": "0x5",
          "logIndex": "0x6",
          "removed": false
        }
      ],
      "logsBloom": "0x00000000000000000000000000000000000000000000000000000000000000000000000000000000000000000000000000000000000004000000000000000000000000000000000000000000000000000000000000000000000000000000000000000000000000000000000000000000000000000000000000000000000000000000000000000000000000000000000000800000000000000800000000000000000000000000000000040000000000000000800000000000000000000000000000000000000000000000000000000000000000000000000000000004400000000000200000000000000000000000000000040000000000000000000000000000",
      "type": "0x2",
      "transactionHash": "0x0f30177aa407d8fe03dcb6e4e634266d9013277a63aab5efaa270a4ac4f562dd",
      "transactionIndex": "0x5",
      "blockHash": "0x1fd98f86364afa6f5579567aaa6ce3f69206a595d88ce70a9131910480c57433",
      "blockNumber": "0xb1df3b",
      "gasUsed": "0x8980",
      "effectiveGasPrice": "0xfb",
      "blobGasUsed": "0x0",
      "from": "0x851a7ba59ee589560921ebb47d464e15b8afe901",
      "to": "0xe9d4186dbb7aa4e4054e6f5176e0206f58b6f64e",
      "contractAddress": null,
      "l1BaseFeeScalar": "0x558",
      "l1BlobBaseFee": "0x516",
      "l1BlobBaseFeeScalar": "0xc5fc5",
      "l1Fee": "0xeaa7ef",
      "l1GasPrice": "0x64e81d",
      "l1GasUsed": "0x697"
    }
  ],
  "libraries": [],
  "pending": [],
  "returns": {},
  "timestamp": 1743861465,
  "chain": 4801,
  "commit": "f55a936"
}