{
  "transactions": [
    {
      "hash": "0x4225a0fed3321dfd8d5bc1dc48684316f33138e2869dbacd01944553fd043884",
      "transactionType": "CALL",
      "contractName": null,
      "contractAddress": "0x39cb184af026c05b6bcb507aa8365b2dbb377dcd",
      "function": "startRevealPhase(string,uint256)",
      "arguments": [
        "prop2",
        "1743865776"
      ],
      "transaction": {
        "from": "0x851a7ba59ee589560921ebb47d464e15b8afe901",
        "to": "0x39cb184af026c05b6bcb507aa8365b2dbb377dcd",
        "gas": "0x12ffc",
        "value": "0x0",
        "input": "0x87c9baf900000000000000000000000000000000000000000000000000000000000000400000000000000000000000000000000000000000000000000000000067f147b0000000000000000000000000000000000000000000000000000000000000000570726f7032000000000000000000000000000000000000000000000000000000",
        "nonce": "0x28",
        "chainId": "0x12c1"
      },
      "additionalContracts": [],
      "isFixedGasLimit": false
    },
    {
      "hash": "0xb39064b428c5ada5c23ec2b5e01f1557e4e22f4d57dc2f619068d3e73fefb949",
      "transactionType": "CALL",
      "contractName": null,
      "contractAddress": "0x39cb184af026c05b6bcb507aa8365b2dbb377dcd",
      "function": "revealVote(string,address,bool,uint8,bytes32)",
      "arguments": [
        "prop2",
        "0xB78686a2f9cb282E72795a0c78087eD69BDB0759",
        "true",
        "80",
        "0x6162630000000000000000000000000000000000000000000000000000000000"
      ],
      "transaction": {
        "from": "0x851a7ba59ee589560921ebb47d464e15b8afe901",
        "to": "0x39cb184af026c05b6bcb507aa8365b2dbb377dcd",
        "gas": "0x1d6e5",
        "value": "0x0",
        "input": "0x8336688900000000000000000000000000000000000000000000000000000000000000a0000000000000000000000000b78686a2f9cb282e72795a0c78087ed69bdb0759000000000000000000000000000000000000000000000000000000000000000100000000000000000000000000000000000000000000000000000000000000506162630000000000000000000000000000000000000000000000000000000000000000000000000000000000000000000000000000000000000000000000000570726f7032000000000000000000000000000000000000000000000000000000",
        "nonce": "0x29",
        "chainId": "0x12c1"
      },
      "additionalContracts": [],
      "isFixedGasLimit": false
    },
    {
      "hash": "0x915d224b3d0be2a5759ec08f2b5a74f838449ee6e041f8516abaa74fa53e9d37",
      "transactionType": "CALL",
      "contractName": null,
      "contractAddress": "0x39cb184af026c05b6bcb507aa8365b2dbb377dcd",
      "function": "revealVote(string,address,bool,uint8,bytes32)",
      "arguments": [
        "prop2",
        "0x64Adb4F077ca5dE063e0105c5b9d905D48B547a7",
        "true",
        "60",
        "0x6162636400000000000000000000000000000000000000000000000000000000"
      ],
      "transaction": {
        "from": "0x851a7ba59ee589560921ebb47d464e15b8afe901",
        "to": "0x39cb184af026c05b6bcb507aa8365b2dbb377dcd",
        "gas": "0x17545",
        "value": "0x0",
        "input": "0x8336688900000000000000000000000000000000000000000000000000000000000000a000000000000000000000000064adb4f077ca5de063e0105c5b9d905d48b547a70000000000000000000000000000000000000000000000000000000000000001000000000000000000000000000000000000000000000000000000000000003c6162636400000000000000000000000000000000000000000000000000000000000000000000000000000000000000000000000000000000000000000000000570726f7032000000000000000000000000000000000000000000000000000000",
        "nonce": "0x2a",
        "chainId": "0x12c1"
      },
      "additionalContracts": [],
      "isFixedGasLimit": false
    },
    {
      "hash": "0x2a1fc23e22198b0d1e309c4d12617ca3b1a92ff4887cabb1f36c88a5c697fb0e",
      "transactionType": "CALL",
      "contractName": null,
      "contractAddress": "0x39cb184af026c05b6bcb507aa8365b2dbb377dcd",
      "function": "revealVote(string,address,bool,uint8,bytes32)",
      "arguments": [
        "prop2",
        "0xBD51F3433A10128BCF9D8061f3EEe39B2bCe07b7",
        "false",
        "30",
        "0x6162636465000000000000000000000000000000000000000000000000000000"
      ],
      "transaction": {
        "from": "0x851a7ba59ee589560921ebb47d464e15b8afe901",
        "to": "0x39cb184af026c05b6bcb507aa8365b2dbb377dcd",
        "gas": "0x1bccc",
        "value": "0x0",
        "input": "0x8336688900000000000000000000000000000000000000000000000000000000000000a0000000000000000000000000bd51f3433a10128bcf9d8061f3eee39b2bce07b70000000000000000000000000000000000000000000000000000000000000000000000000000000000000000000000000000000000000000000000000000001e6162636465000000000000000000000000000000000000000000000000000000000000000000000000000000000000000000000000000000000000000000000570726f7032000000000000000000000000000000000000000000000000000000",
        "nonce": "0x2b",
        "chainId": "0x12c1"
      },
      "additionalContracts": [],
      "isFixedGasLimit": false
    }
  ],
  "receipts": [
    {
      "status": "0x1",
      "cumulativeGasUsed": "0x18748",
      "logs": [],
      "logsBloom": "0x00000000000000000000000000000000000000000000000000000000000000000000000000000000000000000000000000000000000000000000000000000000000000000000000000000000000000000000000000000000000000000000000000000000000000000000000000000000000000000000000000000000000000000000000000000000000000000000000000000000000000000000000000000000000000000000000000000000000000000000000000000000000000000000000000000000000000000000000000000000000000000000000000000000000000000000000000000000000000000000000000000000000000000000000000000000",
      "type": "0x2",
      "transactionHash": "0x4225a0fed3321dfd8d5bc1dc48684316f33138e2869dbacd01944553fd043884",
      "transactionIndex": "0x1",
      "blockHash": "0x7f58ecb0b20713bfc178d1eaaa9d7e221c609d87fdbb0455a03b54d1be303d41",
      "blockNumber": "0xb1e77f",
      "gasUsed": "0xdc15",
      "effectiveGasPrice": "0xfb",
      "blobGasUsed": "0x0",
      "from": "0x851a7ba59ee589560921ebb47d464e15b8afe901",
      "to": "0x39cb184af026c05b6bcb507aa8365b2dbb377dcd",
      "contractAddress": null,
      "l1BaseFeeScalar": "0x558",
      "l1BlobBaseFee": "0x496c",
      "l1BlobBaseFeeScalar": "0xc5fc5",
      "l1Fee": "0x5e5ea7",
      "l1GasPrice": "0x207d1f",
      "l1GasUsed": "0x640"
    },
    {
      "status": "0x1",
      "cumulativeGasUsed": "0x2c943",
      "logs": [
        {
          "address": "0x39cb184af026c05b6bcb507aa8365b2dbb377dcd",
          "topics": [
            "0x58107a547261beb01eeef288838b698d4638f418bb3ce6a720ee0f197b2d2830"
          ],
          "data": "0x0000000000000000000000000000000000000000000000000000000000000080000000000000000000000000b78686a2f9cb282e72795a0c78087ed69bdb075900000000000000000000000000000000000000000000000000000000000000010000000000000000000000000000000000000000000000000000000000000050000000000000000000000000000000000000000000000000000000000000000570726f7032000000000000000000000000000000000000000000000000000000",
          "blockHash": "0x7f58ecb0b20713bfc178d1eaaa9d7e221c609d87fdbb0455a03b54d1be303d41",
          "blockNumber": "0xb1e77f",
          "transactionHash": "0xb39064b428c5ada5c23ec2b5e01f1557e4e22f4d57dc2f619068d3e73fefb949",
          "transactionIndex": "0x2",
          "logIndex": "0x0",
          "removed": false
        }
      ],
      "logsBloom": "0x00000000000000000000000000000000000000000000000000000000000000000000000000000000000000000000000000000000000000000000000000000000000000000000000000000000000000000000000000000000000000000000000000000000000000200000005000000000000000000000000000000000000000000000000000000000000000000000000001000000000000000000000000000000000000000800000000000000040000000000000000000000000000000000000000000000000000000000000000000000000000000000000000000000000000000000000000000000000000000000000000000000000000000000000000000000",
      "type": "0x2",
      "transactionHash": "0xb39064b428c5ada5c23ec2b5e01f1557e4e22f4d57dc2f619068d3e73fefb949",
      "transactionIndex": "0x2",
      "blockHash": "0x7f58ecb0b20713bfc178d1eaaa9d7e221c609d87fdbb0455a03b54d1be303d41",
      "blockNumber": "0xb1e77f",
      "gasUsed": "0x141fb",
      "effectiveGasPrice": "0xfb",
      "blobGasUsed": "0x0",
      "from": "0x851a7ba59ee589560921ebb47d464e15b8afe901",
      "to": "0x39cb184af026c05b6bcb507aa8365b2dbb377dcd",
      "contractAddress": null,
      "l1BaseFeeScalar": "0x558",
      "l1BlobBaseFee": "0x496c",
      "l1BlobBaseFeeScalar": "0xc5fc5",
      "l1Fee": "0x677bc0",
      "l1GasPrice": "0x207d1f",
      "l1GasUsed": "0x6da"
    },
    {
      "status": "0x1",
      "cumulativeGasUsed": "0x3c87e",
      "logs": [
        {
          "address": "0x39cb184af026c05b6bcb507aa8365b2dbb377dcd",
          "topics": [
            "0x58107a547261beb01eeef288838b698d4638f418bb3ce6a720ee0f197b2d2830"
          ],
          "data": "0x000000000000000000000000000000000000000000000000000000000000008000000000000000000000000064adb4f077ca5de063e0105c5b9d905d48b547a70000000000000000000000000000000000000000000000000000000000000001000000000000000000000000000000000000000000000000000000000000003c000000000000000000000000000000000000000000000000000000000000000570726f7032000000000000000000000000000000000000000000000000000000",
          "blockHash": "0x7f58ecb0b20713bfc178d1eaaa9d7e221c609d87fdbb0455a03b54d1be303d41",
          "blockNumber": "0xb1e77f",
          "transactionHash": "0x915d224b3d0be2a5759ec08f2b5a74f838449ee6e041f8516abaa74fa53e9d37",
          "transactionIndex": "0x3",
          "logIndex": "0x1",
          "removed": false
        }
      ],
      "logsBloom": "0x00000000000000000000000000000000000000000000000000000000000000000000000000000000000000000000000000000000000000000000000000000000000000000000000000000000000000000000000000000000000000000000000000000000000000200000005000000000000000000000000000000000000000000000000000000000000000000000000001000000000000000000000000000000000000000800000000000000040000000000000000000000000000000000000000000000000000000000000000000000000000000000000000000000000000000000000000000000000000000000000000000000000000000000000000000000",
      "type": "0x2",
      "transactionHash": "0x915d224b3d0be2a5759ec08f2b5a74f838449ee6e041f8516abaa74fa53e9d37",
      "transactionIndex": "0x3",
      "blockHash": "0x7f58ecb0b20713bfc178d1eaaa9d7e221c609d87fdbb0455a03b54d1be303d41",
      "blockNumber": "0xb1e77f",
      "gasUsed": "0xff3b",
      "effectiveGasPrice": "0xfb",
      "blobGasUsed": "0x0",
      "from": "0x851a7ba59ee589560921ebb47d464e15b8afe901",
      "to": "0x39cb184af026c05b6bcb507aa8365b2dbb377dcd",
      "contractAddress": null,
      "l1BaseFeeScalar": "0x558",
      "l1BlobBaseFee": "0x496c",
      "l1BlobBaseFeeScalar": "0xc5fc5",
      "l1Fee": "0x6845d6",
      "l1GasPrice": "0x207d1f",
      "l1GasUsed": "0x6e7"
    },
    {
      "status": "0x1",
      "cumulativeGasUsed": "0x50a85",
      "logs": [
        {
          "address": "0x39cb184af026c05b6bcb507aa8365b2dbb377dcd",
          "topics": [
            "0x58107a547261beb01eeef288838b698d4638f418bb3ce6a720ee0f197b2d2830"
          ],
          "data": "0x0000000000000000000000000000000000000000000000000000000000000080000000000000000000000000bd51f3433a10128bcf9d8061f3eee39b2bce07b70000000000000000000000000000000000000000000000000000000000000000000000000000000000000000000000000000000000000000000000000000001e000000000000000000000000000000000000000000000000000000000000000570726f7032000000000000000000000000000000000000000000000000000000",
          "blockHash": "0x7f58ecb0b20713bfc178d1eaaa9d7e221c609d87fdbb0455a03b54d1be303d41",
          "blockNumber": "0xb1e77f",
          "transactionHash": "0x2a1fc23e22198b0d1e309c4d12617ca3b1a92ff4887cabb1f36c88a5c697fb0e",
          "transactionIndex": "0x4",
          "logIndex": "0x2",
          "removed": false
        }
      ],
      "logsBloom": "0x00000000000000000000000000000000000000000000000000000000000000000000000000000000000000000000000000000000000000000000000000000000000000000000000000000000000000000000000000000000000000000000000000000000000000200000005000000000000000000000000000000000000000000000000000000000000000000000000001000000000000000000000000000000000000000800000000000000040000000000000000000000000000000000000000000000000000000000000000000000000000000000000000000000000000000000000000000000000000000000000000000000000000000000000000000000",
      "type": "0x2",
      "transactionHash": "0x2a1fc23e22198b0d1e309c4d12617ca3b1a92ff4887cabb1f36c88a5c697fb0e",
      "transactionIndex": "0x4",
      "blockHash": "0x7f58ecb0b20713bfc178d1eaaa9d7e221c609d87fdbb0455a03b54d1be303d41",
      "blockNumber": "0xb1e77f",
      "gasUsed": "0x14207",
      "effectiveGasPrice": "0xfb",
      "blobGasUsed": "0x0",
      "from": "0x851a7ba59ee589560921ebb47d464e15b8afe901",
      "to": "0x39cb184af026c05b6bcb507aa8365b2dbb377dcd",
      "contractAddress": null,
      "l1BaseFeeScalar": "0x558",
      "l1BlobBaseFee": "0x496c",
      "l1BlobBaseFeeScalar": "0xc5fc5",
      "l1Fee": "0x638951",
      "l1GasPrice": "0x207d1f",
      "l1GasUsed": "0x697"
    }
  ],
  "libraries": [],
  "pending": [],
  "returns": {},
  "timestamp": 1743865695,
  "chain": 4801,
  "commit": "f55a936"
}