{
  "transactions": [
    {
      "hash": "0xf1a2e6678cf7dbb0b9d9c4bc73621eec0d803ff3f673f9525fb7151f154ab493",
      "transactionType": "CALL",
      "contractName": null,
      "contractAddress": "0x39cb184af026c05b6bcb507aa8365b2dbb377dcd",
      "function": "finalize(string,address[],uint256[])",
      "arguments": [
        "prop2",
        "[0xBD51F3433A10128BCF9D8061f3EEe39B2bCe07b7, 0xB78686a2f9cb282E72795a0c78087eD69BDB0759, 0x64Adb4F077ca5dE063e0105c5b9d905D48B547a7]",
        "[0, 10000000000000000000, 30]"
      ],
      "transaction": {
        "from": "0x851a7ba59ee589560921ebb47d464e15b8afe901",
        "to": "0x39cb184af026c05b6bcb507aa8365b2dbb377dcd",
        "gas": "0x509f9",
        "value": "0x0",
        "input": "0xdd77ef16000000000000000000000000000000000000000000000000000000000000006000000000000000000000000000000000000000000000000000000000000000a00000000000000000000000000000000000000000000000000000000000000120000000000000000000000000000000000000000000000000000000000000000570726f70320000000000000000000000000000000000000000000000000000000000000000000000000000000000000000000000000000000000000000000003000000000000000000000000bd51f3433a10128bcf9d8061f3eee39b2bce07b7000000000000000000000000b78686a2f9cb282e72795a0c78087ed69bdb075900000000000000000000000064adb4f077ca5de063e0105c5b9d905d48b547a7000000000000000000000000000000000000000000000000000000000000000300000000000000000000000000000000000000000000000000000000000000000000000000000000000000000000000000000000000000008ac7230489e80000000000000000000000000000000000000000000000000000000000000000001e",
        "nonce": "0x2c",
        "chainId": "0x12c1"
      },
      "additionalContracts": [],
      "isFixedGasLimit": false
    }
  ],
  "receipts": [
    {
      "status": "0x1",
      "cumulativeGasUsed": "0x41d3c",
      "logs": [
        {
          "address": "0xe9d4186dbb7aa4e4054e6f5176e0206f58b6f64e",
          "topics": [
            "0xed2570ae73fe7e38149b889321f4588d317721fec9f7eb4459cfb4bc79433133",
            "0x7b10f77e80480367862f69097ea923fb6149936d2f678251e5ae79ea36ca618e"
          ],
          "data": "0x000000000000000000000000000000000000000000000000000000000000004000000000000000000000000000000000000000000000000000000000000000010000000000000000000000000000000000000000000000000000000000000012737573706963696f757320616464726573730000000000000000000000000000",
          "blockHash": "0x78ff3c81174cae0af93c74ada6b58d45d903babf5ce34a964184ad4a299d5209",
          "blockNumber": "0xb1e8e7",
          "transactionHash": "0xf1a2e6678cf7dbb0b9d9c4bc73621eec0d803ff3f673f9525fb7151f154ab493",
          "transactionIndex": "0x1",
          "logIndex": "0x0",
          "removed": false
        },
        {
          "address": "0x39cb184af026c05b6bcb507aa8365b2dbb377dcd",
          "topics": [
            "0x02e0b4ba358513ad0b594703ae447c8bb0a707cec1100e5615ce4b9236b90fe3"
          ],
          "data": "0x00000000000000000000000000000000000000000000000000000000000000400000000000000000000000000000000000000000000000000000000000000001000000000000000000000000000000000000000000000000000000000000000570726f7032000000000000000000000000000000000000000000000000000000",
          "blockHash": "0x78ff3c81174cae0af93c74ada6b58d45d903babf5ce34a964184ad4a299d5209",
          "blockNumber": "0xb1e8e7",
          "transactionHash": "0xf1a2e6678cf7dbb0b9d9c4bc73621eec0d803ff3f673f9525fb7151f154ab493",
          "transactionIndex": "0x1",
          "logIndex": "0x1",
          "removed": false
        }
      ],
      "logsBloom": "0x00000000000000000000000000000000000400000000000000000000000000000000000000000000000000000000000000000000000004000000000000000000000000000000000000000000000000000000000000000000000000000000000000000000000000000000001000000000000000000000000000000000000020000000000000000000000000000000000000800000000000000000002000400000000000100800000000040000040000000000000000000000000000000000000000000000000000000000000000000000000000000000000000000004400000000000200000000000000000000000000000000000000000000000040000000000",
      "type": "0x2",
      "transactionHash": "0xf1a2e6678cf7dbb0b9d9c4bc73621eec0d803ff3f673f9525fb7151f154ab493",
      "transactionIndex": "0x1",
      "blockHash": "0x78ff3c81174cae0af93c74ada6b58d45d903babf5ce34a964184ad4a299d5209",
      "blockNumber": "0xb1e8e7",
      "gasUsed": "0x37209",
      "effectiveGasPrice": "0xfb",
      "blobGasUsed": "0x0",
      "from": "0x851a7ba59ee589560921ebb47d464e15b8afe901",
      "to": "0x39cb184af026c05b6bcb507aa8365b2dbb377dcd",
      "contractAddress": null,
      "l1BaseFeeScalar": "0x558",
      "l1BlobBaseFee": "0x2437",
      "l1BlobBaseFeeScalar": "0xc5fc5",
      "l1Fee": "0x5a4d38",
      "l1GasPrice": "0x1348f8",
      "l1GasUsed": "0xa83"
    }
  ],
  "libraries": [],
  "pending": [],
  "returns": {},
  "timestamp": 1743866416,
  "chain": 4801,
  "commit": "f55a936"
}